{
  "contractName": "ERC1155MetaSalt",
  "abi": [
    {
      "anonymous": false,
      "inputs": [
        {
          "indexed": true,
          "internalType": "address",
          "name": "account",
          "type": "address"
        },
        {
          "indexed": true,
          "internalType": "address",
          "name": "operator",
          "type": "address"
        },
        {
          "indexed": false,
          "internalType": "bool",
          "name": "approved",
          "type": "bool"
        }
      ],
      "name": "ApprovalForAll",
      "type": "event"
    },
    {
      "anonymous": false,
      "inputs": [
        {
          "indexed": true,
          "internalType": "address",
          "name": "operator",
          "type": "address"
        },
        {
          "indexed": true,
          "internalType": "address",
          "name": "account",
          "type": "address"
        },
        {
          "indexed": false,
          "internalType": "uint256",
          "name": "id",
          "type": "uint256"
        },
        {
          "indexed": false,
          "internalType": "uint256",
          "name": "amount",
          "type": "uint256"
        }
      ],
      "name": "BurnLazy",
      "type": "event"
    },
    {
      "anonymous": false,
      "inputs": [
        {
          "indexed": true,
          "internalType": "address",
          "name": "operator",
          "type": "address"
        },
        {
          "indexed": true,
          "internalType": "address",
          "name": "account",
          "type": "address"
        },
        {
          "indexed": false,
          "internalType": "uint256[]",
          "name": "ids",
          "type": "uint256[]"
        },
        {
          "indexed": false,
          "internalType": "uint256[]",
          "name": "amounts",
          "type": "uint256[]"
        }
      ],
      "name": "BurnLazyBatch",
      "type": "event"
    },
    {
      "anonymous": false,
      "inputs": [
        {
          "indexed": false,
          "internalType": "uint256",
          "name": "tokenId",
          "type": "uint256"
        },
        {
          "indexed": false,
          "internalType": "address",
          "name": "creator",
          "type": "address"
        }
      ],
      "name": "Creator",
      "type": "event"
    },
    {
      "anonymous": false,
      "inputs": [
        {
          "indexed": true,
          "internalType": "address",
          "name": "operator",
          "type": "address"
        },
        {
          "indexed": false,
          "internalType": "bool",
          "name": "hasApproval",
          "type": "bool"
        }
      ],
      "name": "DefaultApproval",
      "type": "event"
    },
    {
      "anonymous": false,
      "inputs": [
        {
          "indexed": true,
          "internalType": "address",
          "name": "previousOwner",
          "type": "address"
        },
        {
          "indexed": true,
          "internalType": "address",
          "name": "newOwner",
          "type": "address"
        }
      ],
      "name": "OwnershipTransferred",
      "type": "event"
    },
    {
      "anonymous": false,
      "inputs": [
        {
          "indexed": false,
          "internalType": "uint256",
          "name": "tokenId",
          "type": "uint256"
        },
        {
          "indexed": false,
          "internalType": "uint256",
          "name": "value",
          "type": "uint256"
        }
      ],
      "name": "Supply",
      "type": "event"
    },
    {
      "anonymous": false,
      "inputs": [
        {
          "indexed": true,
          "internalType": "address",
          "name": "operator",
          "type": "address"
        },
        {
          "indexed": true,
          "internalType": "address",
          "name": "from",
          "type": "address"
        },
        {
          "indexed": true,
          "internalType": "address",
          "name": "to",
          "type": "address"
        },
        {
          "indexed": false,
          "internalType": "uint256[]",
          "name": "ids",
          "type": "uint256[]"
        },
        {
          "indexed": false,
          "internalType": "uint256[]",
          "name": "values",
          "type": "uint256[]"
        }
      ],
      "name": "TransferBatch",
      "type": "event"
    },
    {
      "anonymous": false,
      "inputs": [
        {
          "indexed": true,
          "internalType": "address",
          "name": "operator",
          "type": "address"
        },
        {
          "indexed": true,
          "internalType": "address",
          "name": "from",
          "type": "address"
        },
        {
          "indexed": true,
          "internalType": "address",
          "name": "to",
          "type": "address"
        },
        {
          "indexed": false,
          "internalType": "uint256",
          "name": "id",
          "type": "uint256"
        },
        {
          "indexed": false,
          "internalType": "uint256",
          "name": "value",
          "type": "uint256"
        }
      ],
      "name": "TransferSingle",
      "type": "event"
    },
    {
      "anonymous": false,
      "inputs": [
        {
          "indexed": false,
          "internalType": "string",
          "name": "value",
          "type": "string"
        },
        {
          "indexed": true,
          "internalType": "uint256",
          "name": "id",
          "type": "uint256"
        }
      ],
      "name": "URI",
      "type": "event"
    },
    {
      "inputs": [],
      "name": "MetasaltTokenCreateRewardValue",
      "outputs": [
        {
          "internalType": "uint256",
          "name": "",
          "type": "uint256"
        }
      ],
      "stateMutability": "view",
      "type": "function",
      "constant": true
    },
    {
      "inputs": [
        {
          "internalType": "address",
          "name": "account",
          "type": "address"
        },
        {
          "internalType": "uint256",
          "name": "id",
          "type": "uint256"
        }
      ],
      "name": "balanceOf",
      "outputs": [
        {
          "internalType": "uint256",
          "name": "",
          "type": "uint256"
        }
      ],
      "stateMutability": "view",
      "type": "function",
      "constant": true
    },
    {
      "inputs": [
        {
          "internalType": "address[]",
          "name": "accounts",
          "type": "address[]"
        },
        {
          "internalType": "uint256[]",
          "name": "ids",
          "type": "uint256[]"
        }
      ],
      "name": "balanceOfBatch",
      "outputs": [
        {
          "internalType": "uint256[]",
          "name": "",
          "type": "uint256[]"
        }
      ],
      "stateMutability": "view",
      "type": "function",
      "constant": true
    },
    {
      "inputs": [],
      "name": "baseURI",
      "outputs": [
        {
          "internalType": "string",
          "name": "",
          "type": "string"
        }
      ],
      "stateMutability": "view",
      "type": "function",
      "constant": true
    },
    {
      "inputs": [
        {
          "internalType": "address",
          "name": "account",
          "type": "address"
        },
        {
          "internalType": "uint256",
          "name": "id",
          "type": "uint256"
        },
        {
          "internalType": "uint256",
          "name": "amount",
          "type": "uint256"
        }
      ],
      "name": "burn",
      "outputs": [],
      "stateMutability": "nonpayable",
      "type": "function"
    },
    {
      "inputs": [
        {
          "internalType": "address",
          "name": "account",
          "type": "address"
        },
        {
          "internalType": "uint256[]",
          "name": "ids",
          "type": "uint256[]"
        },
        {
          "internalType": "uint256[]",
          "name": "amounts",
          "type": "uint256[]"
        }
      ],
      "name": "burnBatch",
      "outputs": [],
      "stateMutability": "nonpayable",
      "type": "function"
    },
    {
      "inputs": [
        {
          "internalType": "address",
          "name": "_owner",
          "type": "address"
        },
        {
          "internalType": "address",
          "name": "_operator",
          "type": "address"
        }
      ],
      "name": "isApprovedForAll",
      "outputs": [
        {
          "internalType": "bool",
          "name": "",
          "type": "bool"
        }
      ],
      "stateMutability": "view",
      "type": "function",
      "constant": true
    },
    {
      "inputs": [],
      "name": "metasaltToken",
      "outputs": [
        {
          "internalType": "address",
          "name": "",
          "type": "address"
        }
      ],
      "stateMutability": "view",
      "type": "function",
      "constant": true
    },
    {
      "inputs": [
        {
          "components": [
            {
              "internalType": "uint256",
              "name": "tokenId",
              "type": "uint256"
            },
            {
              "internalType": "string",
              "name": "tokenURI",
              "type": "string"
            },
            {
              "internalType": "uint256",
              "name": "supply",
              "type": "uint256"
            },
            {
              "internalType": "address",
              "name": "creator",
              "type": "address"
            },
            {
              "internalType": "uint256",
              "name": "royaltyFee",
              "type": "uint256"
            },
            {
              "internalType": "bytes",
              "name": "signature",
              "type": "bytes"
            }
          ],
          "internalType": "struct LibERC1155LazyMint.Mint1155Data",
          "name": "data",
          "type": "tuple"
        },
        {
          "internalType": "address",
          "name": "to",
          "type": "address"
        },
        {
          "internalType": "uint256",
          "name": "_amount",
          "type": "uint256"
        }
      ],
      "name": "mintAndTransfer",
      "outputs": [],
      "stateMutability": "nonpayable",
      "type": "function"
    },
    {
      "inputs": [],
      "name": "name",
      "outputs": [
        {
          "internalType": "string",
          "name": "",
          "type": "string"
        }
      ],
      "stateMutability": "view",
      "type": "function",
      "constant": true
    },
    {
      "inputs": [],
      "name": "owner",
      "outputs": [
        {
          "internalType": "address",
          "name": "",
          "type": "address"
        }
      ],
      "stateMutability": "view",
      "type": "function",
      "constant": true
    },
    {
      "inputs": [],
      "name": "renounceOwnership",
      "outputs": [],
      "stateMutability": "nonpayable",
      "type": "function"
    },
    {
      "inputs": [
        {
          "internalType": "uint256",
          "name": "tokenId",
          "type": "uint256"
        },
        {
          "internalType": "uint256",
          "name": "salePrice",
          "type": "uint256"
        }
      ],
      "name": "royaltyInfo",
      "outputs": [
        {
          "internalType": "address",
          "name": "receiver",
          "type": "address"
        },
        {
          "internalType": "uint256",
          "name": "royaltyAmount",
          "type": "uint256"
        }
      ],
      "stateMutability": "view",
      "type": "function",
      "constant": true
    },
    {
      "inputs": [
        {
          "internalType": "address",
          "name": "from",
          "type": "address"
        },
        {
          "internalType": "address",
          "name": "to",
          "type": "address"
        },
        {
          "internalType": "uint256[]",
          "name": "ids",
          "type": "uint256[]"
        },
        {
          "internalType": "uint256[]",
          "name": "amounts",
          "type": "uint256[]"
        },
        {
          "internalType": "bytes",
          "name": "data",
          "type": "bytes"
        }
      ],
      "name": "safeBatchTransferFrom",
      "outputs": [],
      "stateMutability": "nonpayable",
      "type": "function"
    },
    {
      "inputs": [
        {
          "internalType": "address",
          "name": "from",
          "type": "address"
        },
        {
          "internalType": "address",
          "name": "to",
          "type": "address"
        },
        {
          "internalType": "uint256",
          "name": "id",
          "type": "uint256"
        },
        {
          "internalType": "uint256",
          "name": "amount",
          "type": "uint256"
        },
        {
          "internalType": "bytes",
          "name": "data",
          "type": "bytes"
        }
      ],
      "name": "safeTransferFrom",
      "outputs": [],
      "stateMutability": "nonpayable",
      "type": "function"
    },
    {
      "inputs": [
        {
          "internalType": "address",
          "name": "operator",
          "type": "address"
        },
        {
          "internalType": "bool",
          "name": "approved",
          "type": "bool"
        }
      ],
      "name": "setApprovalForAll",
      "outputs": [],
      "stateMutability": "nonpayable",
      "type": "function"
    },
    {
      "inputs": [
        {
          "internalType": "address",
          "name": "_metaSaltToken",
          "type": "address"
        },
        {
          "internalType": "uint256",
          "name": "_erc20CreateRewardValue",
          "type": "uint256"
        }
      ],
      "name": "setMetaSaltToken",
      "outputs": [],
      "stateMutability": "nonpayable",
      "type": "function"
    },
    {
      "inputs": [
        {
          "internalType": "bytes4",
          "name": "interfaceId",
          "type": "bytes4"
        }
      ],
      "name": "supportsInterface",
      "outputs": [
        {
          "internalType": "bool",
          "name": "",
          "type": "bool"
        }
      ],
      "stateMutability": "view",
      "type": "function",
      "constant": true
    },
    {
      "inputs": [],
      "name": "symbol",
      "outputs": [
        {
          "internalType": "string",
          "name": "",
          "type": "string"
        }
      ],
      "stateMutability": "view",
      "type": "function",
      "constant": true
    },
    {
      "inputs": [
        {
          "components": [
            {
              "internalType": "uint256",
              "name": "tokenId",
              "type": "uint256"
            },
            {
              "internalType": "string",
              "name": "tokenURI",
              "type": "string"
            },
            {
              "internalType": "uint256",
              "name": "supply",
              "type": "uint256"
            },
            {
              "internalType": "address",
              "name": "creator",
              "type": "address"
            },
            {
              "internalType": "uint256",
              "name": "royaltyFee",
              "type": "uint256"
            },
            {
              "internalType": "bytes",
              "name": "signature",
              "type": "bytes"
            }
          ],
          "internalType": "struct LibERC1155LazyMint.Mint1155Data",
          "name": "data",
          "type": "tuple"
        },
        {
          "internalType": "address",
          "name": "from",
          "type": "address"
        },
        {
          "internalType": "address",
          "name": "to",
          "type": "address"
        },
        {
          "internalType": "uint256",
          "name": "amount",
          "type": "uint256"
        }
      ],
      "name": "transferFromOrMint",
      "outputs": [],
      "stateMutability": "nonpayable",
      "type": "function"
    },
    {
      "inputs": [
        {
          "internalType": "address",
          "name": "newOwner",
          "type": "address"
        }
      ],
      "name": "transferOwnership",
      "outputs": [],
      "stateMutability": "nonpayable",
      "type": "function"
    },
    {
      "inputs": [
        {
          "internalType": "uint256",
          "name": "id",
          "type": "uint256"
        }
      ],
      "name": "uri",
      "outputs": [
        {
          "internalType": "string",
          "name": "",
          "type": "string"
        }
      ],
      "stateMutability": "view",
      "type": "function",
      "constant": true
    },
    {
      "inputs": [
        {
          "internalType": "string",
          "name": "_name",
          "type": "string"
        },
        {
          "internalType": "string",
          "name": "_symbol",
          "type": "string"
        },
        {
          "internalType": "string",
          "name": "baseURI",
          "type": "string"
        },
        {
          "internalType": "address",
          "name": "_erc20Token",
          "type": "address"
        },
        {
          "internalType": "uint256",
          "name": "_erc20CreateRewardValue",
          "type": "uint256"
        }
      ],
      "name": "__ERC1155MetaSalt_init",
      "outputs": [],
      "stateMutability": "nonpayable",
      "type": "function"
    }
  ],
  "bytecode": "0x608060405234801561001057600080fd5b506141b3806100206000396000f3fe608060405234801561001057600080fd5b506004361061014c5760003560e01c80638da5cb5b116100c3578063e75080a11161007c578063e75080a1146102a1578063e985e9c5146102b4578063f242432a146102c7578063f2fde38b146102da578063f5298aca146102ed578063f8786f0f146103005761014c565b80638da5cb5b1461024357806395d89b4114610258578063a22cb46514610260578063ad3d7b7a14610273578063b89e426f1461027b578063cecfea1b1461028e5761014c565b80632eb2c2d6116101155780632eb2c2d6146101e35780634af8bd22146101f85780634e1273f4146102005780636b20c454146102205780636c0360eb14610233578063715018a61461023b5761014c565b8062fdd58e1461015157806301ffc9a71461017a57806306fdde031461019a5780630e89341c146101af5780632a55205a146101c2575b600080fd5b61016461015f3660046137fc565b610313565b6040516101719190613dad565b60405180910390f35b61018d610188366004613914565b610385565b6040516101719190613b67565b6101a2610398565b6040516101719190613b72565b6101a26101bd366004613a8f565b610427565b6101d56101d0366004613aa7565b610432565b604051610171929190613b16565b6101f66101f136600461364b565b61046d565b005b61016461076b565b61021361020e366004613857565b610772565b6040516101719190613b2f565b6101f661022e366004613752565b61085d565b6101a26109ec565b6101f6610a83565b61024b610b43565b6040516101719190613b02565b6101a2610b53565b6101f661026e3660046137c2565b610baf565b61024b610c9e565b6101f66102893660046137fc565b610cae565b6101f661029c36600461393c565b610d4a565b6101f66102af366004613a3b565b610dfd565b61018d6102c2366004613622565b6110df565b6101f66102d53660046136f0565b6110f2565b6101f66102e8366004613608565b6112ab565b6101f66102fb366004613825565b6113c2565b6101f661030e3660046139d8565b611437565b60006001600160a01b03831661035a5760405162461bcd60e51b815260040180806020018281038252602b815260200180613f2b602b913960400191505060405180910390fd5b5060008181526065602090815260408083206001600160a01b03861684529091529020545b92915050565b600061039082611492565b90505b919050565b610231805460408051602060026001851615610100026000190190941693909304601f8101849004840282018401909252818152929183018282801561041f5780601f106103f45761010080835404028352916020019161041f565b820191906000526020600020905b81548152906001019060200180831161040257829003601f168201915b505050505081565b606061039082611516565b60008281526101fa6020526040812080546001909101546001600160a01b0390911691906104649084026103e86116ab565b90509250929050565b81518351146104ad5760405162461bcd60e51b81526004018080602001828103825260288152602001806141566028913960400191505060405180910390fd5b6001600160a01b0384166104f25760405162461bcd60e51b8152600401808060200182810382526025815260200180613feb6025913960400191505060405180910390fd5b6104fa611712565b6001600160a01b0316856001600160a01b031614806105205750610520856102c2611712565b61055b5760405162461bcd60e51b81526004018080602001828103825260328152602001806140106032913960400191505060405180910390fd5b6000610565611712565b9050610575818787878787610763565b60005b845181101561067b57600085828151811061058f57fe5b6020026020010151905060008583815181106105a757fe5b60200260200101519050610614816040518060600160405280602a81526020016140b5602a91396065600086815260200190815260200160002060008d6001600160a01b03166001600160a01b03168152602001908152602001600020546117169092919063ffffffff16565b60008381526065602090815260408083206001600160a01b038e811685529252808320939093558a168152205461064b90826117ad565b60009283526065602090815260408085206001600160a01b038c1686529091529092209190915550600101610578565b50846001600160a01b0316866001600160a01b0316826001600160a01b03167f4a39dc06d4c0dbc64b70af90fd698a233a518aa5d07e595d983b8c0526c8f7fb8787604051808060200180602001838103835285818151815260200191508051906020019060200280838360005b838110156107015781810151838201526020016106e9565b50505050905001838103825284818151815260200191508051906020019060200280838360005b83811015610740578181015183820152602001610728565b5050505090500194505050505060405180910390a4610763818787878787611807565b505050505050565b6101fe5481565b606081518351146107b45760405162461bcd60e51b815260040180806020018281038252602981526020018061412d6029913960400191505060405180910390fd5b600083516001600160401b03811180156107cd57600080fd5b506040519080825280602002602001820160405280156107f7578160200160208202803683370190505b50905060005b84518110156108555761083685828151811061081557fe5b602002602001015185838151811061082957fe5b6020026020010151610313565b82828151811061084257fe5b60209081029190910101526001016107fd565b509392505050565b80518251146108875760405162461bcd60e51b815260040161087e90613d24565b60405180910390fd5b600082516001600160401b03811180156108a057600080fd5b506040519080825280602002602001820160405280156108ca578160200160208202803683370190505b509050600083516001600160401b03811180156108e657600080fd5b50604051908082528060200260200182016040528015610910578160200160208202803683370190505b50905060005b84518110156109855761094f85828151811061092e57fe5b602002602001015185838151811061094257fe5b6020026020010151611a86565b84838151811061095b57fe5b6020026020010184848151811061096e57fe5b602090810291909101019190915252600101610916565b50610991858584611afb565b846001600160a01b03166109a3611712565b6001600160a01b03167fcf3391513e21a9d4a0348f8e890080170eba18dc62db35b60d8a518b7088eb3a86846040516109dd929190613b42565b60405180910390a35050505050565b60988054604080516020601f6002600019610100600188161502019095169490940493840181900481028201810190925282815260609390929091830182828015610a785780601f10610a4d57610100808354040283529160200191610a78565b820191906000526020600020905b815481529060010190602001808311610a5b57829003601f168201915b505050505090505b90565b610a8b611712565b6001600160a01b0316610a9c610b43565b6001600160a01b031614610af7576040805162461bcd60e51b815260206004820181905260248201527f4f776e61626c653a2063616c6c6572206973206e6f7420746865206f776e6572604482015290519081900360640190fd5b610163546040516000916001600160a01b0316907f8be0079c531659141344cd1fd0a4f28419497f9722a3daafe3b4186f6b6457e0908390a361016380546001600160a01b0319169055565b610163546001600160a01b031690565b610232805460408051602060026001851615610100026000190190941693909304601f8101849004840282018401909252818152929183018282801561041f5780601f106103f45761010080835404028352916020019161041f565b816001600160a01b0316610bc1611712565b6001600160a01b03161415610c075760405162461bcd60e51b81526004018080602001828103825260298152602001806141046029913960400191505060405180910390fd5b8060666000610c14611712565b6001600160a01b03908116825260208083019390935260409182016000908120918716808252919093529120805460ff191692151592909217909155610c58611712565b6001600160a01b03167f17307eab39ab6107e8899845ad3d59bd9653f200f220920489ca2b5937696c318360405180821515815260200191505060405180910390a35050565b6101fd546001600160a01b031681565b610cb6611712565b6001600160a01b0316610cc7610b43565b6001600160a01b031614610d22576040805162461bcd60e51b815260206004820181905260248201527f4f776e61626c653a2063616c6c6572206973206e6f7420746865206f776e6572604482015290519081900360640190fd5b6101fd80546001600160a01b0319166001600160a01b0393909316929092179091556101fe55565b600054610100900460ff1680610d635750610d63611b74565b80610d71575060005460ff16155b610dac5760405162461bcd60e51b815260040180806020018281038252602e815260200180614042602e913960400191505060405180910390fd5b600054610100900460ff16158015610dd7576000805460ff1961ff0019909116610100171660011790555b610de48686868686611b85565b8015610763576000805461ff0019169055505050505050565b825160601c6000610e0c611712565b9050806001600160a01b0316826001600160a01b03161480610e335750610e3382826110df565b610e4f5760405162461bcd60e51b815260040161087e90613c7b565b60008311610e6f5760405162461bcd60e51b815260040161087e90613c51565b845160009081526101fb6020526040902054610fbd5784606001516001600160a01b0316826001600160a01b031614610eba5760405162461bcd60e51b815260040161087e90613c26565b6000856040015111610ede5760405162461bcd60e51b815260040161087e90613bc5565b60608501516001600160a01b0380821690831614610f14576000610f0187611be2565b9050610f1282828960a00151611c6d565b505b610f2686600001518760400151611c78565b610f3d866000015187606001518860800151611cf5565b610f4f86600001518760200151611d64565b6101fd5460608701516101fe546040516349ac068160e11b81526001600160a01b03909316926393580d0292610f89929091600401613b16565b600060405180830381600087803b158015610fa357600080fd5b505af1158015610fb7573d6000803e3d6000fd5b50505050505b610fdc8486600001518560405180602001604052806000815250611e27565b836001600160a01b0316826001600160a01b03161461108d57816001600160a01b031660006001600160a01b0316826001600160a01b0316600080516020613f0b833981519152886000015187604051611037929190613db6565b60405180910390a4836001600160a01b0316826001600160a01b0316826001600160a01b0316600080516020613f0b833981519152886000015187604051611080929190613db6565b60405180910390a46110d8565b836001600160a01b031660006001600160a01b0316826001600160a01b0316600080516020613f0b8339815191528860000151876040516110cf929190613db6565b60405180910390a45b5050505050565b60006110eb8383611e39565b9392505050565b6001600160a01b0384166111375760405162461bcd60e51b8152600401808060200182810382526025815260200180613feb6025913960400191505060405180910390fd5b61113f611712565b6001600160a01b0316856001600160a01b031614806111655750611165856102c2611712565b6111a05760405162461bcd60e51b8152600401808060200182810382526029815260200180613fa06029913960400191505060405180910390fd5b60006111aa611712565b90506111ca8187876111bb88611e66565b6111c488611e66565b87610763565b611211836040518060600160405280602a81526020016140b5602a913960008781526065602090815260408083206001600160a01b038d1684529091529020549190611716565b60008581526065602090815260408083206001600160a01b038b8116855292528083209390935587168152205461124890846117ad565b60008581526065602090815260408083206001600160a01b03808b168086529184529382902094909455805188815291820187905280518a841693861692600080516020613f0b83398151915292908290030190a4610763818787878787611eab565b6112b3611712565b6001600160a01b03166112c4610b43565b6001600160a01b03161461131f576040805162461bcd60e51b815260206004820181905260248201527f4f776e61626c653a2063616c6c6572206973206e6f7420746865206f776e6572604482015290519081900360640190fd5b6001600160a01b0381166113645760405162461bcd60e51b8152600401808060200182810382526026815260200180613f566026913960400191505060405180910390fd5b610163546040516001600160a01b038084169216907f8be0079c531659141344cd1fd0a4f28419497f9722a3daafe3b4186f6b6457e090600090a361016380546001600160a01b0319166001600160a01b0392909216919091179055565b6000806113cf8484611a86565b909250905081156113e5576113e585858461201c565b80156110d857846001600160a01b03166113fd611712565b6001600160a01b03167f5110a21391aa55386de41fe7a3e3dffb40132d38d629a113a7f4afff251b1a0186846040516109dd929190613db6565b6000611447848660000151610313565b905081811561148157828083101561145c5750815b61147c8686896000015184604051806020016040528060008152506110f2565b830390505b801561076357610763868583610dfd565b60006001600160e01b03198216636db15a0f60e01b14806114c357506001600160e01b031982166301ffc9a760e01b145b806114de57506001600160e01b03198216636cdb3d1360e11b145b806114f957506001600160e01b0319821663152a902d60e11b145b806103905750506001600160e01b0319166303a24d0760e21b1490565b600081815260976020908152604080832080548251601f60026000196101006001861615020190931692909204918201859004850281018501909352808352606094938301828280156115aa5780601f1061157f576101008083540402835291602001916115aa565b820191906000526020600020905b81548152906001019060200180831161158d57829003601f168201915b5050505050905060006115bb6109ec565b90508051600014156115cf57509050610393565b8151156115e9576115e08183612090565b92505050610393565b806115f385612275565b6040516020018083805190602001908083835b602083106116255780518252601f199092019160209182019101611606565b51815160209384036101000a600019018019909216911617905285519190930192850191508083835b6020831061166d5780518252601f19909201916020918201910161164e565b6001836020036101000a0380198251168184511680821785525050505050509050019250505060405160208183030381529060405292505050919050565b6000808211611701576040805162461bcd60e51b815260206004820152601a60248201527f536166654d6174683a206469766973696f6e206279207a65726f000000000000604482015290519081900360640190fd5b81838161170a57fe5b049392505050565b3390565b600081848411156117a55760405162461bcd60e51b81526004018080602001828103825283818151815260200191508051906020019080838360005b8381101561176a578181015183820152602001611752565b50505050905090810190601f1680156117975780820380516001836020036101000a031916815260200191505b509250505060405180910390fd5b505050900390565b6000828201838110156110eb576040805162461bcd60e51b815260206004820152601b60248201527f536166654d6174683a206164646974696f6e206f766572666c6f770000000000604482015290519081900360640190fd5b611819846001600160a01b031661234f565b1561076357836001600160a01b031663bc197c8187878686866040518663ffffffff1660e01b815260040180866001600160a01b03168152602001856001600160a01b03168152602001806020018060200180602001848103845287818151815260200191508051906020019060200280838360005b838110156118a757818101518382015260200161188f565b50505050905001848103835286818151815260200191508051906020019060200280838360005b838110156118e65781810151838201526020016118ce565b50505050905001848103825285818151815260200191508051906020019080838360005b8381101561192257818101518382015260200161190a565b50505050905090810190601f16801561194f5780820380516001836020036101000a031916815260200191505b5098505050505050505050602060405180830381600087803b15801561197457600080fd5b505af192505050801561199957506040513d602081101561199457600080fd5b505160015b611a2e576119a5613e0a565b806119b057506119f7565b60405162461bcd60e51b815260206004820181815283516024840152835184939192839260440191908501908083836000831561176a578181015183820152602001611752565b60405162461bcd60e51b8152600401808060200182810382526034815260200180613eaf6034913960400191505060405180910390fd5b6001600160e01b0319811663bc197c8160e01b14611a7d5760405162461bcd60e51b8152600401808060200182810382526028815260200180613ee36028913960400191505060405180910390fd5b50505050505050565b806000606084901c611a96611712565b6001600160a01b0316816001600160a01b03161415611af3578391506000611abd86612355565b90508015611ae2576000611ad087612368565b8203905080861115611ae0578093505b505b611aec868461237b565b8285039350505b509250929050565b611b03611712565b6001600160a01b0316836001600160a01b03161480611b295750611b29836102c2611712565b611b645760405162461bcd60e51b8152600401808060200182810382526029815260200180613fa06029913960400191505060405180910390fd5b611b6f838383612394565b505050565b6000611b7f3061234f565b15905090565b611b8d612602565b611b9782826126fd565b611b9f6127c2565b611ba7612873565b611baf612913565b611bc7604051806020016040528060008152506129e3565b611bcf612873565b611bd98585612aaf565b6110d883612b7c565b805160408083015160208085015180519082012060608087015160809788015186517f39fe0f86a2d2e0dd565ff360d4ffe2d0fbaf1482241bc61221389cd22455a664818701528088019890985291870194909452958501526001600160a01b0390911660a084015260c0808401949094528151808403909401845260e09092019052815191012090565b611b6f838383612b8f565b60008281526101fb602052604090205415611ca55760405162461bcd60e51b815260040161087e90613bef565b60008281526101fb602052604090819020829055517f5e2aa66efd74cce82b21852e317e5490d9ecc9e6bb953ae24d90851258cc2f5c90611ce99084908490613db6565b60405180910390a15050565b6001600160a01b038216611d1b5760405162461bcd60e51b815260040161087e90613ced565b6040805180820182526001600160a01b039384168152602080820193845260009586526101fa90529320925183546001600160a01b031916921691909117825551600190910155565b60008281526097602090815260409091208251611d83928401906133e2565b50817f6bb7ff708619ba0610cba295a58592e0451dee2622938c8755667688daf3529b611daf84611516565b6040805160208082528351818301528351919283929083019185019080838360005b83811015611de9578181015183820152602001611dd1565b50505050905090810190601f168015611e165780820380516001836020036101000a031916815260200191505b509250505060405180910390a25050565b611e3384848484612c05565b50505050565b6001600160a01b0381166000908152610195602052604081205460ff16806110eb57506110eb8383612d17565b60408051600180825281830190925260609160009190602080830190803683370190505090508281600081518110611e9a57fe5b602090810291909101015292915050565b611ebd846001600160a01b031661234f565b1561076357836001600160a01b031663f23a6e6187878686866040518663ffffffff1660e01b815260040180866001600160a01b03168152602001856001600160a01b0316815260200184815260200183815260200180602001828103825283818151815260200191508051906020019080838360005b83811015611f4c578181015183820152602001611f34565b50505050905090810190601f168015611f795780820380516001836020036101000a031916815260200191505b509650505050505050602060405180830381600087803b158015611f9c57600080fd5b505af1925050508015611fc157506040513d6020811015611fbc57600080fd5b505160015b611fcd576119a5613e0a565b6001600160e01b0319811663f23a6e6160e01b14611a7d5760405162461bcd60e51b8152600401808060200182810382526028815260200180613ee36028913960400191505060405180910390fd5b612024611712565b6001600160a01b0316836001600160a01b0316148061204a575061204a836102c2611712565b6120855760405162461bcd60e51b8152600401808060200182810382526029815260200180613fa06029913960400191505060405180910390fd5b611b6f838383612d45565b8051825160609184918491101561215b5784846040516020018083805190602001908083835b602083106120d55780518252601f1990920191602091820191016120b6565b51815160209384036101000a600019018019909216911617905285519190930192850191508083835b6020831061211d5780518252601f1990920191602091820191016120fe565b6001836020036101000a038019825116818451168082178552505050505050905001925050506040516020818303038152906040529250505061037f565b60005b825181101561226b5782818151811061217357fe5b602001015160f81c60f81b6001600160f81b03191682828151811061219457fe5b01602001516001600160f81b031916146122635785856040516020018083805190602001908083835b602083106121dc5780518252601f1990920191602091820191016121bd565b51815160209384036101000a600019018019909216911617905285519190930192850191508083835b602083106122245780518252601f199092019160209182019101612205565b6001836020036101000a03801982511681845116808217855250505050505090500192505050604051602081830303815290604052935050505061037f565b60010161215e565b5092949350505050565b60608161229a57506040805180820190915260018152600360fc1b6020820152610393565b8160005b81156122b257600101600a8204915061229e565b6000816001600160401b03811180156122ca57600080fd5b506040519080825280601f01601f1916602001820160405280156122f5576020820181803683370190505b50859350905060001982015b831561234657600a840660300160f81b8282806001900393508151811061232457fe5b60200101906001600160f81b031916908160001a905350600a84049350612301565b50949350505050565b3b151590565b60009081526101fb602052604090205490565b60009081526101fc602052604090205490565b60009182526101fc602052604090912080549091019055565b6001600160a01b0383166123d95760405162461bcd60e51b81526004018080602001828103825260238152602001806140926023913960400191505060405180910390fd5b80518251146124195760405162461bcd60e51b81526004018080602001828103825260288152602001806141566028913960400191505060405180910390fd5b6000612423611712565b905061244381856000868660405180602001604052806000815250610763565b60005b8351811015612521576124d883828151811061245e57fe5b6020026020010151604051806060016040528060248152602001613f7c602491396065600088868151811061248f57fe5b602002602001015181526020019081526020016000206000896001600160a01b03166001600160a01b03168152602001908152602001600020546117169092919063ffffffff16565b606560008684815181106124e857fe5b602090810291909101810151825281810192909252604090810160009081206001600160a01b038a168252909252902055600101612446565b5060006001600160a01b0316846001600160a01b0316826001600160a01b03167f4a39dc06d4c0dbc64b70af90fd698a233a518aa5d07e595d983b8c0526c8f7fb8686604051808060200180602001838103835285818151815260200191508051906020019060200280838360005b838110156125a8578181015183820152602001612590565b50505050905001838103825284818151815260200191508051906020019060200280838360005b838110156125e75781810151838201526020016125cf565b5050505090500194505050505060405180910390a450505050565b600054610100900460ff168061261b575061261b611b74565b80612629575060005460ff16155b6126645760405162461bcd60e51b815260040180806020018281038252602e815260200180614042602e913960400191505060405180910390fd5b600054610100900460ff1615801561268f576000805460ff1961ff0019909116610100171660011790555b6000612699611712565b61016380546001600160a01b0319166001600160a01b038316908117909155604051919250906000907f8be0079c531659141344cd1fd0a4f28419497f9722a3daafe3b4186f6b6457e0908290a35080156126fa576000805461ff00191690555b50565b600054610100900460ff16806127165750612716611b74565b80612724575060005460ff16155b61275f5760405162461bcd60e51b815260040180806020018281038252602e815260200180614042602e913960400191505060405180910390fd5b600054610100900460ff1615801561278a576000805460ff1961ff0019909116610100171660011790555b6101fd80546001600160a01b0319166001600160a01b0385161790556101fe8290558015611b6f576000805461ff0019169055505050565b600054610100900460ff16806127db57506127db611b74565b806127e9575060005460ff16155b6128245760405162461bcd60e51b815260040180806020018281038252602e815260200180614042602e913960400191505060405180910390fd5b600054610100900460ff1615801561284f576000805460ff1961ff0019909116610100171660011790555b61285f6301ffc9a760e01b612e66565b80156126fa576000805461ff001916905550565b600054610100900460ff168061288c575061288c611b74565b8061289a575060005460ff16155b6128d55760405162461bcd60e51b815260040180806020018281038252602e815260200180614042602e913960400191505060405180910390fd5b600054610100900460ff1615801561285f576000805460ff1961ff00199091166101001716600117905580156126fa576000805461ff001916905550565b600054610100900460ff168061292c575061292c611b74565b8061293a575060005460ff16155b6129755760405162461bcd60e51b815260040180806020018281038252602e815260200180614042602e913960400191505060405180910390fd5b600054610100900460ff161580156129a0576000805460ff1961ff0019909116610100171660011790555b61285f604051806040016040528060088152602001674d696e743131353560c01b815250604051806040016040528060018152602001603160f81b815250612eea565b600054610100900460ff16806129fc57506129fc611b74565b80612a0a575060005460ff16155b612a455760405162461bcd60e51b815260040180806020018281038252602e815260200180614042602e913960400191505060405180910390fd5b600054610100900460ff16158015612a70576000805460ff1961ff0019909116610100171660011790555b612a7982612faa565b612a89636cdb3d1360e11b612e66565b612a996303a24d0760e21b612e66565b8015612aab576000805461ff00191690555b5050565b600054610100900460ff1680612ac85750612ac8611b74565b80612ad6575060005460ff16155b612b115760405162461bcd60e51b815260040180806020018281038252602e815260200180614042602e913960400191505060405180910390fd5b600054610100900460ff16158015612b3c576000805460ff1961ff0019909116610100171660011790555b8251612b50906102319060208601906133e2565b508151612b65906102329060208501906133e2565b508015611b6f576000805461ff0019169055505050565b8051612aab9060989060208401906133e2565b6000612b9a83612fbd565b90506000825160411415612bb557612bb28284613009565b90505b846001600160a01b0316816001600160a01b0316146110d85760405162461bcd60e51b81526004018080602001828103825260258152602001806140df6025913960400191505060405180910390fd5b60008381526101fc6020526040812054612c209084906117ad565b60008581526101fb6020526040902054909150811115612c525760405162461bcd60e51b815260040161087e90613cc3565b60008481526101fc602052604090208190556001600160a01b038516612c8a5760405162461bcd60e51b815260040161087e90613d6c565b6000612c94611712565b9050612cb581600088612ca689611e66565b612caf89611e66565b88610763565b60008581526065602090815260408083206001600160a01b038a168452909152902054612ce290856117ad565b60008681526065602090815260408083206001600160a01b038b16845290915281209190915561076390829088888888611eab565b6001600160a01b03918216600090815260666020908152604080832093909416825291909152205460ff1690565b6001600160a01b038316612d8a5760405162461bcd60e51b81526004018080602001828103825260238152602001806140926023913960400191505060405180910390fd5b6000612d94611712565b9050612dc481856000612da687611e66565b612daf87611e66565b60405180602001604052806000815250610763565b612e0b82604051806060016040528060248152602001613f7c6024913960008681526065602090815260408083206001600160a01b038b1684529091529020549190611716565b60008481526065602090815260408083206001600160a01b03808a1680865291845282852095909555815188815292830187905281519394909390861692600080516020613f0b83398151915292908290030190a450505050565b6001600160e01b03198082161415612ec5576040805162461bcd60e51b815260206004820152601c60248201527f4552433136353a20696e76616c696420696e7465726661636520696400000000604482015290519081900360640190fd5b6001600160e01b0319166000908152603360205260409020805460ff19166001179055565b600054610100900460ff1680612f035750612f03611b74565b80612f11575060005460ff16155b612f4c5760405162461bcd60e51b815260040180806020018281038252602e815260200180614042602e913960400191505060405180910390fd5b600054610100900460ff16158015612f77576000805460ff1961ff0019909116610100171660011790555b825160208085019190912083519184019190912060cb9190915560cc558015611b6f576000805461ff0019169055505050565b8051612aab9060679060208401906133e2565b6000612fc7613089565b82604051602001808061190160f01b81525060020183815260200182815260200192505050604051602081830303815290604052805190602001209050919050565b60008151604114613061576040805162461bcd60e51b815260206004820152601f60248201527f45434453413a20696e76616c6964207369676e6174757265206c656e67746800604482015290519081900360640190fd5b60208201516040830151606084015160001a61307f868285856130c9565b9695505050505050565b60006130c47f8b73c3c69bb8fe3d512ecc4cf759cc79239f7b179b0ffacaa9a75d522b39400f6130b761331f565b6130bf613325565b61332b565b905090565b60007f7fffffffffffffffffffffffffffffff5d576e7357a4501ddfe92f46681b20a082111561312a5760405162461bcd60e51b8152600401808060200182810382526022815260200180613fc96022913960400191505060405180910390fd5b6000601e8560ff161115613204576004850360ff16601b148061315357506004850360ff16601c145b61318e5760405162461bcd60e51b81526004018080602001828103825260228152602001806140706022913960400191505060405180910390fd5b60016131998761338d565b60048703868660405160008152602001604052604051808581526020018460ff1681526020018381526020018281526020019450505050506020604051602081039080840390855afa1580156131f3573d6000803e3d6000fd5b5050506020604051035190506132bb565b8460ff16601b148061321957508460ff16601c145b6132545760405162461bcd60e51b81526004018080602001828103825260228152602001806140706022913960400191505060405180910390fd5b60018686868660405160008152602001604052604051808581526020018460ff1681526020018381526020018281526020019450505050506020604051602081039080840390855afa1580156132ae573d6000803e3d6000fd5b5050506020604051035190505b6001600160a01b038116613316576040805162461bcd60e51b815260206004820152601860248201527f45434453413a20696e76616c6964207369676e61747572650000000000000000604482015290519081900360640190fd5b95945050505050565b60cb5490565b60cc5490565b60008383836133386133de565b3060405160200180868152602001858152602001848152602001838152602001826001600160a01b03168152602001955050505050506040516020818303038152906040528051906020012090509392505050565b604080517f19457468657265756d205369676e6564204d6573736167653a0a333200000000602080830191909152603c8083019490945282518083039094018452605c909101909152815191012090565b4690565b828054600181600116156101000203166002900490600052602060002090601f016020900481019282613418576000855561345e565b82601f1061343157805160ff191683800117855561345e565b8280016001018555821561345e579182015b8281111561345e578251825591602001919060010190613443565b5061346a92915061346e565b5090565b5b8082111561346a576000815560010161346f565b80356001600160a01b038116811461039357600080fd5b600082601f8301126134aa578081fd5b813560206134bf6134ba83613de7565b613dc4565b82815281810190858301838502870184018810156134db578586fd5b855b858110156134f9578135845292840192908401906001016134dd565b5090979650505050505050565b600082601f830112613516578081fd5b81356001600160401b0381111561352957fe5b61353c601f8201601f1916602001613dc4565b818152846020838601011115613550578283fd5b816020850160208301379081016020019190915292915050565b600060c0828403121561357b578081fd5b61358560c0613dc4565b90508135815260208201356001600160401b03808211156135a557600080fd5b6135b185838601613506565b6020840152604084013560408401526135cc60608501613483565b60608401526080840135608084015260a08401359150808211156135ef57600080fd5b506135fc84828501613506565b60a08301525092915050565b600060208284031215613619578081fd5b6110eb82613483565b60008060408385031215613634578081fd5b61363d83613483565b915061046460208401613483565b600080600080600060a08688031215613662578081fd5b61366b86613483565b945061367960208701613483565b935060408601356001600160401b0380821115613694578283fd5b6136a089838a0161349a565b945060608801359150808211156136b5578283fd5b6136c189838a0161349a565b935060808801359150808211156136d6578283fd5b506136e388828901613506565b9150509295509295909350565b600080600080600060a08688031215613707578081fd5b61371086613483565b945061371e60208701613483565b9350604086013592506060860135915060808601356001600160401b03811115613746578182fd5b6136e388828901613506565b600080600060608486031215613766578283fd5b61376f84613483565b925060208401356001600160401b038082111561378a578384fd5b6137968783880161349a565b935060408601359150808211156137ab578283fd5b506137b88682870161349a565b9150509250925092565b600080604083850312156137d4578182fd5b6137dd83613483565b9150602083013580151581146137f1578182fd5b809150509250929050565b6000806040838503121561380e578182fd5b61381783613483565b946020939093013593505050565b600080600060608486031215613839578081fd5b61384284613483565b95602085013595506040909401359392505050565b60008060408385031215613869578182fd5b82356001600160401b038082111561387f578384fd5b818501915085601f830112613892578384fd5b813560206138a26134ba83613de7565b82815281810190858301838502870184018b10156138be578889fd5b8896505b848710156138e7576138d381613483565b8352600196909601959183019183016138c2565b50965050860135925050808211156138fd578283fd5b5061390a8582860161349a565b9150509250929050565b600060208284031215613925578081fd5b81356001600160e01b0319811681146110eb578182fd5b600080600080600060a08688031215613953578283fd5b85356001600160401b0380821115613969578485fd5b61397589838a01613506565b9650602088013591508082111561398a578485fd5b61399689838a01613506565b955060408801359150808211156139ab578485fd5b506139b888828901613506565b9350506139c760608701613483565b949793965091946080013592915050565b600080600080608085870312156139ed578182fd5b84356001600160401b03811115613a02578283fd5b613a0e8782880161356a565b945050613a1d60208601613483565b9250613a2b60408601613483565b9396929550929360600135925050565b600080600060608486031215613a4f578081fd5b83356001600160401b03811115613a64578182fd5b613a708682870161356a565b935050613a7f60208501613483565b9150604084013590509250925092565b600060208284031215613aa0578081fd5b5035919050565b60008060408385031215613ab9578182fd5b50508035926020909101359150565b6000815180845260208085019450808401835b83811015613af757815187529582019590820190600101613adb565b509495945050505050565b6001600160a01b0391909116815260200190565b6001600160a01b03929092168252602082015260400190565b6000602082526110eb6020830184613ac8565b600060408252613b556040830185613ac8565b82810360208401526133168185613ac8565b901515815260200190565b6000602080835283518082850152825b81811015613b9e57858101830151858201604001528201613b82565b81811115613baf5783604083870101525b50601f01601f1916929092016040019392505050565b60208082526010908201526f1cdd5c1c1b1e481a5b98dbdc9c9958dd60821b604082015260600190565b6020808252601a908201527f737570706c792073686f756c64206e6f74206265206578697374000000000000604082015260600190565b6020808252601190820152701d1bdad95b9259081a5b98dbdc9c9958dd607a1b604082015260600190565b60208082526010908201526f185b5bdd5b9d081a5b98dbdc9c9958dd60821b604082015260600190565b60208082526028908201527f455243313135353a207472616e736665722063616c6c6572206973206e6f7420604082015267185c1c1c9bdd995960c21b606082015260800190565b60208082526010908201526f6d6f7265207468616e20737570706c7960801b604082015260600190565b60208082526019908201527f4163636f756e742073686f756c642062652070726573656e7400000000000000604082015260600190565b60208082526028908201527f455243313135353a2069647320616e6420616d6f756e7473206c656e677468206040820152670dad2e6dac2e8c6d60c31b606082015260800190565b60208082526021908201527f455243313135353a206d696e7420746f20746865207a65726f206164647265736040820152607360f81b606082015260800190565b90815260200190565b918252602082015260400190565b6040518181016001600160401b0381118282101715613ddf57fe5b604052919050565b60006001600160401b03821115613dfa57fe5b5060209081020190565b60e01c90565b600060443d1015613e1a57610a80565b600481823e6308c379a0613e2e8251613e04565b14613e3857610a80565b6040513d600319016004823e80513d6001600160401b038160248401118184111715613e675750505050610a80565b82840192508251915080821115613e815750505050610a80565b503d83016020828401011115613e9957505050610a80565b601f01601f191681016020016040529150509056fe455243313135353a207472616e7366657220746f206e6f6e2045524331313535526563656976657220696d706c656d656e746572455243313135353a204552433131353552656365697665722072656a656374656420746f6b656e73c3d58168c5ae7397731d063d5bbf3d657854427343f4c083240f7aacaa2d0f62455243313135353a2062616c616e636520717565727920666f7220746865207a65726f20616464726573734f776e61626c653a206e6577206f776e657220697320746865207a65726f2061646472657373455243313135353a206275726e20616d6f756e7420657863656564732062616c616e6365455243313135353a2063616c6c6572206973206e6f74206f776e6572206e6f7220617070726f76656445434453413a20696e76616c6964207369676e6174757265202773272076616c7565455243313135353a207472616e7366657220746f20746865207a65726f2061646472657373455243313135353a207472616e736665722063616c6c6572206973206e6f74206f776e6572206e6f7220617070726f766564496e697469616c697a61626c653a20636f6e747261637420697320616c726561647920696e697469616c697a656445434453413a20696e76616c6964207369676e6174757265202776272076616c7565455243313135353a206275726e2066726f6d20746865207a65726f2061646472657373455243313135353a20696e73756666696369656e742062616c616e636520666f72207472616e73666572455243313135353a207369676e617475726520766572696669636174696f6e206572726f72455243313135353a2073657474696e6720617070726f76616c2073746174757320666f722073656c66455243313135353a206163636f756e747320616e6420696473206c656e677468206d69736d61746368455243313135353a2069647320616e6420616d6f756e7473206c656e677468206d69736d61746368a2646970667358221220028e203447c5d12583d52563ff4bc8ce9df5216c00b1812268314f93fe6b29b364736f6c63430007060033",
  "immutableReferences": {},
  "source": "// SPDX-License-Identifier: MIT\n\npragma solidity 0.7.6;\npragma abicoder v2;\n\nimport \"./ERC1155Base.sol\";\ncontract ERC1155MetaSalt is ERC1155Base {        \n    function __ERC1155MetaSalt_init(string memory _name, string memory _symbol, string memory baseURI, address _erc20Token, uint256 _erc20CreateRewardValue) external virtual initializer {\n        __ERC1155MetaSalt_init_unchained(_name, _symbol, baseURI, _erc20Token, _erc20CreateRewardValue);\n    }\n    \n    function __ERC1155MetaSalt_init_unchained(string memory _name, string memory _symbol, string memory baseURI, address _erc20Token, uint256 _erc20CreateRewardValue) internal {\n        __Ownable_init_unchained();\n        __ERC1155Lazy_init_unchained(_erc20Token, _erc20CreateRewardValue);\n        __ERC165_init_unchained();\n        __Context_init_unchained();\n        __Mint1155Validator_init_unchained();\n        __ERC1155_init_unchained(\"\");        \n        __ERC1155Burnable_init_unchained();        \n        __ERC1155Base_init_unchained(_name, _symbol);        \n        _setBaseURI(baseURI);\n    }\n\n    uint256[49] private __gap;\n}\n",
  "sourcePath": "/Volumes/Data/MetaSalt/smart_contracts/market/contracts/test/nfts/erc-1155/ERC1155MetaSalt.sol",
  "compiler": {
    "name": "solc",
    "version": "0.7.6+commit.7338295f.Emscripten.clang"
  },
  "schemaVersion": "3.4.5",
  "updatedAt": "2022-10-25T07:36:59.393Z",
  "networkType": "ethereum",
  "devdoc": {
    "kind": "dev",
    "methods": {
      "balanceOf(address,uint256)": {
        "details": "See {IERC1155-balanceOf}. Requirements: - `account` cannot be the zero address."
      },
      "balanceOfBatch(address[],uint256[])": {
        "details": "See {IERC1155-balanceOfBatch}. Requirements: - `accounts` and `ids` must have the same length."
      },
      "baseURI()": {
        "details": "Returns the base URI set via {_setBaseURI}. This will be automatically added as a prefix in {tokenURI} to each token's URI, or to the token ID if no specific URI is set for that token ID."
      },
      "owner()": {
        "details": "Returns the address of the current owner."
      },
      "renounceOwnership()": {
        "details": "Leaves the contract without owner. It will not be possible to call `onlyOwner` functions anymore. Can only be called by the current owner. NOTE: Renouncing ownership will leave the contract without an owner, thereby removing any functionality that is only available to the owner."
      },
      "safeBatchTransferFrom(address,address,uint256[],uint256[],bytes)": {
        "details": "See {IERC1155-safeBatchTransferFrom}."
      },
      "safeTransferFrom(address,address,uint256,uint256,bytes)": {
        "details": "See {IERC1155-safeTransferFrom}."
      },
      "setApprovalForAll(address,bool)": {
        "details": "See {IERC1155-setApprovalForAll}."
      },
      "transferOwnership(address)": {
        "details": "Transfers ownership of the contract to a new account (`newOwner`). Can only be called by the current owner."
      }
    },
    "version": 1
  },
  "userdoc": {
    "kind": "user",
    "methods": {},
    "version": 1
  }
}