{
  "contractName": "ERC721MetaSalt",
  "abi": [
    {
      "anonymous": false,
      "inputs": [
        {
          "indexed": true,
          "internalType": "address",
          "name": "owner",
          "type": "address"
        },
        {
          "indexed": true,
          "internalType": "address",
          "name": "approved",
          "type": "address"
        },
        {
          "indexed": true,
          "internalType": "uint256",
          "name": "tokenId",
          "type": "uint256"
        }
      ],
      "name": "Approval",
      "type": "event"
    },
    {
      "anonymous": false,
      "inputs": [
        {
          "indexed": true,
          "internalType": "address",
          "name": "owner",
          "type": "address"
        },
        {
          "indexed": true,
          "internalType": "address",
          "name": "operator",
          "type": "address"
        },
        {
          "indexed": false,
          "internalType": "bool",
          "name": "approved",
          "type": "bool"
        }
      ],
      "name": "ApprovalForAll",
      "type": "event"
    },
    {
      "anonymous": false,
      "inputs": [
        {
          "indexed": false,
          "internalType": "address",
          "name": "owner",
          "type": "address"
        },
        {
          "indexed": false,
          "internalType": "string",
          "name": "name",
          "type": "string"
        },
        {
          "indexed": false,
          "internalType": "string",
          "name": "symbol",
          "type": "string"
        }
      ],
      "name": "CreateERC721MetaSalt",
      "type": "event"
    },
    {
      "anonymous": false,
      "inputs": [
        {
          "indexed": false,
          "internalType": "uint256",
          "name": "tokenId",
          "type": "uint256"
        },
        {
          "indexed": false,
          "internalType": "address",
          "name": "creator",
          "type": "address"
        },
        {
          "indexed": false,
          "internalType": "uint256",
          "name": "royaltyFee",
          "type": "uint256"
        }
      ],
      "name": "Creator",
      "type": "event"
    },
    {
      "anonymous": false,
      "inputs": [
        {
          "indexed": true,
          "internalType": "address",
          "name": "operator",
          "type": "address"
        },
        {
          "indexed": false,
          "internalType": "bool",
          "name": "hasApproval",
          "type": "bool"
        }
      ],
      "name": "DefaultApproval",
      "type": "event"
    },
    {
      "anonymous": false,
      "inputs": [
        {
          "indexed": true,
          "internalType": "address",
          "name": "previousOwner",
          "type": "address"
        },
        {
          "indexed": true,
          "internalType": "address",
          "name": "newOwner",
          "type": "address"
        }
      ],
      "name": "OwnershipTransferred",
      "type": "event"
    },
    {
      "anonymous": false,
      "inputs": [
        {
          "indexed": true,
          "internalType": "address",
          "name": "from",
          "type": "address"
        },
        {
          "indexed": true,
          "internalType": "address",
          "name": "to",
          "type": "address"
        },
        {
          "indexed": true,
          "internalType": "uint256",
          "name": "tokenId",
          "type": "uint256"
        }
      ],
      "name": "Transfer",
      "type": "event"
    },
    {
      "inputs": [],
      "name": "MetasaltTokenCreateRewardValue",
      "outputs": [
        {
          "internalType": "uint256",
          "name": "",
          "type": "uint256"
        }
      ],
      "stateMutability": "view",
      "type": "function",
      "constant": true
    },
    {
      "inputs": [
        {
          "internalType": "address",
          "name": "to",
          "type": "address"
        },
        {
          "internalType": "uint256",
          "name": "tokenId",
          "type": "uint256"
        }
      ],
      "name": "approve",
      "outputs": [],
      "stateMutability": "nonpayable",
      "type": "function"
    },
    {
      "inputs": [
        {
          "internalType": "address",
          "name": "owner",
          "type": "address"
        }
      ],
      "name": "balanceOf",
      "outputs": [
        {
          "internalType": "uint256",
          "name": "",
          "type": "uint256"
        }
      ],
      "stateMutability": "view",
      "type": "function",
      "constant": true
    },
    {
      "inputs": [],
      "name": "baseURI",
      "outputs": [
        {
          "internalType": "string",
          "name": "",
          "type": "string"
        }
      ],
      "stateMutability": "view",
      "type": "function",
      "constant": true
    },
    {
      "inputs": [
        {
          "internalType": "uint256",
          "name": "tokenId",
          "type": "uint256"
        }
      ],
      "name": "burn",
      "outputs": [],
      "stateMutability": "nonpayable",
      "type": "function"
    },
    {
      "inputs": [
        {
          "components": [
            {
              "internalType": "uint256",
              "name": "tokenId",
              "type": "uint256"
            },
            {
              "internalType": "string",
              "name": "tokenURI",
              "type": "string"
            },
            {
              "internalType": "address",
              "name": "creator",
              "type": "address"
            },
            {
              "internalType": "uint256",
              "name": "royaltyFee",
              "type": "uint256"
            },
            {
              "internalType": "bytes",
              "name": "signature",
              "type": "bytes"
            }
          ],
          "internalType": "struct LibERC721LazyMint.Mint721Data",
          "name": "data",
          "type": "tuple"
        }
      ],
      "name": "encode",
      "outputs": [
        {
          "internalType": "bytes",
          "name": "",
          "type": "bytes"
        }
      ],
      "stateMutability": "view",
      "type": "function",
      "constant": true
    },
    {
      "inputs": [
        {
          "internalType": "uint256",
          "name": "tokenId",
          "type": "uint256"
        }
      ],
      "name": "getApproved",
      "outputs": [
        {
          "internalType": "address",
          "name": "",
          "type": "address"
        }
      ],
      "stateMutability": "view",
      "type": "function",
      "constant": true
    },
    {
      "inputs": [
        {
          "internalType": "address",
          "name": "owner",
          "type": "address"
        },
        {
          "internalType": "address",
          "name": "operator",
          "type": "address"
        }
      ],
      "name": "isApprovedForAll",
      "outputs": [
        {
          "internalType": "bool",
          "name": "",
          "type": "bool"
        }
      ],
      "stateMutability": "view",
      "type": "function",
      "constant": true
    },
    {
      "inputs": [],
      "name": "metasaltToken",
      "outputs": [
        {
          "internalType": "address",
          "name": "",
          "type": "address"
        }
      ],
      "stateMutability": "view",
      "type": "function",
      "constant": true
    },
    {
      "inputs": [
        {
          "components": [
            {
              "internalType": "uint256",
              "name": "tokenId",
              "type": "uint256"
            },
            {
              "internalType": "string",
              "name": "tokenURI",
              "type": "string"
            },
            {
              "internalType": "address",
              "name": "creator",
              "type": "address"
            },
            {
              "internalType": "uint256",
              "name": "royaltyFee",
              "type": "uint256"
            },
            {
              "internalType": "bytes",
              "name": "signature",
              "type": "bytes"
            }
          ],
          "internalType": "struct LibERC721LazyMint.Mint721Data",
          "name": "data",
          "type": "tuple"
        },
        {
          "internalType": "address",
          "name": "to",
          "type": "address"
        }
      ],
      "name": "mintAndTransfer",
      "outputs": [],
      "stateMutability": "nonpayable",
      "type": "function"
    },
    {
      "inputs": [],
      "name": "name",
      "outputs": [
        {
          "internalType": "string",
          "name": "",
          "type": "string"
        }
      ],
      "stateMutability": "view",
      "type": "function",
      "constant": true
    },
    {
      "inputs": [],
      "name": "owner",
      "outputs": [
        {
          "internalType": "address",
          "name": "",
          "type": "address"
        }
      ],
      "stateMutability": "view",
      "type": "function",
      "constant": true
    },
    {
      "inputs": [
        {
          "internalType": "uint256",
          "name": "tokenId",
          "type": "uint256"
        }
      ],
      "name": "ownerOf",
      "outputs": [
        {
          "internalType": "address",
          "name": "",
          "type": "address"
        }
      ],
      "stateMutability": "view",
      "type": "function",
      "constant": true
    },
    {
      "inputs": [],
      "name": "renounceOwnership",
      "outputs": [],
      "stateMutability": "nonpayable",
      "type": "function"
    },
    {
      "inputs": [
        {
          "internalType": "uint256",
          "name": "tokenId",
          "type": "uint256"
        },
        {
          "internalType": "uint256",
          "name": "salePrice",
          "type": "uint256"
        }
      ],
      "name": "royaltyInfo",
      "outputs": [
        {
          "internalType": "address",
          "name": "receiver",
          "type": "address"
        },
        {
          "internalType": "uint256",
          "name": "royaltyAmount",
          "type": "uint256"
        }
      ],
      "stateMutability": "view",
      "type": "function",
      "constant": true
    },
    {
      "inputs": [
        {
          "internalType": "address",
          "name": "from",
          "type": "address"
        },
        {
          "internalType": "address",
          "name": "to",
          "type": "address"
        },
        {
          "internalType": "uint256",
          "name": "tokenId",
          "type": "uint256"
        }
      ],
      "name": "safeTransferFrom",
      "outputs": [],
      "stateMutability": "nonpayable",
      "type": "function"
    },
    {
      "inputs": [
        {
          "internalType": "address",
          "name": "from",
          "type": "address"
        },
        {
          "internalType": "address",
          "name": "to",
          "type": "address"
        },
        {
          "internalType": "uint256",
          "name": "tokenId",
          "type": "uint256"
        },
        {
          "internalType": "bytes",
          "name": "_data",
          "type": "bytes"
        }
      ],
      "name": "safeTransferFrom",
      "outputs": [],
      "stateMutability": "nonpayable",
      "type": "function"
    },
    {
      "inputs": [
        {
          "internalType": "address",
          "name": "operator",
          "type": "address"
        },
        {
          "internalType": "bool",
          "name": "approved",
          "type": "bool"
        }
      ],
      "name": "setApprovalForAll",
      "outputs": [],
      "stateMutability": "nonpayable",
      "type": "function"
    },
    {
      "inputs": [
        {
          "internalType": "address",
          "name": "_metaSaltToken",
          "type": "address"
        },
        {
          "internalType": "uint256",
          "name": "_erc20CreateRewardValue",
          "type": "uint256"
        }
      ],
      "name": "setMetaSaltToken",
      "outputs": [],
      "stateMutability": "nonpayable",
      "type": "function"
    },
    {
      "inputs": [
        {
          "internalType": "bytes4",
          "name": "interfaceId",
          "type": "bytes4"
        }
      ],
      "name": "supportsInterface",
      "outputs": [
        {
          "internalType": "bool",
          "name": "",
          "type": "bool"
        }
      ],
      "stateMutability": "view",
      "type": "function",
      "constant": true
    },
    {
      "inputs": [],
      "name": "symbol",
      "outputs": [
        {
          "internalType": "string",
          "name": "",
          "type": "string"
        }
      ],
      "stateMutability": "view",
      "type": "function",
      "constant": true
    },
    {
      "inputs": [
        {
          "internalType": "uint256",
          "name": "index",
          "type": "uint256"
        }
      ],
      "name": "tokenByIndex",
      "outputs": [
        {
          "internalType": "uint256",
          "name": "",
          "type": "uint256"
        }
      ],
      "stateMutability": "view",
      "type": "function",
      "constant": true
    },
    {
      "inputs": [
        {
          "internalType": "address",
          "name": "owner",
          "type": "address"
        },
        {
          "internalType": "uint256",
          "name": "index",
          "type": "uint256"
        }
      ],
      "name": "tokenOfOwnerByIndex",
      "outputs": [
        {
          "internalType": "uint256",
          "name": "",
          "type": "uint256"
        }
      ],
      "stateMutability": "view",
      "type": "function",
      "constant": true
    },
    {
      "inputs": [
        {
          "internalType": "uint256",
          "name": "tokenId",
          "type": "uint256"
        }
      ],
      "name": "tokenURI",
      "outputs": [
        {
          "internalType": "string",
          "name": "",
          "type": "string"
        }
      ],
      "stateMutability": "view",
      "type": "function",
      "constant": true
    },
    {
      "inputs": [],
      "name": "totalSupply",
      "outputs": [
        {
          "internalType": "uint256",
          "name": "",
          "type": "uint256"
        }
      ],
      "stateMutability": "view",
      "type": "function",
      "constant": true
    },
    {
      "inputs": [
        {
          "internalType": "address",
          "name": "from",
          "type": "address"
        },
        {
          "internalType": "address",
          "name": "to",
          "type": "address"
        },
        {
          "internalType": "uint256",
          "name": "tokenId",
          "type": "uint256"
        }
      ],
      "name": "transferFrom",
      "outputs": [],
      "stateMutability": "nonpayable",
      "type": "function"
    },
    {
      "inputs": [
        {
          "components": [
            {
              "internalType": "uint256",
              "name": "tokenId",
              "type": "uint256"
            },
            {
              "internalType": "string",
              "name": "tokenURI",
              "type": "string"
            },
            {
              "internalType": "address",
              "name": "creator",
              "type": "address"
            },
            {
              "internalType": "uint256",
              "name": "royaltyFee",
              "type": "uint256"
            },
            {
              "internalType": "bytes",
              "name": "signature",
              "type": "bytes"
            }
          ],
          "internalType": "struct LibERC721LazyMint.Mint721Data",
          "name": "data",
          "type": "tuple"
        },
        {
          "internalType": "address",
          "name": "from",
          "type": "address"
        },
        {
          "internalType": "address",
          "name": "to",
          "type": "address"
        }
      ],
      "name": "transferFromOrMint",
      "outputs": [],
      "stateMutability": "nonpayable",
      "type": "function"
    },
    {
      "inputs": [
        {
          "internalType": "address",
          "name": "newOwner",
          "type": "address"
        }
      ],
      "name": "transferOwnership",
      "outputs": [],
      "stateMutability": "nonpayable",
      "type": "function"
    },
    {
      "inputs": [
        {
          "internalType": "string",
          "name": "_name",
          "type": "string"
        },
        {
          "internalType": "string",
          "name": "_symbol",
          "type": "string"
        },
        {
          "internalType": "string",
          "name": "baseURI",
          "type": "string"
        },
        {
          "internalType": "address",
          "name": "_erc20Token",
          "type": "address"
        },
        {
          "internalType": "uint256",
          "name": "_erc20CreateRewardValue",
          "type": "uint256"
        }
      ],
      "name": "__ERC721MetaSalt_init",
      "outputs": [],
      "stateMutability": "nonpayable",
      "type": "function"
    }
  ],
  "bytecode": "0x608060405234801561001057600080fd5b50613a8c806100206000396000f3fe608060405234801561001057600080fd5b50600436106101cf5760003560e01c80636c0360eb11610104578063aac3b439116100a2578063c87b56dd11610071578063c87b56dd146103a4578063e985e9c5146103b7578063f2fde38b146103ca578063f4bf8c05146103dd576101cf565b8063aac3b43914610363578063ad3d7b7a14610376578063b88d4fde1461037e578063b89e426f14610391576101cf565b806383adacb5116100de57806383adacb51461032d5780638da5cb5b1461034057806395d89b4114610348578063a22cb46514610350576101cf565b80636c0360eb1461030a57806370a0823114610312578063715018a614610325576101cf565b80632f745c591161017157806342966c681161014b57806342966c68146102c95780634af8bd22146102dc5780634f6ccce7146102e45780636352211e146102f7576101cf565b80632f745c591461029057806341f010de146102a357806342842e0e146102b6576101cf565b8063095ea7b3116101ad578063095ea7b31461023257806318160ddd1461024757806323b872dd1461025c5780632a55205a1461026f576101cf565b806301ffc9a7146101d457806306fdde03146101fd578063081812fc14610212575b600080fd5b6101e76101e236600461301a565b6103f0565b6040516101f49190613355565b60405180910390f35b610205610403565b6040516101f49190613360565b6102256102203660046131c1565b610499565b6040516101f49190613255565b610245610240366004612ff1565b6104e5565b005b61024f610582565b6040516101f4919061380d565b61024561026a366004612f16565b610593565b61028261027d3660046131d9565b6105cb565b6040516101f492919061333c565b61024f61029e366004612ff1565b610606565b6102456102b1366004613122565b610631565b6102456102c4366004612f16565b6107a1565b6102456102d73660046131c1565b6107bc565b61024f610886565b61024f6102f23660046131c1565b61088d565b6102256103053660046131c1565b6108a3565b6102056108cb565b61024f610320366004612ed3565b61092c565b610245610975565b61024561033b366004613165565b610a35565b610225610a63565b610205610a73565b61024561035e366004612fb7565b610ad4565b610245610371366004613052565b610ba2565b610225610c98565b61024561038c366004612f51565b610ca8565b61024561039f366004612ff1565b610ce7565b6102056103b23660046131c1565b610d83565b6101e76103c5366004612eed565b610eaf565b6102456103d8366004612ed3565b610ebb565b6102056103eb3660046130ef565b610fd2565b60006103fb82610ffd565b90505b919050565b606a8054604080516020601f600260001961010060018816150201909516949094049384018190048102820181019092528281526060939092909183018282801561048f5780601f106104645761010080835404028352916020019161048f565b820191906000526020600020905b81548152906001019060200180831161047257829003601f168201915b5050505050905090565b60006104a48261109c565b6104c95760405162461bcd60e51b81526004016104c0906135e6565b60405180910390fd5b506000908152606860205260409020546001600160a01b031690565b60006104f0826108a3565b9050806001600160a01b0316836001600160a01b031614156105245760405162461bcd60e51b81526004016104c09061374d565b806001600160a01b03166105366110a9565b6001600160a01b031614806105575750610557816105526110a9565b6110ad565b6105735760405162461bcd60e51b81526004016104c0906134c3565b61057d83836110db565b505050565b600061058e6066611149565b905090565b6105a461059e6110a9565b82611154565b6105c05760405162461bcd60e51b81526004016104c09061378e565b61057d838383611160565b60008281526101c66020526040812080546001909101546001600160a01b0390911691906105fd9084026103e861125c565b90509250929050565b6001600160a01b038216600090815260656020526040812061062890836112c3565b90505b92915050565b8151604083015160609190911c906001600160a01b031681146106665760405162461bcd60e51b81526004016104c090613520565b60006106706110a9565b9050806001600160a01b031684604001516001600160a01b0316148061069f575061069f846040015182610eaf565b6106bb5760405162461bcd60e51b81526004016104c09061378e565b60006106c6856112cf565b9050816001600160a01b031685604001516001600160a01b0316146106f8576106f88560400151828760800151611351565b61070684866000015161135c565b61071d85600001518660400151876060015161137a565b61072f856000015186602001516113e9565b6101c7546040808701516101c854915163366db8a160e21b81526001600160a01b039093169263d9b6e28492610768929160040161333c565b600060405180830381600087803b15801561078257600080fd5b505af1158015610796573d6000803e3d6000fd5b505050505050505050565b61057d83838360405180602001604052806000815250610ca8565b6107c58161109c565b61083457606081901c6107d66110a9565b6001600160a01b0316816001600160a01b0316146108255760405162461bcd60e51b815260040180806020018281038252602d8152602001806139b6602d913960400191505060405180910390fd5b61082e8261142d565b50610883565b61083f61059e6110a9565b61087a5760405162461bcd60e51b8152600401808060200182810382526030815260200180613a036030913960400191505060405180910390fd5b61088381611448565b50565b6101c85481565b60008061089b60668461150c565b509392505050565b60006103fb8260405180606001604052806029815260200161391b6029913960669190611528565b606d8054604080516020601f600260001961010060018816150201909516949094049384018190048102820181019092528281526060939092909183018282801561048f5780601f106104645761010080835404028352916020019161048f565b60006001600160a01b0382166109545760405162461bcd60e51b81526004016104c090613567565b6001600160a01b03821660009081526065602052604090206103fb90611149565b61097d6110a9565b6001600160a01b031661098e610a63565b6001600160a01b0316146109e9576040805162461bcd60e51b815260206004820181905260248201527f4f776e61626c653a2063616c6c6572206973206e6f7420746865206f776e6572604482015290519081900360640190fd5b610194546040516000916001600160a01b0316907f8be0079c531659141344cd1fd0a4f28419497f9722a3daafe3b4186f6b6457e0908390a361019480546001600160a01b0319169055565b8251610a409061109c565b15610a5957610a54828285600001516107a1565b61057d565b61057d8382610631565b610194546001600160a01b031690565b606b8054604080516020601f600260001961010060018816150201909516949094049384018190048102820181019092528281526060939092909183018282801561048f5780601f106104645761010080835404028352916020019161048f565b610adc6110a9565b6001600160a01b0316826001600160a01b03161415610b0d5760405162461bcd60e51b81526004016104c090613440565b8060696000610b1a6110a9565b6001600160a01b03908116825260208083019390935260409182016000908120918716808252919093529120805460ff191692151592909217909155610b5e6110a9565b6001600160a01b03167f17307eab39ab6107e8899845ad3d59bd9653f200f220920489ca2b5937696c3183604051610b969190613355565b60405180910390a35050565b600054610100900460ff1680610bbb5750610bbb61153f565b80610bc9575060005460ff16155b610c045760405162461bcd60e51b815260040180806020018281038252602e815260200180613944602e913960400191505060405180910390fd5b600054610100900460ff16158015610c2f576000805460ff1961ff0019909116610100171660011790555b610c3c8686868686611550565b7fb9803d81d7940793e76a2af33ec4b03f525e4ca5ebb280018cfbe07f5635dfb1610c656110a9565b8787604051610c769392919061329c565b60405180910390a18015610c90576000805461ff00191690555b505050505050565b6101c7546001600160a01b031681565b610cb9610cb36110a9565b83611154565b610cd55760405162461bcd60e51b81526004016104c09061378e565b610ce18484848461159c565b50505050565b610cef6110a9565b6001600160a01b0316610d00610a63565b6001600160a01b031614610d5b576040805162461bcd60e51b815260206004820181905260248201527f4f776e61626c653a2063616c6c6572206973206e6f7420746865206f776e6572604482015290519081900360640190fd5b6101c780546001600160a01b0319166001600160a01b0393909316929092179091556101c855565b6060610d8e8261109c565b610daa5760405162461bcd60e51b81526004016104c0906136c7565b6000828152606c602090815260408083208054825160026001831615610100026000190190921691909104601f810185900485028201850190935282815292909190830182828015610e3d5780601f10610e1257610100808354040283529160200191610e3d565b820191906000526020600020905b815481529060010190602001808311610e2057829003601f168201915b505050505090506000610e4e6108cb565b9050805160001415610e62575090506103fe565b815115610e7c57610e7381836115cf565b925050506103fe565b80610e86856117b4565b604051602001610e97929190613226565b60405160208183030381529060405292505050919050565b6000610628838361188f565b610ec36110a9565b6001600160a01b0316610ed4610a63565b6001600160a01b031614610f2f576040805162461bcd60e51b815260206004820181905260248201527f4f776e61626c653a2063616c6c6572206973206e6f7420746865206f776e6572604482015290519081900360640190fd5b6001600160a01b038116610f745760405162461bcd60e51b81526004018080602001828103825260268152602001806138ad6026913960400191505060405180910390fd5b610194546040516001600160a01b038084169216907f8be0079c531659141344cd1fd0a4f28419497f9722a3daafe3b4186f6b6457e090600090a361019480546001600160a01b0319166001600160a01b0392909216919091179055565b60603082604051602001610fe79291906132d2565b6040516020818303038152906040529050919050565b60006001600160e01b03198216638486f69f60e01b148061102e57506001600160e01b031982166301ffc9a760e01b145b8061104957506001600160e01b0319821663152a902d60e11b145b8061106457506001600160e01b031982166380ac58cd60e01b145b8061107f57506001600160e01b03198216635b5e139f60e01b145b806103fb5750506001600160e01b03191663780e9d6360e01b1490565b60006103fb6066836118bb565b3390565b6001600160a01b03918216600090815260696020908152604080832093909416825291909152205460ff1690565b600081815260686020526040902080546001600160a01b0319166001600160a01b0384169081179091558190611110826108a3565b6001600160a01b03167f8c5be1e5ebec7d5bd14f71427d1e84f3dd0314c0f7b2291e5b200ac8c7c3b92560405160405180910390a45050565b60006103fb826118c7565b600061062883836118cb565b826001600160a01b0316611173826108a3565b6001600160a01b0316146111995760405162461bcd60e51b81526004016104c09061367e565b6001600160a01b0382166111bf5760405162461bcd60e51b81526004016104c0906133fc565b6111ca83838361057d565b6111d56000826110db565b6001600160a01b03831660009081526065602052604090206111f790826118f7565b506001600160a01b038216600090815260656020526040902061121a9082611903565b506112276066828461190f565b5080826001600160a01b0316846001600160a01b03166000805160206139e383398151915260405160405180910390a4505050565b60008082116112b2576040805162461bcd60e51b815260206004820152601a60248201527f536166654d6174683a206469766973696f6e206279207a65726f000000000000604482015290519081900360640190fd5b8183816112bb57fe5b049392505050565b60006106288383611925565b805160208083015180519082012060408085015160608087015183517f64b7745b2715150d007548102f4cb13be2e2fec2b73b3b0c0ac6e2f1e8934ccb8188015280850197909752908601939093526001600160a01b0316608085015260a0808501929092528051808503909201825260c09093019092528151910120919050565b61057d838383611989565b6113768282604051806020016040528060008152506119ff565b5050565b6001600160a01b0382166113a05760405162461bcd60e51b81526004016104c090613716565b6040805180820182526001600160a01b039384168152602080820193845260009586526101c690529320925183546001600160a01b031916921691909117825551600190910155565b6113f28261109c565b61140e5760405162461bcd60e51b81526004016104c090613632565b6000828152606c60209081526040909120825161057d92840190612cbe565b6000908152606e60205260409020805460ff19166001179055565b6000611453826108a3565b90506114618160008461057d565b61146c6000836110db565b6000828152606c602052604090205460026000196101006001841615020190911604156114aa576000828152606c602052604081206114aa91612d4a565b6001600160a01b03811660009081526065602052604090206114cc90836118f7565b506114d8606683611a32565b506114e28261142d565b60405182906000906001600160a01b038416906000805160206139e3833981519152908390a45050565b600080808061151b8686611a3e565b9097909650945050505050565b6000611535848484611ab9565b90505b9392505050565b600061154a30611b83565b15905090565b61155983611b89565b6115638282611b9c565b61156b611c61565b611573611d02565b61157b611d9f565b611583611c61565b61158b611e99565b6115958585611f68565b5050505050565b6115a7848484611160565b6115b384848484612033565b610ce15760405162461bcd60e51b81526004016104c090613373565b8051825160609184918491101561169a5784846040516020018083805190602001908083835b602083106116145780518252601f1990920191602091820191016115f5565b51815160209384036101000a600019018019909216911617905285519190930192850191508083835b6020831061165c5780518252601f19909201916020918201910161163d565b6001836020036101000a038019825116818451168082178552505050505050905001925050506040516020818303038152906040529250505061062b565b60005b82518110156117aa578281815181106116b257fe5b602001015160f81c60f81b6001600160f81b0319168282815181106116d357fe5b01602001516001600160f81b031916146117a25785856040516020018083805190602001908083835b6020831061171b5780518252601f1990920191602091820191016116fc565b51815160209384036101000a600019018019909216911617905285519190930192850191508083835b602083106117635780518252601f199092019160209182019101611744565b6001836020036101000a03801982511681845116808217855250505050505090500192505050604051602081830303815290604052935050505061062b565b60010161169d565b5092949350505050565b6060816117d957506040805180820190915260018152600360fc1b60208201526103fe565b8160005b81156117f157600101600a820491506117dd565b60008167ffffffffffffffff8111801561180a57600080fd5b506040519080825280601f01601f191660200182016040528015611835576020820181803683370190505b50859350905060001982015b831561188657600a840660300160f81b8282806001900393508151811061186457fe5b60200101906001600160f81b031916908160001a905350600a84049350611841565b50949350505050565b6001600160a01b03811660009081526097602052604081205460ff1680610628575061062883836110ad565b60006106288383612113565b5490565b6001600160a01b03821660009081526097602052604081205460ff16806106285750610628838361212b565b600061062883836121a8565b6000610628838361226e565b600061153584846001600160a01b0385166122b8565b815460009082106119675760405162461bcd60e51b81526004018080602001828103825260228152602001806138596022913960400191505060405180910390fd5b82600001828154811061197657fe5b9060005260206000200154905092915050565b60006119948361234f565b905060008251604114156119af576119ac828461239b565b90505b846001600160a01b0316816001600160a01b0316146115955760405162461bcd60e51b8152600401808060200182810382526024815260200180613a336024913960400191505060405180910390fd5b611a09838361241b565b611a166000848484612033565b61057d5760405162461bcd60e51b81526004016104c090613373565b60006106288383612425565b815460009081908310611a825760405162461bcd60e51b81526004018080602001828103825260228152602001806139946022913960400191505060405180910390fd5b6000846000018481548110611a9357fe5b906000526020600020906002020190508060000154816001015492509250509250929050565b60008281526001840160205260408120548281611b545760405162461bcd60e51b81526004018080602001828103825283818151815260200191508051906020019080838360005b83811015611b19578181015183820152602001611b01565b50505050905090810190601f168015611b465780820380516001836020036101000a031916815260200191505b509250505060405180910390fd5b50846000016001820381548110611b6757fe5b9060005260206000209060020201600101549150509392505050565b3b151590565b805161137690606d906020840190612cbe565b600054610100900460ff1680611bb55750611bb561153f565b80611bc3575060005460ff16155b611bfe5760405162461bcd60e51b815260040180806020018281038252602e815260200180613944602e913960400191505060405180910390fd5b600054610100900460ff16158015611c29576000805460ff1961ff0019909116610100171660011790555b6101c780546001600160a01b0319166001600160a01b0385161790556101c8829055801561057d576000805461ff0019169055505050565b600054610100900460ff1680611c7a5750611c7a61153f565b80611c88575060005460ff16155b611cc35760405162461bcd60e51b815260040180806020018281038252602e815260200180613944602e913960400191505060405180910390fd5b600054610100900460ff16158015611cee576000805460ff1961ff0019909116610100171660011790555b8015610883576000805461ff001916905550565b600054610100900460ff1680611d1b5750611d1b61153f565b80611d29575060005460ff16155b611d645760405162461bcd60e51b815260040180806020018281038252602e815260200180613944602e913960400191505060405180910390fd5b600054610100900460ff16158015611d8f576000805460ff1961ff0019909116610100171660011790555b611cee6301ffc9a760e01b6124f9565b600054610100900460ff1680611db85750611db861153f565b80611dc6575060005460ff16155b611e015760405162461bcd60e51b815260040180806020018281038252602e815260200180613944602e913960400191505060405180910390fd5b600054610100900460ff16158015611e2c576000805460ff1961ff0019909116610100171660011790555b6000611e366110a9565b61019480546001600160a01b0319166001600160a01b038316908117909155604051919250906000907f8be0079c531659141344cd1fd0a4f28419497f9722a3daafe3b4186f6b6457e0908290a3508015610883576000805461ff001916905550565b600054610100900460ff1680611eb25750611eb261153f565b80611ec0575060005460ff16155b611efb5760405162461bcd60e51b815260040180806020018281038252602e815260200180613944602e913960400191505060405180910390fd5b600054610100900460ff16158015611f26576000805460ff1961ff0019909116610100171660011790555b611cee604051806040016040528060078152602001664d696e7437323160c81b815250604051806040016040528060018152602001603160f81b81525061257d565b600054610100900460ff1680611f815750611f8161153f565b80611f8f575060005460ff16155b611fca5760405162461bcd60e51b815260040180806020018281038252602e815260200180613944602e913960400191505060405180910390fd5b600054610100900460ff16158015611ff5576000805460ff1961ff0019909116610100171660011790555b825161200890606a906020860190612cbe565b50815161201c90606b906020850190612cbe565b50801561057d576000805461ff0019169055505050565b6000612047846001600160a01b0316611b83565b6120535750600161210b565b60006120db630a85bd0160e11b6120686110a9565b88878760405160240161207e9493929190613269565b604051602081830303815290604052906001600160e01b0319166020820180516001600160e01b03838183161783525050505060405180606001604052806032815260200161387b603291396001600160a01b038816919061263d565b90506000818060200190518101906120f39190613036565b6001600160e01b031916630a85bd0160e11b14925050505b949350505050565b60009081526001919091016020526040902054151590565b60006121368261109c565b6121525760405162461bcd60e51b81526004016104c090613477565b600061215d836108a3565b9050806001600160a01b0316846001600160a01b031614806121985750836001600160a01b031661218d84610499565b6001600160a01b0316145b8061210b575061210b81856110ad565b6000818152600183016020526040812054801561226457835460001980830191908101906000908790839081106121db57fe5b90600052602060002001549050808760000184815481106121f857fe5b60009182526020808320909101929092558281526001898101909252604090209084019055865487908061222857fe5b6001900381819060005260206000200160009055905586600101600087815260200190815260200160002060009055600194505050505061062b565b600091505061062b565b600061227a8383612113565b6122b05750815460018181018455600084815260208082209093018490558454848252828601909352604090209190915561062b565b50600061062b565b60008281526001840160205260408120548061231d575050604080518082018252838152602080820184815286546001818101895560008981528481209551600290930290950191825591519082015586548684528188019092529290912055611538565b8285600001600183038154811061233057fe5b9060005260206000209060020201600101819055506000915050611538565b600061235961264c565b82604051602001808061190160f01b81525060020183815260200182815260200192505050604051602081830303815290604052805190602001209050919050565b600081516041146123f3576040805162461bcd60e51b815260206004820152601f60248201527f45434453413a20696e76616c6964207369676e6174757265206c656e67746800604482015290519081900360640190fd5b60208201516040830151606084015160001a61241186828585612687565b9695505050505050565b61137682826128dd565b60008181526001830160205260408120548015612264578354600019808301919081019060009087908390811061245857fe5b906000526020600020906002020190508087600001848154811061247857fe5b6000918252602080832084546002909302019182556001938401549184019190915583548252898301905260409020908401905586548790806124b757fe5b600082815260208082206002600019909401938402018281556001908101839055929093558881528982019092526040822091909155945061062b9350505050565b6001600160e01b03198082161415612558576040805162461bcd60e51b815260206004820152601c60248201527f4552433136353a20696e76616c696420696e7465726661636520696400000000604482015290519081900360640190fd5b6001600160e01b0319166000908152603360205260409020805460ff19166001179055565b600054610100900460ff1680612596575061259661153f565b806125a4575060005460ff16155b6125df5760405162461bcd60e51b815260040180806020018281038252602e815260200180613944602e913960400191505060405180910390fd5b600054610100900460ff1615801561260a576000805460ff1961ff0019909116610100171660011790555b825160208085019190912083519184019190912060fc9190915560fd55801561057d576000805461ff0019169055505050565b60606115358484600085612a25565b600061058e7f8b73c3c69bb8fe3d512ecc4cf759cc79239f7b179b0ffacaa9a75d522b39400f61267a612b80565b612682612b86565b612b8c565b60007f7fffffffffffffffffffffffffffffff5d576e7357a4501ddfe92f46681b20a08211156126e85760405162461bcd60e51b81526004018080602001828103825260228152602001806138d36022913960400191505060405180910390fd5b6000601e8560ff1611156127c2576004850360ff16601b148061271157506004850360ff16601c145b61274c5760405162461bcd60e51b81526004018080602001828103825260228152602001806139726022913960400191505060405180910390fd5b600161275787612bee565b60048703868660405160008152602001604052604051808581526020018460ff1681526020018381526020018281526020019450505050506020604051602081039080840390855afa1580156127b1573d6000803e3d6000fd5b505050602060405103519050612879565b8460ff16601b14806127d757508460ff16601c145b6128125760405162461bcd60e51b81526004018080602001828103825260228152602001806139726022913960400191505060405180910390fd5b60018686868660405160008152602001604052604051808581526020018460ff1681526020018381526020018281526020019450505050506020604051602081039080840390855afa15801561286c573d6000803e3d6000fd5b5050506020604051035190505b6001600160a01b0381166128d4576040805162461bcd60e51b815260206004820152601860248201527f45434453413a20696e76616c6964207369676e61747572650000000000000000604482015290519081900360640190fd5b95945050505050565b6001600160a01b0382166129035760405162461bcd60e51b81526004016104c0906135b1565b61290c81612c3f565b156129295760405162461bcd60e51b81526004016104c0906137df565b6129328161109c565b1561294f5760405162461bcd60e51b81526004016104c0906133c5565b61295b6000838361057d565b6001600160a01b038216600090815260656020526040902061297d9082611903565b5061298a6066828461190f565b50606081901c6001600160a01b03831681146129fa5760405182906001600160a01b038316906000906000805160206139e3833981519152908290a481836001600160a01b0316826001600160a01b03166000805160206139e383398151915260405160405180910390a461057d565b60405182906001600160a01b038516906000906000805160206139e3833981519152908290a4505050565b606082471015612a665760405162461bcd60e51b81526004018080602001828103825260268152602001806138f56026913960400191505060405180910390fd5b612a6f85611b83565b612ac0576040805162461bcd60e51b815260206004820152601d60248201527f416464726573733a2063616c6c20746f206e6f6e2d636f6e7472616374000000604482015290519081900360640190fd5b600080866001600160a01b031685876040518082805190602001908083835b60208310612afe5780518252601f199092019160209182019101612adf565b6001836020036101000a03801982511681845116808217855250505050505090500191505060006040518083038185875af1925050503d8060008114612b60576040519150601f19603f3d011682016040523d82523d6000602084013e612b65565b606091505b5091509150612b75828286612c54565b979650505050505050565b60fc5490565b60fd5490565b6000838383612b99612cba565b3060405160200180868152602001858152602001848152602001838152602001826001600160a01b03168152602001955050505050506040516020818303038152906040528051906020012090509392505050565b604080517f19457468657265756d205369676e6564204d6573736167653a0a333200000000602080830191909152603c8083019490945282518083039094018452605c909101909152815191012090565b6000908152606e602052604090205460ff1690565b60608315612c63575081611538565b825115612c735782518084602001fd5b60405162461bcd60e51b8152602060048201818152845160248401528451859391928392604401919085019080838360008315611b19578181015183820152602001611b01565b4690565b828054600181600116156101000203166002900490600052602060002090601f016020900481019282612cf45760008555612d3a565b82601f10612d0d57805160ff1916838001178555612d3a565b82800160010185558215612d3a579182015b82811115612d3a578251825591602001919060010190612d1f565b50612d46929150612d8a565b5090565b50805460018160011615610100020316600290046000825580601f10612d705750610883565b601f01602090049060005260206000209081019061088391905b5b80821115612d465760008155600101612d8b565b80356001600160a01b03811681146103fe57600080fd5b600082601f830112612dc6578081fd5b813567ffffffffffffffff80821115612ddb57fe5b604051601f8301601f191681016020018281118282101715612df957fe5b604052828152848301602001861015612e10578384fd5b82602086016020830137918201602001929092529392505050565b600060a08284031215612e3c578081fd5b60405160a0810167ffffffffffffffff8282108183111715612e5a57fe5b81604052829350843583526020850135915080821115612e7957600080fd5b612e8586838701612db6565b6020840152612e9660408601612d9f565b6040840152606085013560608401526080850135915080821115612eb957600080fd5b50612ec685828601612db6565b6080830152505092915050565b600060208284031215612ee4578081fd5b61062882612d9f565b60008060408385031215612eff578081fd5b612f0883612d9f565b91506105fd60208401612d9f565b600080600060608486031215612f2a578081fd5b612f3384612d9f565b9250612f4160208501612d9f565b9150604084013590509250925092565b60008060008060808587031215612f66578081fd5b612f6f85612d9f565b9350612f7d60208601612d9f565b925060408501359150606085013567ffffffffffffffff811115612f9f578182fd5b612fab87828801612db6565b91505092959194509250565b60008060408385031215612fc9578182fd5b612fd283612d9f565b915060208301358015158114612fe6578182fd5b809150509250929050565b60008060408385031215613003578182fd5b61300c83612d9f565b946020939093013593505050565b60006020828403121561302b578081fd5b813561153881613842565b600060208284031215613047578081fd5b815161153881613842565b600080600080600060a08688031215613069578081fd5b853567ffffffffffffffff80821115613080578283fd5b61308c89838a01612db6565b965060208801359150808211156130a1578283fd5b6130ad89838a01612db6565b955060408801359150808211156130c2578283fd5b506130cf88828901612db6565b9350506130de60608701612d9f565b949793965091946080013592915050565b600060208284031215613100578081fd5b813567ffffffffffffffff811115613116578182fd5b61210b84828501612e2b565b60008060408385031215613134578182fd5b823567ffffffffffffffff81111561314a578283fd5b61315685828601612e2b565b9250506105fd60208401612d9f565b600080600060608486031215613179578081fd5b833567ffffffffffffffff81111561318f578182fd5b61319b86828701612e2b565b9350506131aa60208501612d9f565b91506131b860408501612d9f565b90509250925092565b6000602082840312156131d2578081fd5b5035919050565b600080604083850312156131eb578182fd5b50508035926020909101359150565b60008151808452613212816020860160208601613816565b601f01601f19169290920160200192915050565b60008351613238818460208801613816565b83519083019061324c818360208801613816565b01949350505050565b6001600160a01b0391909116815260200190565b6001600160a01b0385811682528416602082015260408101839052608060608201819052600090612411908301846131fa565b6001600160a01b03841681526060602082018190526000906132c0908301856131fa565b828103604084015261241181856131fa565b600060018060a01b0380851683526040602084015283516040840152602084015160a0606085015261330760e08501826131fa565b9050816040860151166080850152606085015160a085015260808501519150603f198482030160c085015261241181836131fa565b6001600160a01b03929092168252602082015260400190565b901515815260200190565b60006020825261062860208301846131fa565b60208082526032908201527f4552433732313a207472616e7366657220746f206e6f6e20455243373231526560408201527131b2b4bb32b91034b6b83632b6b2b73a32b960711b606082015260800190565b6020808252601c908201527f4552433732313a20746f6b656e20616c7265616479206d696e74656400000000604082015260600190565b60208082526024908201527f4552433732313a207472616e7366657220746f20746865207a65726f206164646040820152637265737360e01b606082015260800190565b60208082526019908201527f4552433732313a20617070726f766520746f2063616c6c657200000000000000604082015260600190565b6020808252602c908201527f4552433732313a206f70657261746f7220717565727920666f72206e6f6e657860408201526b34b9ba32b73a103a37b5b2b760a11b606082015260800190565b60208082526038908201527f4552433732313a20617070726f76652063616c6c6572206973206e6f74206f7760408201527f6e6572206e6f7220617070726f76656420666f7220616c6c0000000000000000606082015260800190565b60208082526027908201527f4552433732314d65746153616c743a20746f6b656e4964206973206e6f74206360408201526637b93932b1ba1760c91b606082015260800190565b6020808252602a908201527f4552433732313a2062616c616e636520717565727920666f7220746865207a65604082015269726f206164647265737360b01b606082015260800190565b6020808252818101527f4552433732313a206d696e7420746f20746865207a65726f2061646472657373604082015260600190565b6020808252602c908201527f4552433732313a20617070726f76656420717565727920666f72206e6f6e657860408201526b34b9ba32b73a103a37b5b2b760a11b606082015260800190565b6020808252602c908201527f4552433732314d657461646174613a2055524920736574206f66206e6f6e657860408201526b34b9ba32b73a103a37b5b2b760a11b606082015260800190565b60208082526029908201527f4552433732313a207472616e73666572206f6620746f6b656e2074686174206960408201526839903737ba1037bbb760b91b606082015260800190565b6020808252602f908201527f4552433732314d657461646174613a2055524920717565727920666f72206e6f60408201526e3732bc34b9ba32b73a103a37b5b2b760891b606082015260800190565b60208082526019908201527f4163636f756e742073686f756c642062652070726573656e7400000000000000604082015260600190565b60208082526021908201527f4552433732313a20617070726f76616c20746f2063757272656e74206f776e656040820152603960f91b606082015260800190565b60208082526031908201527f4552433732313a207472616e736665722063616c6c6572206973206e6f74206f6040820152701ddb995c881b9bdc88185c1c1c9bdd9959607a1b606082015260800190565b6020808252601490820152731d1bdad95b88185b1c9958591e48189d5c9b995960621b604082015260600190565b90815260200190565b60005b83811015613831578181015183820152602001613819565b83811115610ce15750506000910152565b6001600160e01b03198116811461088357600080fdfe456e756d657261626c655365743a20696e646578206f7574206f6620626f756e64734552433732313a207472616e7366657220746f206e6f6e20455243373231526563656976657220696d706c656d656e7465724f776e61626c653a206e6577206f776e657220697320746865207a65726f206164647265737345434453413a20696e76616c6964207369676e6174757265202773272076616c7565416464726573733a20696e73756666696369656e742062616c616e636520666f722063616c6c4552433732313a206f776e657220717565727920666f72206e6f6e6578697374656e7420746f6b656e496e697469616c697a61626c653a20636f6e747261637420697320616c726561647920696e697469616c697a656445434453413a20696e76616c6964207369676e6174757265202776272076616c7565456e756d657261626c654d61703a20696e646578206f7574206f6620626f756e64734552433732314275726e61626c653a2063616c6c6572206973206e6f74206f776e65722c206e6f74206275726eddf252ad1be2c89b69c2b068fc378daa952ba7f163c4a11628f55a4df523b3ef4552433732314275726e61626c653a2063616c6c6572206973206e6f74206f776e6572206e6f7220617070726f7665644552433732313a207369676e617475726520766572696669636174696f6e206572726f72a2646970667358221220446263274fde6999df4837161d33bc8c21917ef77637ef50d177848e68fe5efd64736f6c63430007060033",
  "immutableReferences": {},
  "source": "// SPDX-License-Identifier: MIT\npragma solidity 0.7.6;\npragma abicoder v2;\n\nimport \"./ERC721Base.sol\";\ncontract ERC721MetaSalt is ERC721Base {\n\n    event CreateERC721MetaSalt(address owner, string name, string symbol);\n\n    function __ERC721MetaSalt_init(string memory _name, string memory _symbol, string memory baseURI, address _erc20Token, uint256 _erc20CreateRewardValue) external initializer {\n        __ERC721MetaSalt_init_unchained(_name, _symbol, baseURI, _erc20Token, _erc20CreateRewardValue);\n        emit CreateERC721MetaSalt(_msgSender(), _name, _symbol);\n    }\n\n    function __ERC721MetaSalt_init_unchained(string memory _name, string memory _symbol, string memory baseURI, address _erc20Token, uint256 _erc20CreateRewardValue) internal {\n        _setBaseURI(baseURI);\n        __ERC721Lazy_init_unchained(_erc20Token, _erc20CreateRewardValue);        \n        __Context_init_unchained();\n        __ERC165_init_unchained();\n        __Ownable_init_unchained();\n        __ERC721Burnable_init_unchained();\n        __Mint721Validator_init_unchained();        \n        __ERC721_init_unchained(_name, _symbol);\n    }\n    uint256[50] private __gap;\n}",
  "sourcePath": "/Volumes/Data/MetaSalt/smart_contracts/market/contracts/test/nfts/ERC721MetaSalt.sol",
  "compiler": {
    "name": "solc",
    "version": "0.7.6+commit.7338295f.Emscripten.clang"
  },
  "schemaVersion": "3.4.5",
  "updatedAt": "2022-10-25T07:36:59.386Z",
  "networkType": "ethereum",
  "devdoc": {
    "kind": "dev",
    "methods": {
      "approve(address,uint256)": {
        "details": "See {IERC721-approve}."
      },
      "balanceOf(address)": {
        "details": "See {IERC721-balanceOf}."
      },
      "baseURI()": {
        "details": "Returns the base URI set via {_setBaseURI}. This will be automatically added as a prefix in {tokenURI} to each token's URI, or to the token ID if no specific URI is set for that token ID."
      },
      "burn(uint256)": {
        "details": "Burns `tokenId`. See {ERC721-_burn}. Requirements: - The caller must own `tokenId` or be an approved operator."
      },
      "getApproved(uint256)": {
        "details": "See {IERC721-getApproved}."
      },
      "name()": {
        "details": "See {IERC721Metadata-name}."
      },
      "owner()": {
        "details": "Returns the address of the current owner."
      },
      "ownerOf(uint256)": {
        "details": "See {IERC721-ownerOf}."
      },
      "renounceOwnership()": {
        "details": "Leaves the contract without owner. It will not be possible to call `onlyOwner` functions anymore. Can only be called by the current owner. NOTE: Renouncing ownership will leave the contract without an owner, thereby removing any functionality that is only available to the owner."
      },
      "safeTransferFrom(address,address,uint256)": {
        "details": "See {IERC721-safeTransferFrom}."
      },
      "safeTransferFrom(address,address,uint256,bytes)": {
        "details": "See {IERC721-safeTransferFrom}."
      },
      "setApprovalForAll(address,bool)": {
        "details": "See {IERC721-setApprovalForAll}."
      },
      "symbol()": {
        "details": "See {IERC721Metadata-symbol}."
      },
      "tokenByIndex(uint256)": {
        "details": "See {IERC721Enumerable-tokenByIndex}."
      },
      "tokenOfOwnerByIndex(address,uint256)": {
        "details": "See {IERC721Enumerable-tokenOfOwnerByIndex}."
      },
      "tokenURI(uint256)": {
        "details": "See {IERC721Metadata-tokenURI}."
      },
      "totalSupply()": {
        "details": "See {IERC721Enumerable-totalSupply}."
      },
      "transferFrom(address,address,uint256)": {
        "details": "See {IERC721-transferFrom}."
      },
      "transferOwnership(address)": {
        "details": "Transfers ownership of the contract to a new account (`newOwner`). Can only be called by the current owner."
      }
    },
    "version": 1
  },
  "userdoc": {
    "kind": "user",
    "methods": {},
    "version": 1
  }
}