{
  "contractName": "MarketCore",
  "abi": [
    {
      "anonymous": false,
      "inputs": [
        {
          "indexed": false,
          "internalType": "bytes32",
          "name": "hash",
          "type": "bytes32"
        },
        {
          "indexed": false,
          "internalType": "address",
          "name": "maker",
          "type": "address"
        },
        {
          "components": [
            {
              "internalType": "bytes4",
              "name": "assetClass",
              "type": "bytes4"
            },
            {
              "internalType": "bytes",
              "name": "data",
              "type": "bytes"
            }
          ],
          "indexed": false,
          "internalType": "struct LibAsset.AssetType",
          "name": "makeAssetType",
          "type": "tuple"
        },
        {
          "components": [
            {
              "internalType": "bytes4",
              "name": "assetClass",
              "type": "bytes4"
            },
            {
              "internalType": "bytes",
              "name": "data",
              "type": "bytes"
            }
          ],
          "indexed": false,
          "internalType": "struct LibAsset.AssetType",
          "name": "takeAssetType",
          "type": "tuple"
        }
      ],
      "name": "Cancel",
      "type": "event"
    },
    {
      "anonymous": false,
      "inputs": [
        {
          "indexed": false,
          "internalType": "bytes32",
          "name": "leftHash",
          "type": "bytes32"
        },
        {
          "indexed": false,
          "internalType": "bytes32",
          "name": "rightHash",
          "type": "bytes32"
        },
        {
          "indexed": false,
          "internalType": "address",
          "name": "leftMaker",
          "type": "address"
        },
        {
          "indexed": false,
          "internalType": "address",
          "name": "rightMaker",
          "type": "address"
        },
        {
          "components": [
            {
              "internalType": "bytes4",
              "name": "assetClass",
              "type": "bytes4"
            },
            {
              "internalType": "bytes",
              "name": "data",
              "type": "bytes"
            }
          ],
          "indexed": false,
          "internalType": "struct LibAsset.AssetType",
          "name": "leftAsset",
          "type": "tuple"
        },
        {
          "components": [
            {
              "internalType": "bytes4",
              "name": "assetClass",
              "type": "bytes4"
            },
            {
              "internalType": "bytes",
              "name": "data",
              "type": "bytes"
            }
          ],
          "indexed": false,
          "internalType": "struct LibAsset.AssetType",
          "name": "rightAsset",
          "type": "tuple"
        }
      ],
      "name": "OrderCompleted",
      "type": "event"
    },
    {
      "anonymous": false,
      "inputs": [
        {
          "indexed": true,
          "internalType": "address",
          "name": "previousOwner",
          "type": "address"
        },
        {
          "indexed": true,
          "internalType": "address",
          "name": "newOwner",
          "type": "address"
        }
      ],
      "name": "OwnershipTransferred",
      "type": "event"
    },
    {
      "anonymous": false,
      "inputs": [
        {
          "indexed": false,
          "internalType": "address",
          "name": "account",
          "type": "address"
        }
      ],
      "name": "Paused",
      "type": "event"
    },
    {
      "anonymous": false,
      "inputs": [
        {
          "indexed": false,
          "internalType": "address",
          "name": "account",
          "type": "address"
        }
      ],
      "name": "Unpaused",
      "type": "event"
    },
    {
      "inputs": [],
      "name": "defaultFeeReceiver",
      "outputs": [
        {
          "internalType": "address",
          "name": "",
          "type": "address"
        }
      ],
      "stateMutability": "view",
      "type": "function"
    },
    {
      "inputs": [
        {
          "internalType": "bytes32",
          "name": "",
          "type": "bytes32"
        }
      ],
      "name": "orderState",
      "outputs": [
        {
          "internalType": "uint256",
          "name": "",
          "type": "uint256"
        }
      ],
      "stateMutability": "view",
      "type": "function"
    },
    {
      "inputs": [],
      "name": "owner",
      "outputs": [
        {
          "internalType": "address",
          "name": "",
          "type": "address"
        }
      ],
      "stateMutability": "view",
      "type": "function"
    },
    {
      "inputs": [],
      "name": "paused",
      "outputs": [
        {
          "internalType": "bool",
          "name": "",
          "type": "bool"
        }
      ],
      "stateMutability": "view",
      "type": "function"
    },
    {
      "inputs": [],
      "name": "protocolFee",
      "outputs": [
        {
          "internalType": "uint256",
          "name": "",
          "type": "uint256"
        }
      ],
      "stateMutability": "view",
      "type": "function"
    },
    {
      "inputs": [],
      "name": "renounceOwnership",
      "outputs": [],
      "stateMutability": "nonpayable",
      "type": "function"
    },
    {
      "inputs": [
        {
          "internalType": "address payable",
          "name": "newDefaultFeeReceiver",
          "type": "address"
        }
      ],
      "name": "setDefaultFeeReceiver",
      "outputs": [],
      "stateMutability": "nonpayable",
      "type": "function"
    },
    {
      "inputs": [
        {
          "internalType": "uint256",
          "name": "newProtocolFee",
          "type": "uint256"
        }
      ],
      "name": "setProtocolFee",
      "outputs": [],
      "stateMutability": "nonpayable",
      "type": "function"
    },
    {
      "inputs": [
        {
          "internalType": "address",
          "name": "transferERC721Proxy",
          "type": "address"
        },
        {
          "internalType": "address",
          "name": "transferERC1155Proxy",
          "type": "address"
        }
      ],
      "name": "setTransferProxy",
      "outputs": [],
      "stateMutability": "nonpayable",
      "type": "function"
    },
    {
      "inputs": [
        {
          "internalType": "address",
          "name": "newOwner",
          "type": "address"
        }
      ],
      "name": "transferOwnership",
      "outputs": [],
      "stateMutability": "nonpayable",
      "type": "function"
    },
    {
      "inputs": [],
      "name": "fundContract",
      "outputs": [],
      "stateMutability": "payable",
      "type": "function"
    },
    {
      "inputs": [
        {
          "internalType": "uint256",
          "name": "value",
          "type": "uint256"
        }
      ],
      "name": "withdraw",
      "outputs": [],
      "stateMutability": "nonpayable",
      "type": "function"
    },
    {
      "inputs": [
        {
          "internalType": "uint256",
          "name": "amount",
          "type": "uint256"
        }
      ],
      "name": "withdrawTest",
      "outputs": [],
      "stateMutability": "nonpayable",
      "type": "function"
    },
    {
      "inputs": [
        {
          "components": [
            {
              "internalType": "address",
              "name": "maker",
              "type": "address"
            },
            {
              "components": [
                {
                  "components": [
                    {
                      "internalType": "bytes4",
                      "name": "assetClass",
                      "type": "bytes4"
                    },
                    {
                      "internalType": "bytes",
                      "name": "data",
                      "type": "bytes"
                    }
                  ],
                  "internalType": "struct LibAsset.AssetType",
                  "name": "assetType",
                  "type": "tuple"
                },
                {
                  "internalType": "uint256",
                  "name": "value",
                  "type": "uint256"
                }
              ],
              "internalType": "struct LibAsset.Asset",
              "name": "makeAsset",
              "type": "tuple"
            },
            {
              "internalType": "address",
              "name": "taker",
              "type": "address"
            },
            {
              "components": [
                {
                  "components": [
                    {
                      "internalType": "bytes4",
                      "name": "assetClass",
                      "type": "bytes4"
                    },
                    {
                      "internalType": "bytes",
                      "name": "data",
                      "type": "bytes"
                    }
                  ],
                  "internalType": "struct LibAsset.AssetType",
                  "name": "assetType",
                  "type": "tuple"
                },
                {
                  "internalType": "uint256",
                  "name": "value",
                  "type": "uint256"
                }
              ],
              "internalType": "struct LibAsset.Asset",
              "name": "takeAsset",
              "type": "tuple"
            },
            {
              "internalType": "bytes",
              "name": "data",
              "type": "bytes"
            }
          ],
          "internalType": "struct LibOrder.Order",
          "name": "order",
          "type": "tuple"
        }
      ],
      "name": "cancel",
      "outputs": [],
      "stateMutability": "nonpayable",
      "type": "function"
    },
    {
      "inputs": [
        {
          "components": [
            {
              "internalType": "address",
              "name": "maker",
              "type": "address"
            },
            {
              "components": [
                {
                  "components": [
                    {
                      "internalType": "bytes4",
                      "name": "assetClass",
                      "type": "bytes4"
                    },
                    {
                      "internalType": "bytes",
                      "name": "data",
                      "type": "bytes"
                    }
                  ],
                  "internalType": "struct LibAsset.AssetType",
                  "name": "assetType",
                  "type": "tuple"
                },
                {
                  "internalType": "uint256",
                  "name": "value",
                  "type": "uint256"
                }
              ],
              "internalType": "struct LibAsset.Asset",
              "name": "makeAsset",
              "type": "tuple"
            },
            {
              "internalType": "address",
              "name": "taker",
              "type": "address"
            },
            {
              "components": [
                {
                  "components": [
                    {
                      "internalType": "bytes4",
                      "name": "assetClass",
                      "type": "bytes4"
                    },
                    {
                      "internalType": "bytes",
                      "name": "data",
                      "type": "bytes"
                    }
                  ],
                  "internalType": "struct LibAsset.AssetType",
                  "name": "assetType",
                  "type": "tuple"
                },
                {
                  "internalType": "uint256",
                  "name": "value",
                  "type": "uint256"
                }
              ],
              "internalType": "struct LibAsset.Asset",
              "name": "takeAsset",
              "type": "tuple"
            },
            {
              "internalType": "bytes",
              "name": "data",
              "type": "bytes"
            }
          ],
          "internalType": "struct LibOrder.Order",
          "name": "orderLeft",
          "type": "tuple"
        },
        {
          "internalType": "bytes",
          "name": "signatureLeft",
          "type": "bytes"
        },
        {
          "components": [
            {
              "internalType": "address",
              "name": "maker",
              "type": "address"
            },
            {
              "components": [
                {
                  "components": [
                    {
                      "internalType": "bytes4",
                      "name": "assetClass",
                      "type": "bytes4"
                    },
                    {
                      "internalType": "bytes",
                      "name": "data",
                      "type": "bytes"
                    }
                  ],
                  "internalType": "struct LibAsset.AssetType",
                  "name": "assetType",
                  "type": "tuple"
                },
                {
                  "internalType": "uint256",
                  "name": "value",
                  "type": "uint256"
                }
              ],
              "internalType": "struct LibAsset.Asset",
              "name": "makeAsset",
              "type": "tuple"
            },
            {
              "internalType": "address",
              "name": "taker",
              "type": "address"
            },
            {
              "components": [
                {
                  "components": [
                    {
                      "internalType": "bytes4",
                      "name": "assetClass",
                      "type": "bytes4"
                    },
                    {
                      "internalType": "bytes",
                      "name": "data",
                      "type": "bytes"
                    }
                  ],
                  "internalType": "struct LibAsset.AssetType",
                  "name": "assetType",
                  "type": "tuple"
                },
                {
                  "internalType": "uint256",
                  "name": "value",
                  "type": "uint256"
                }
              ],
              "internalType": "struct LibAsset.Asset",
              "name": "takeAsset",
              "type": "tuple"
            },
            {
              "internalType": "bytes",
              "name": "data",
              "type": "bytes"
            }
          ],
          "internalType": "struct LibOrder.Order",
          "name": "orderRight",
          "type": "tuple"
        },
        {
          "internalType": "bytes",
          "name": "signatureRight",
          "type": "bytes"
        }
      ],
      "name": "matchOrders",
      "outputs": [],
      "stateMutability": "payable",
      "type": "function"
    },
    {
      "inputs": [
        {
          "components": [
            {
              "internalType": "bytes4",
              "name": "assetClass",
              "type": "bytes4"
            },
            {
              "internalType": "bytes",
              "name": "data",
              "type": "bytes"
            }
          ],
          "internalType": "struct LibAsset.AssetType",
          "name": "leftAssetType",
          "type": "tuple"
        },
        {
          "components": [
            {
              "internalType": "bytes4",
              "name": "assetClass",
              "type": "bytes4"
            },
            {
              "internalType": "bytes",
              "name": "data",
              "type": "bytes"
            }
          ],
          "internalType": "struct LibAsset.AssetType",
          "name": "rightAssetType",
          "type": "tuple"
        }
      ],
      "name": "matchAssets",
      "outputs": [
        {
          "components": [
            {
              "internalType": "bytes4",
              "name": "assetClass",
              "type": "bytes4"
            },
            {
              "internalType": "bytes",
              "name": "data",
              "type": "bytes"
            }
          ],
          "internalType": "struct LibAsset.AssetType",
          "name": "",
          "type": "tuple"
        }
      ],
      "stateMutability": "pure",
      "type": "function"
    }
  ],
  "bytecode": "0x608060405234801561001057600080fd5b506129ae806100206000396000f3fe6080604052600436106100f35760003560e01c8063aab14d041161008a578063d56afca611610059578063d56afca614610268578063eff55e7214610288578063f2fde38b146102a8578063fa43e530146102c8576100f3565b8063aab14d04146101fe578063b0e21e8a1461022b578063b4a7819f14610240578063bd097e2114610260576100f3565b80636d3f7cb0116100c65780636d3f7cb014610187578063715018a6146101b4578063787dce3d146101c95780638da5cb5b146101e9576100f3565b80631cdfe3d8146100f85780632e1a7d4d1461011a5780633abf6fd41461013a5780635c975abb14610165575b600080fd5b34801561010457600080fd5b50610118610113366004611fa2565b6102db565b005b34801561012657600080fd5b506101186101353660046121ed565b610360565b34801561014657600080fd5b5061014f6103cf565b60405161015c91906123a5565b60405180910390f35b34801561017157600080fd5b5061017a6103df565b60405161015c9190612415565b34801561019357600080fd5b506101a76101a2366004612205565b6103e8565b60405161015c9190612700565b3480156101c057600080fd5b5061011861051d565b3480156101d557600080fd5b506101186101e43660046121ed565b6105c9565b3480156101f557600080fd5b5061014f610631565b34801561020a57600080fd5b5061021e6102193660046121ed565b610640565b60405161015c919061282f565b34801561023757600080fd5b5061021e610653565b34801561024c57600080fd5b5061011861025b3660046121ed565b61065a565b610118610745565b34801561027457600080fd5b50610118610283366004612195565b610747565b34801561029457600080fd5b506101186102a3366004612266565b610826565b3480156102b457600080fd5b506101186102c3366004611fa2565b6108ce565b6101186102d6366004612299565b6109d1565b6102e3610be0565b6001600160a01b03166102f4610631565b6001600160a01b03161461033d576040805162461bcd60e51b81526020600482018190526024820152600080516020612959833981519152604482015290519081900360640190fd5b61013080546001600160a01b0319166001600160a01b0392909216919091179055565b610368610be0565b6001600160a01b0316610379610631565b6001600160a01b0316146103c2576040805162461bcd60e51b81526020600482018190526024820152600080516020612959833981519152604482015290519081900360640190fd5b6103cc3382610be4565b50565b610130546001600160a01b031681565b60335460ff1690565b6103f0611d3a565b81516001600160e01b0319166339d690a360e11b1480610421575081516001600160e01b03191663d8f960c160e01b145b8061043d575081516001600160e01b03191663025ceed960e61b145b80610458575081516001600160e01b03191662737ea960e61b145b156104f35760008084602001518060200190518101906104789190612168565b9150915060008085602001518060200190518101906104979190612168565b91509150816001600160a01b0316846001600160a01b03161480156104bb57508083145b156104ee5750506040805180820190915284516001600160e01b0319168152602080860151908201529250610517915050565b505050505b50604080518082018252600080825282516020818101909452908152918101919091525b92915050565b610525610be0565b6001600160a01b0316610536610631565b6001600160a01b03161461057f576040805162461bcd60e51b81526020600482018190526024820152600080516020612959833981519152604482015290519081900360640190fd5b60fd546040516000916001600160a01b0316907f8be0079c531659141344cd1fd0a4f28419497f9722a3daafe3b4186f6b6457e0908390a360fd80546001600160a01b0319169055565b6105d1610be0565b6001600160a01b03166105e2610631565b6001600160a01b03161461062b576040805162461bcd60e51b81526020600482018190526024820152600080516020612959833981519152604482015290519081900360640190fd5b61012f55565b60fd546001600160a01b031690565b6101606020526000908152604090205481565b61012f5481565b610662610be0565b6001600160a01b0316610673610631565b6001600160a01b0316146106bc576040805162461bcd60e51b81526020600482018190526024820152600080516020612959833981519152604482015290519081900360640190fd5b6000336001600160a01b0316826040516106d5906123a2565b60006040518083038185875af1925050503d8060008114610712576040519150601f19603f3d011682016040523d82523d6000602084013e610717565b606091505b50509050806107415760405162461bcd60e51b81526004016107389061266f565b60405180910390fd5b5050565b565b61074f610be0565b6001600160a01b0316610760610631565b6001600160a01b0316146107a9576040805162461bcd60e51b81526020600482018190526024820152600080516020612959833981519152604482015290519081900360640190fd5b6101316020527ffd23a7b9b5314a90813df2b64e60502a6b31b56b5df0686ee0049c8f7717bf7980546001600160a01b039384166001600160a01b03199182161790915563025ceed960e61b6000527f63c5e593bf2ee54e7cba16647235067582c7e8fc237b6736e61c9d87d0578cf78054929093169116179055565b80516001600160a01b0316610839610be0565b6001600160a01b03161461085f5760405162461bcd60e51b8152600401610738906126db565b600061086a82610c82565b60008181526101606020908152604091829020600390558451908501515160608601515192519394507fbbdc98cb2835f4f846e6a63700d0498b4674f0e8858fd50c6379314227afa04e936108c29386939291612420565b60405180910390a15050565b6108d6610be0565b6001600160a01b03166108e7610631565b6001600160a01b031614610930576040805162461bcd60e51b81526020600482018190526024820152600080516020612959833981519152604482015290519081900360640190fd5b6001600160a01b0381166109755760405162461bcd60e51b81526004018080602001828103825260268152602001806128ce6026913960400191505060405180910390fd5b60fd546040516001600160a01b038084169216907f8be0079c531659141344cd1fd0a4f28419497f9722a3daafe3b4186f6b6457e090600090a360fd80546001600160a01b0319166001600160a01b0392909216919091179055565b60026099541415610a29576040805162461bcd60e51b815260206004820152601f60248201527f5265656e7472616e637947756172643a207265656e7472616e742063616c6c00604482015290519081900360640190fd5b6002609955602082015151516001600160e01b0319166355575f5d60e11b14610a645760405162461bcd60e51b81526004016107389061250b565b606084015151516001600160e01b0319166355575f5d60e11b14610a9a5760405162461bcd60e51b81526004016107389061250b565b60408401516001600160a01b031615610ac55760405162461bcd60e51b815260040161073890612698565b60408201516001600160a01b031615610af05760405162461bcd60e51b815260040161073890612561565b81516001600160a01b03163314610b195760405162461bcd60e51b815260040161073890612537565b3484606001516020015114610b405760405162461bcd60e51b8152600401610738906124d4565b610b4a8484610d59565b610b548282610d59565b610b5e8483610d9e565b5050610b6a8483610e38565b6000610b7585610c82565b90506000610b8284610c82565b8651855160208901515160608a0151516040519495507f7980e0a70d0b16f81972215bd88d02e4599de4af5a3c8220130b37909e4da6b794610bcb948894889491939092612467565b60405180910390a15050600160995550505050565b3390565b6040516000906001600160a01b0384169083908381818185875af1925050503d8060008114610c2f576040519150601f19603f3d011682016040523d82523d6000602084013e610c34565b606091505b5050905080610c7d576040805162461bcd60e51b815260206004820152601060248201526f7472616e73666572206661696c65643160801b604482015290519081900360640190fd5b505050565b805160208201515160009190610c9790611005565b606084015151610ca690611005565b846080015160405160200180856001600160a01b0316815260200184815260200183815260200180602001828103825283818151815260200191508051906020019080838360005b83811015610d06578181015183820152602001610cee565b50505050905090810190601f168015610d335780820380516001836020036101000a031916815260200191505b50955050505050506040516020818303038152906040528051906020012090505b919050565b6000610d6483610c82565b6000818152610160602052604090205490915015610d945760405162461bcd60e51b815260040161073890612613565b610c7d838361106f565b610da6611d3a565b610dae611d3a565b602084015151606084015151610dc491906103e8565b80519092506001600160e01b031916610def5760405162461bcd60e51b815260040161073890612643565b606084015151602084015151610e0591906103e8565b80519091506001600160e01b03191615610e315760405162461bcd60e51b815260040161073890612643565b9250929050565b8151815160608401516020015161012f54600090610e65906103e890610e5f9085906110f1565b90611151565b61013054909150610e7f906001600160a01b031682610be4565b6020860151515160009081906001600160e01b0319166339d690a360e11b1415610ee257610eb2886020015187876111b8565b610ec088602001518561125d565b925090508115610edd57610edd6001600160a01b03821683611348565b610fcf565b602088015151516001600160e01b03191663d8f960c160e01b1415610f1e57610f10886020015187876113e1565b610ec0886020015185611459565b602088015151516001600160e01b03191663025ceed960e61b1415610f7757610f4c886020015187876114e3565b610f5a88602001518561153c565b925090508115610edd57610edd6001600160a01b0382168361155e565b602088015151516001600160e01b03191662737ea960e61b1415610fcf57610fa4886020015187876115f7565b610fb2886020015185611650565b925090508115610fcf57610fcf6001600160a01b0382168361155e565b6000610fe583610fdf8787611672565b90611672565b9050610ffa6001600160a01b038816826116cf565b505050505050505050565b8051602091820151805190830120604080517f452a0dc408cb0d27ffc3b3caff933a5208040a53a9dbecd8d89cad2c0d40e00c818601526001600160e01b031990931683820152606080840192909252805180840390920182526080909201909152805191012090565b81516001600160a01b0316611082610be0565b6001600160a01b03161461074157600061109b83611768565b905060008251604114156110bf576110bc836110b68461181d565b90611869565b90505b83516001600160a01b038281169116146110eb5760405162461bcd60e51b8152600401610738906125a5565b50505050565b60008261110057506000610517565b8282028284828161110d57fe5b041461114a5760405162461bcd60e51b81526004018080602001828103825260218152602001806129386021913960400191505060405180910390fd5b9392505050565b60008082116111a7576040805162461bcd60e51b815260206004820152601a60248201527f536166654d6174683a206469766973696f6e206279207a65726f000000000000604482015290519081900360640190fd5b8183816111b057fe5b049392505050565b6000808460000151602001518060200190518101906111d79190612168565b9150915084602001516001146111ff5760405162461bcd60e51b8152600401610738906125e7565b6040516323b872dd60e01b81526001600160a01b038316906323b872dd9061122f908790879086906004016123b9565b600060405180830381600087803b15801561124957600080fd5b505af1158015610ffa573d6000803e3d6000fd5b60008083602001516001146112845760405162461bcd60e51b8152600401610738906125e7565b6000808560000151602001518060200190518101906112a39190612168565b915091506000806112b3846118e9565b1561133b5760405163152a902d60e11b81526001600160a01b03851690632a55205a906112e69086908b90600401612838565b604080518083038186803b1580156112fd57600080fd5b505afa158015611311573d6000803e3d6000fd5b505050506040513d601f19601f820116820180604052508101906113359190612168565b90925090505b9097909650945050505050565b6040516000906001600160a01b0384169083908381818185875af1925050503d8060008114611393576040519150601f19603f3d011682016040523d82523d6000602084013e611398565b606091505b5050905080610c7d576040805162461bcd60e51b815260206004820152601060248201526f3a3930b739b332b9103330b4b632b21960811b604482015290519081900360640190fd5b82602001516001146114055760405162461bcd60e51b8152600401610738906125e7565b6000808460000151602001518060200190518101906114249190612091565b6040516383adacb560e01b815291935091506001600160a01b038316906383adacb59061122f908490889088906004016127ae565b60008083602001516001146114805760405162461bcd60e51b8152600401610738906125e7565b60008085600001516020015180602001905181019061149f9190612091565b915091506000806114af846118e9565b1561133b57825160405163152a902d60e11b81526001600160a01b03861691632a55205a916112e691908b90600401612838565b6000808460000151602001518060200190518101906115029190612168565b91509150816001600160a01b031663f242432a85858489602001516040518563ffffffff1660e01b815260040161122f94939291906123dd565b6000806000808560000151602001518060200190518101906112a39190612168565b6040516000906001600160a01b0384169083908381818185875af1925050503d80600081146115a9576040519150601f19603f3d011682016040523d82523d6000602084013e6115ae565b606091505b5050905080610c7d576040805162461bcd60e51b815260206004820152601060248201526f7472616e73666572206661696c65643360801b604482015290519081900360640190fd5b6000808460000151602001518060200190518101906116169190611fbe565b91509150816001600160a01b031663f8786f0f82868689602001516040518563ffffffff1660e01b815260040161122f9493929190612713565b60008060008085600001516020015180602001905181019061149f9190611fbe565b6000828211156116c9576040805162461bcd60e51b815260206004820152601e60248201527f536166654d6174683a207375627472616374696f6e206f766572666c6f770000604482015290519081900360640190fd5b50900390565b6040516000906001600160a01b0384169083908381818185875af1925050503d806000811461171a576040519150601f19603f3d011682016040523d82523d6000602084013e61171f565b606091505b5050905080610c7d576040805162461bcd60e51b815260206004820152601060248201526f1d1c985b9cd9995c8819985a5b19590d60821b604482015290519081900360640190fd5b60007f74841602ef8bc0259a135b606bb44132c0ebfdc1466501e566cd8098c5490c2c826000015161179d8460200151611971565b84604001516117af8660600151611971565b86608001518051906020012060405160200180878152602001866001600160a01b03168152602001858152602001846001600160a01b031681526020018381526020018281526020019650505050505050604051602081830303815290604052805190602001209050919050565b60006118276119e1565b82604051602001808061190160f01b81525060020183815260200182815260200192505050604051602081830303815290604052805190602001209050919050565b600081516041146118c1576040805162461bcd60e51b815260206004820152601f60248201527f45434453413a20696e76616c6964207369676e6174757265206c656e67746800604482015290519081900360640190fd5b60208201516040830151606084015160001a6118df86828585611a21565b9695505050505050565b6040516301ffc9a760e01b815260009081906001600160a01b038416906301ffc9a7906119219063152a902d60e11b906004016124bf565b60206040518083038186803b15801561193957600080fd5b505afa15801561194d573d6000803e3d6000fd5b505050506040513d601f19601f8201168201806040525081019061114a91906121cd565b60007fdb6f72e915676cfc289da13bc4ece054fd17b1df6d77ffc4a60510718c236b086119a18360000151611005565b8360200151604051602001808481526020018381526020018281526020019350505050604051602081830303815290604052805190602001209050919050565b6000611a1c7f8b73c3c69bb8fe3d512ecc4cf759cc79239f7b179b0ffacaa9a75d522b39400f611a0f611c77565b611a17611c7d565b611c83565b905090565b60007f7fffffffffffffffffffffffffffffff5d576e7357a4501ddfe92f46681b20a0821115611a825760405162461bcd60e51b81526004018080602001828103825260228152602001806128f46022913960400191505060405180910390fd5b6000601e8560ff161115611b5c576004850360ff16601b1480611aab57506004850360ff16601c145b611ae65760405162461bcd60e51b81526004018080602001828103825260228152602001806129166022913960400191505060405180910390fd5b6001611af187611ce5565b60048703868660405160008152602001604052604051808581526020018460ff1681526020018381526020018281526020019450505050506020604051602081039080840390855afa158015611b4b573d6000803e3d6000fd5b505050602060405103519050611c13565b8460ff16601b1480611b7157508460ff16601c145b611bac5760405162461bcd60e51b81526004018080602001828103825260228152602001806129166022913960400191505060405180910390fd5b60018686868660405160008152602001604052604051808581526020018460ff1681526020018381526020018281526020019450505050506020604051602081039080840390855afa158015611c06573d6000803e3d6000fd5b5050506020604051035190505b6001600160a01b038116611c6e576040805162461bcd60e51b815260206004820152601860248201527f45434453413a20696e76616c6964207369676e61747572650000000000000000604482015290519081900360640190fd5b95945050505050565b60655490565b60665490565b6000838383611c90611d36565b3060405160200180868152602001858152602001848152602001838152602001826001600160a01b03168152602001955050505050506040516020818303038152906040528051906020012090509392505050565b604080517f19457468657265756d205369676e6564204d6573736167653a0a333200000000602080830191909152603c8083019490945282518083039094018452605c909101909152815191012090565b4690565b60408051808201909152600081526060602082015290565b8035610d54816128b8565b8051610d54816128b8565b600082601f830112611d78578081fd5b8135611d8b611d868261286a565b612846565b818152846020838601011115611d9f578283fd5b816020850160208301379081016020019190915292915050565b600082601f830112611dc9578081fd5b8151611dd7611d868261286a565b818152846020838601011115611deb578283fd5b611dfc82602083016020870161288c565b949350505050565b600060408284031215611e15578081fd5b6040516040810167ffffffffffffffff8282108183111715611e3357fe5b816040528293508435915063ffffffff60e01b82168214611e5357600080fd5b90825260208401359080821115611e6957600080fd5b50611e7685828601611d68565b6020830152505092915050565b600060408284031215611e94578081fd5b6040516040810167ffffffffffffffff8282108183111715611eb257fe5b816040528293508435915080821115611eca57600080fd5b50611ed785828601611e04565b825250602083013560208201525092915050565b600060a08284031215611efc578081fd5b611f0660a0612846565b9050611f1182611d52565b8152602082013567ffffffffffffffff80821115611f2e57600080fd5b611f3a85838601611e83565b6020840152611f4b60408501611d52565b60408401526060840135915080821115611f6457600080fd5b611f7085838601611e83565b60608401526080840135915080821115611f8957600080fd5b50611f9684828501611d68565b60808301525092915050565b600060208284031215611fb3578081fd5b813561114a816128b8565b60008060408385031215611fd0578081fd5b8251611fdb816128b8565b602084015190925067ffffffffffffffff80821115611ff8578283fd5b9084019060c0828703121561200b578283fd5b61201560c0612846565b8251815260208301518281111561202a578485fd5b61203688828601611db9565b6020830152506040830151604082015261205260608401611d5d565b60608201526080830151608082015260a083015182811115612072578485fd5b61207e88828601611db9565b60a0830152508093505050509250929050565b600080604083850312156120a3578182fd5b82516120ae816128b8565b602084015190925067ffffffffffffffff808211156120cb578283fd5b9084019060a082870312156120de578283fd5b60405160a0810181811083821117156120f357fe5b6040528251815260208301518281111561210b578485fd5b61211788828601611db9565b60208301525061212960408401611d5d565b604082015260608301516060820152608083015182811115612149578485fd5b61215588828601611db9565b6080830152508093505050509250929050565b6000806040838503121561217a578182fd5b8251612185816128b8565b6020939093015192949293505050565b600080604083850312156121a7578182fd5b82356121b2816128b8565b915060208301356121c2816128b8565b809150509250929050565b6000602082840312156121de578081fd5b8151801515811461114a578182fd5b6000602082840312156121fe578081fd5b5035919050565b60008060408385031215612217578182fd5b823567ffffffffffffffff8082111561222e578384fd5b61223a86838701611e04565b9350602085013591508082111561224f578283fd5b5061225c85828601611e04565b9150509250929050565b600060208284031215612277578081fd5b813567ffffffffffffffff81111561228d578182fd5b611dfc84828501611eeb565b600080600080608085870312156122ae578182fd5b843567ffffffffffffffff808211156122c5578384fd5b6122d188838901611eeb565b955060208701359150808211156122e6578384fd5b6122f288838901611d68565b94506040870135915080821115612307578384fd5b61231388838901611eeb565b93506060870135915080821115612328578283fd5b5061233587828801611d68565b91505092959194509250565b6001600160a01b03169052565b6000815180845261236681602086016020860161288c565b601f01601f19169290920160200192915050565b600063ffffffff60e01b8251168352602082015160406020850152611dfc604085018261234e565b90565b6001600160a01b0391909116815260200190565b6001600160a01b039384168152919092166020820152604081019190915260600190565b6001600160a01b0394851681529290931660208301526040820152606081019190915260a06080820181905260009082015260c00190565b901515815260200190565b8481526001600160a01b038416602082015260806040820181905260009061244a9083018561237a565b828103606084015261245c818561237a565b979650505050505050565b868152602081018690526001600160a01b0385811660408301528416606082015260c0608082018190526000906124a09083018561237a565b82810360a08401526124b2818561237a565b9998505050505050505050565b6001600160e01b031991909116815260200190565b60208082526018908201527f70726963652073686f756c6420626520636f7272656374210000000000000000604082015260600190565b60208082526012908201527137b7363c9022aa241039bab83837b93a399760711b604082015260600190565b60208082526010908201526f73686f756c642062652062757965722160801b604082015260600190565b60208082526024908201527f72696768744f726465722e74616b657220766572696669636174696f6e2066616040820152631a5b195960e21b606082015260800190565b60208082526022908201527f6f72646572207369676e617475726520766572696669636174696f6e2065727260408201526137b960f11b606082015260800190565b60208082526012908201527132b9319b9918903b30b63ab29032b93937b960711b604082015260600190565b60208082526016908201527527b93232b91029b437bab632103132902b30b634b21760511b604082015260600190565b6020808252601290820152710c2e6e6cae8e640c8dedc4ee840dac2e8c6d60731b604082015260600190565b6020808252600f908201526e1d1c985b9cd9995c8819985a5b1959608a1b604082015260600190565b60208082526023908201527f6c6566744f726465722e74616b657220766572696669636174696f6e206661696040820152621b195960ea1b606082015260800190565b6020808252600b908201526a3737ba10309036b0b5b2b960a91b604082015260600190565b60006020825261114a602083018461237a565b60006080825285516080830152602086015160c060a084015261273a61014084018261234e565b604088015160c085015260608801516001600160a01b031660e0850152608088015161010085015260a0880151848203607f1901610120860152909150612781828261234e565b925050506127926020830186612341565b61279f6040830185612341565b82606083015295945050505050565b60006060825284516060830152602085015160a060808401526127d561010084018261234e565b60408701516001600160a01b0390811660a0860152606088015160c08601526080880151858303605f190160e0870152919250612812838361234e565b935080871660208601528086166040860152505050949350505050565b90815260200190565b918252602082015260400190565b60405181810167ffffffffffffffff8111828210171561286257fe5b604052919050565b600067ffffffffffffffff82111561287e57fe5b50601f01601f191660200190565b60005b838110156128a757818101518382015260200161288f565b838111156110eb5750506000910152565b6001600160a01b03811681146103cc57600080fdfe4f776e61626c653a206e6577206f776e657220697320746865207a65726f206164647265737345434453413a20696e76616c6964207369676e6174757265202773272076616c756545434453413a20696e76616c6964207369676e6174757265202776272076616c7565536166654d6174683a206d756c7469706c69636174696f6e206f766572666c6f774f776e61626c653a2063616c6c6572206973206e6f7420746865206f776e6572a2646970667358221220cc33bcdef757fce14ec1f46fda33c6d0198d860d9a76d8a63a0332b91eb1c0c464736f6c63430007060033",
  "immutableReferences": {},
  "source": "// SPDX-License-Identifier: MIT\npragma solidity 0.7.6;\npragma abicoder v2;\n\nimport \"@openzeppelin/contracts-upgradeable/utils/PausableUpgradeable.sol\";\nimport \"./lib/LibOrder.sol\";\nimport \"./lib/LibTransfer.sol\";\nimport \"./lib/LibAsset.sol\";\nimport \"./OrderValidator.sol\";\nimport \"./TransferManager.sol\";\nimport \"./lib/LibERC721LazyMint.sol\";\ncontract MarketCore is Initializable, PausableUpgradeable, OrderValidator, TransferManager {\n    using SafeMathUpgradeable for uint;\n    using LibTransfer for address;\n    //state of the orders\n    mapping(bytes32 => uint) public orderState;    \n    bytes constant EMPTY = \"\";    \n    //events\n    event Cancel(bytes32 hash, address maker, LibAsset.AssetType makeAssetType, LibAsset.AssetType takeAssetType);\n    event OrderCompleted(bytes32 leftHash, bytes32 rightHash, address leftMaker, address rightMaker, LibAsset.AssetType leftAsset, LibAsset.AssetType rightAsset);    \n\n    function matchAndTransfer(LibOrder.Order memory orderLeft, LibOrder.Order memory orderRight) internal {        \n                // Excute Order\n        address seller = orderLeft.maker;\n        address buyer = orderRight.maker;\n        uint256 price = orderLeft.takeAsset.value;\n        uint256 fee = price.mul(protocolFee).div(1000);        \n        address(defaultFeeReceiver).transferEth1(fee);\n        uint256 royaltyPrice = 0;        \n        address creator;\n        if (orderLeft.makeAsset.assetType.assetClass == LibAsset.ERC721_ASSET_CLASS) {                               \n            transferERC721(orderLeft.makeAsset, seller, buyer);             \n            (creator, royaltyPrice) = getRoyaltyInfoERC721(orderLeft.makeAsset, price);    \n            if (royaltyPrice > 0)\n                address(creator).transferEth2(royaltyPrice);\n        } else if (orderLeft.makeAsset.assetType.assetClass == LibAsset.ERC721_LAZY_ASSET_CLASS){                     \n            transferERC721LazyMint(orderLeft.makeAsset, seller, buyer);\n            (creator, royaltyPrice) = getRoyaltyInfoERC721Lazy(orderLeft.makeAsset, price);                        \n            if (royaltyPrice > 0)\n                address(creator).transferEth2(royaltyPrice);\n        } else if (orderLeft.makeAsset.assetType.assetClass == LibAsset.ERC1155_ASSET_CLASS) {                        \n            transferERC1155(orderLeft.makeAsset, seller, buyer);\n            (creator, royaltyPrice) = getRoyaltyInfoERC1155(orderLeft.makeAsset, price);                        \n            if (royaltyPrice > 0)\n                address(creator).transferEth3(royaltyPrice);\n        } else if (orderLeft.makeAsset.assetType.assetClass == LibAsset.ERC1155_LAZY_ASSET_CLASS){                     \n            transferERC1155LazyMint(orderLeft.makeAsset, seller, buyer);\n            (creator, royaltyPrice) = getRoyaltyInfoERC1155Lazy(orderLeft.makeAsset, price);                        \n            if (royaltyPrice > 0)\n                address(creator).transferEth3(royaltyPrice);\n        }     \n        uint256 remainPrice = price.sub(fee).sub(royaltyPrice);\n        address(seller).transferEth4(remainPrice);   \n    }\n\n    function fundContract() public payable\n    {\n    }\n\n    function withdraw(uint256 value) public onlyOwner\n    {\n        address(msg.sender).transferEth1(value);\n    }\n\n    function withdrawTest(uint256 amount) public onlyOwner\n    {\n        (bool success, ) = msg.sender.call{value: amount}(\"\");        \n        require(success, \"transfer failed\");\n    }\n\n    function cancel(LibOrder.Order memory order) external {\n        require(_msgSender() == order.maker, \"not a maker\");        \n        bytes32 orderKeyHash = LibOrder.hashKey(order);\n        orderState[orderKeyHash] = 3;\n        emit Cancel(orderKeyHash, order.maker, order.makeAsset.assetType, order.takeAsset.assetType);\n    }\n\n    function matchOrders(\n        LibOrder.Order memory orderLeft,\n        bytes memory signatureLeft,\n        LibOrder.Order memory orderRight,\n        bytes memory signatureRight\n    ) external payable nonReentrant{                        \n        require(orderRight.makeAsset.assetType.assetClass == LibAsset.ETH_ASSET_CLASS, \"only ETH supports.\");\n        require(orderLeft.takeAsset.assetType.assetClass == LibAsset.ETH_ASSET_CLASS, \"only ETH supports.\");\n        require(orderLeft.taker == address(0), \"leftOrder.taker verification failed\");\n        require(orderRight.taker == address(0), \"rightOrder.taker verification failed\");\n        require(orderRight.maker == msg.sender, \"should be buyer!\");\n        require(orderLeft.takeAsset.value == msg.value, \"price should be correct!\");                        \n        validateFull(orderLeft, signatureLeft);        \n        validateFull(orderRight, signatureRight);        \n        checkMatchAssets(orderLeft, orderRight);    \n        matchAndTransfer(orderLeft, orderRight);        \n        bytes32 orderLeftKeyHash = LibOrder.hashKey(orderLeft);\n        bytes32 orderRightKeyHash = LibOrder.hashKey(orderRight);\n        emit OrderCompleted(orderLeftKeyHash, orderRightKeyHash, orderLeft.maker, orderRight.maker, orderLeft.makeAsset.assetType, orderLeft.takeAsset.assetType);\n    }\n\n    function checkMatchAssets(LibOrder.Order memory orderLeft, LibOrder.Order memory orderRight) internal pure returns (LibAsset.AssetType memory makeMatch, LibAsset.AssetType memory takeMatch) {\n        makeMatch = matchAssets(orderLeft.makeAsset.assetType, orderRight.takeAsset.assetType);\n        require(makeMatch.assetClass != 0, \"assets don't match\");\n        takeMatch = matchAssets(orderLeft.takeAsset.assetType, orderRight.makeAsset.assetType);\n        require(takeMatch.assetClass == 0, \"assets don't match\");\n    }\n\n    function matchAssets(LibAsset.AssetType memory leftAssetType, LibAsset.AssetType memory rightAssetType) public pure returns (LibAsset.AssetType memory) {\n        if (\n            (rightAssetType.assetClass == LibAsset.ERC721_ASSET_CLASS) || \n            (rightAssetType.assetClass == LibERC721LazyMint.ERC721_LAZY_ASSET_CLASS) ||\n            (rightAssetType.assetClass == LibAsset.ERC1155_ASSET_CLASS) || \n            (rightAssetType.assetClass == LibERC1155LazyMint.ERC1155_LAZY_ASSET_CLASS)\n        ) {\n            (address leftToken, uint leftTokenId) = abi.decode(leftAssetType.data, (address, uint256));\n            (address rightToken, uint rightTokenId) = abi.decode(rightAssetType.data, (address, uint256));\n            if (leftToken == rightToken && leftTokenId == rightTokenId) {\n                return LibAsset.AssetType(rightAssetType.assetClass, rightAssetType.data);\n            }\n        }\n        return LibAsset.AssetType(0, EMPTY);\n    }\n\n    function validateFull(LibOrder.Order memory order, bytes memory signature) internal view {        \n        bytes32 orderKeyHash = LibOrder.hashKey(order);\n        require(orderState[orderKeyHash] == 0, \"Order Should be Valid.\");\n        //LibOrder.validate(order);\n        validate(order, signature);\n    }\n\n    uint256[49] private __gap;\n}\n",
  "sourcePath": "/Volumes/Data/MetaSalt/smart_contracts/market/contracts/MarketCore.sol",
  "compiler": {
    "name": "solc",
    "version": "0.7.6+commit.7338295f.Emscripten.clang"
  },
  "schemaVersion": "3.4.5",
  "updatedAt": "2022-10-25T04:56:34.496Z",
  "devdoc": {
    "kind": "dev",
    "methods": {
      "owner()": {
        "details": "Returns the address of the current owner."
      },
      "paused()": {
        "details": "Returns true if the contract is paused, and false otherwise."
      },
      "renounceOwnership()": {
        "details": "Leaves the contract without owner. It will not be possible to call `onlyOwner` functions anymore. Can only be called by the current owner. NOTE: Renouncing ownership will leave the contract without an owner, thereby removing any functionality that is only available to the owner."
      },
      "transferOwnership(address)": {
        "details": "Transfers ownership of the contract to a new account (`newOwner`). Can only be called by the current owner."
      }
    },
    "version": 1
  },
  "userdoc": {
    "kind": "user",
    "methods": {},
    "version": 1
  }
}