{
  "contractName": "MetaSaltToken",
  "abi": [
    {
      "anonymous": false,
      "inputs": [
        {
          "indexed": true,
          "internalType": "address",
          "name": "owner",
          "type": "address"
        },
        {
          "indexed": true,
          "internalType": "address",
          "name": "spender",
          "type": "address"
        },
        {
          "indexed": false,
          "internalType": "uint256",
          "name": "value",
          "type": "uint256"
        }
      ],
      "name": "Approval",
      "type": "event"
    },
    {
      "anonymous": false,
      "inputs": [
        {
          "indexed": false,
          "internalType": "address",
          "name": "_to",
          "type": "address"
        },
        {
          "indexed": false,
          "internalType": "uint256",
          "name": "_value",
          "type": "uint256"
        },
        {
          "indexed": false,
          "internalType": "uint256",
          "name": "_airdropVersion",
          "type": "uint256"
        }
      ],
      "name": "EventAirdrop",
      "type": "event"
    },
    {
      "anonymous": false,
      "inputs": [
        {
          "indexed": false,
          "internalType": "address",
          "name": "_to",
          "type": "address"
        },
        {
          "indexed": false,
          "internalType": "uint256",
          "name": "_value",
          "type": "uint256"
        }
      ],
      "name": "EventReward",
      "type": "event"
    },
    {
      "anonymous": false,
      "inputs": [
        {
          "indexed": true,
          "internalType": "address",
          "name": "previousOwner",
          "type": "address"
        },
        {
          "indexed": true,
          "internalType": "address",
          "name": "newOwner",
          "type": "address"
        }
      ],
      "name": "OwnershipTransferred",
      "type": "event"
    },
    {
      "anonymous": false,
      "inputs": [
        {
          "indexed": false,
          "internalType": "address",
          "name": "account",
          "type": "address"
        }
      ],
      "name": "Paused",
      "type": "event"
    },
    {
      "anonymous": false,
      "inputs": [
        {
          "indexed": true,
          "internalType": "address",
          "name": "from",
          "type": "address"
        },
        {
          "indexed": true,
          "internalType": "address",
          "name": "to",
          "type": "address"
        },
        {
          "indexed": false,
          "internalType": "uint256",
          "name": "value",
          "type": "uint256"
        }
      ],
      "name": "Transfer",
      "type": "event"
    },
    {
      "anonymous": false,
      "inputs": [
        {
          "indexed": false,
          "internalType": "address",
          "name": "account",
          "type": "address"
        }
      ],
      "name": "Unpaused",
      "type": "event"
    },
    {
      "inputs": [],
      "name": "airdropAmount",
      "outputs": [
        {
          "internalType": "uint256",
          "name": "",
          "type": "uint256"
        }
      ],
      "stateMutability": "view",
      "type": "function",
      "constant": true
    },
    {
      "inputs": [],
      "name": "airdropVersion",
      "outputs": [
        {
          "internalType": "uint256",
          "name": "",
          "type": "uint256"
        }
      ],
      "stateMutability": "view",
      "type": "function",
      "constant": true
    },
    {
      "inputs": [
        {
          "internalType": "uint256",
          "name": "",
          "type": "uint256"
        },
        {
          "internalType": "address",
          "name": "",
          "type": "address"
        }
      ],
      "name": "airdrops",
      "outputs": [
        {
          "internalType": "uint256",
          "name": "",
          "type": "uint256"
        }
      ],
      "stateMutability": "view",
      "type": "function",
      "constant": true
    },
    {
      "inputs": [
        {
          "internalType": "address",
          "name": "owner",
          "type": "address"
        },
        {
          "internalType": "address",
          "name": "spender",
          "type": "address"
        }
      ],
      "name": "allowance",
      "outputs": [
        {
          "internalType": "uint256",
          "name": "",
          "type": "uint256"
        }
      ],
      "stateMutability": "view",
      "type": "function",
      "constant": true
    },
    {
      "inputs": [
        {
          "internalType": "address",
          "name": "spender",
          "type": "address"
        },
        {
          "internalType": "uint256",
          "name": "amount",
          "type": "uint256"
        }
      ],
      "name": "approve",
      "outputs": [
        {
          "internalType": "bool",
          "name": "",
          "type": "bool"
        }
      ],
      "stateMutability": "nonpayable",
      "type": "function"
    },
    {
      "inputs": [
        {
          "internalType": "address",
          "name": "account",
          "type": "address"
        }
      ],
      "name": "balanceOf",
      "outputs": [
        {
          "internalType": "uint256",
          "name": "",
          "type": "uint256"
        }
      ],
      "stateMutability": "view",
      "type": "function",
      "constant": true
    },
    {
      "inputs": [],
      "name": "decimals",
      "outputs": [
        {
          "internalType": "uint8",
          "name": "",
          "type": "uint8"
        }
      ],
      "stateMutability": "view",
      "type": "function",
      "constant": true
    },
    {
      "inputs": [
        {
          "internalType": "address",
          "name": "spender",
          "type": "address"
        },
        {
          "internalType": "uint256",
          "name": "subtractedValue",
          "type": "uint256"
        }
      ],
      "name": "decreaseAllowance",
      "outputs": [
        {
          "internalType": "bool",
          "name": "",
          "type": "bool"
        }
      ],
      "stateMutability": "nonpayable",
      "type": "function"
    },
    {
      "inputs": [],
      "name": "erc1155Contract",
      "outputs": [
        {
          "internalType": "address",
          "name": "",
          "type": "address"
        }
      ],
      "stateMutability": "view",
      "type": "function",
      "constant": true
    },
    {
      "inputs": [],
      "name": "erc721Contract",
      "outputs": [
        {
          "internalType": "address",
          "name": "",
          "type": "address"
        }
      ],
      "stateMutability": "view",
      "type": "function",
      "constant": true
    },
    {
      "inputs": [
        {
          "internalType": "address",
          "name": "spender",
          "type": "address"
        },
        {
          "internalType": "uint256",
          "name": "addedValue",
          "type": "uint256"
        }
      ],
      "name": "increaseAllowance",
      "outputs": [
        {
          "internalType": "bool",
          "name": "",
          "type": "bool"
        }
      ],
      "stateMutability": "nonpayable",
      "type": "function"
    },
    {
      "inputs": [],
      "name": "merkleRoot",
      "outputs": [
        {
          "internalType": "bytes32",
          "name": "",
          "type": "bytes32"
        }
      ],
      "stateMutability": "view",
      "type": "function",
      "constant": true
    },
    {
      "inputs": [],
      "name": "name",
      "outputs": [
        {
          "internalType": "string",
          "name": "",
          "type": "string"
        }
      ],
      "stateMutability": "view",
      "type": "function",
      "constant": true
    },
    {
      "inputs": [],
      "name": "owner",
      "outputs": [
        {
          "internalType": "address",
          "name": "",
          "type": "address"
        }
      ],
      "stateMutability": "view",
      "type": "function",
      "constant": true
    },
    {
      "inputs": [],
      "name": "paused",
      "outputs": [
        {
          "internalType": "bool",
          "name": "",
          "type": "bool"
        }
      ],
      "stateMutability": "view",
      "type": "function",
      "constant": true
    },
    {
      "inputs": [],
      "name": "renounceOwnership",
      "outputs": [],
      "stateMutability": "nonpayable",
      "type": "function"
    },
    {
      "inputs": [
        {
          "internalType": "address",
          "name": "",
          "type": "address"
        }
      ],
      "name": "rewards",
      "outputs": [
        {
          "internalType": "uint256",
          "name": "",
          "type": "uint256"
        }
      ],
      "stateMutability": "view",
      "type": "function",
      "constant": true
    },
    {
      "inputs": [],
      "name": "symbol",
      "outputs": [
        {
          "internalType": "string",
          "name": "",
          "type": "string"
        }
      ],
      "stateMutability": "view",
      "type": "function",
      "constant": true
    },
    {
      "inputs": [],
      "name": "totalSupply",
      "outputs": [
        {
          "internalType": "uint256",
          "name": "",
          "type": "uint256"
        }
      ],
      "stateMutability": "view",
      "type": "function",
      "constant": true
    },
    {
      "inputs": [
        {
          "internalType": "address",
          "name": "recipient",
          "type": "address"
        },
        {
          "internalType": "uint256",
          "name": "amount",
          "type": "uint256"
        }
      ],
      "name": "transfer",
      "outputs": [
        {
          "internalType": "bool",
          "name": "",
          "type": "bool"
        }
      ],
      "stateMutability": "nonpayable",
      "type": "function"
    },
    {
      "inputs": [
        {
          "internalType": "address",
          "name": "sender",
          "type": "address"
        },
        {
          "internalType": "address",
          "name": "recipient",
          "type": "address"
        },
        {
          "internalType": "uint256",
          "name": "amount",
          "type": "uint256"
        }
      ],
      "name": "transferFrom",
      "outputs": [
        {
          "internalType": "bool",
          "name": "",
          "type": "bool"
        }
      ],
      "stateMutability": "nonpayable",
      "type": "function"
    },
    {
      "inputs": [
        {
          "internalType": "address",
          "name": "newOwner",
          "type": "address"
        }
      ],
      "name": "transferOwnership",
      "outputs": [],
      "stateMutability": "nonpayable",
      "type": "function"
    },
    {
      "inputs": [
        {
          "internalType": "string",
          "name": "name",
          "type": "string"
        },
        {
          "internalType": "string",
          "name": "symbol",
          "type": "string"
        },
        {
          "internalType": "uint256",
          "name": "initialSupply",
          "type": "uint256"
        },
        {
          "internalType": "bytes32",
          "name": "_merkleRoot",
          "type": "bytes32"
        },
        {
          "internalType": "uint256",
          "name": "_airdropAmount",
          "type": "uint256"
        }
      ],
      "name": "initialize",
      "outputs": [],
      "stateMutability": "nonpayable",
      "type": "function"
    },
    {
      "inputs": [
        {
          "internalType": "uint256",
          "name": "_airdropAmount",
          "type": "uint256"
        }
      ],
      "name": "setAirdropAmount",
      "outputs": [],
      "stateMutability": "nonpayable",
      "type": "function"
    },
    {
      "inputs": [
        {
          "internalType": "bytes32",
          "name": "_merkleRoot",
          "type": "bytes32"
        },
        {
          "internalType": "uint256",
          "name": "_airdropAmount",
          "type": "uint256"
        }
      ],
      "name": "createNewAirdropping",
      "outputs": [],
      "stateMutability": "nonpayable",
      "type": "function"
    },
    {
      "inputs": [],
      "name": "claimCreatingReward",
      "outputs": [],
      "stateMutability": "nonpayable",
      "type": "function"
    },
    {
      "inputs": [
        {
          "internalType": "address",
          "name": "_erc721Contract",
          "type": "address"
        }
      ],
      "name": "setERC721Creator",
      "outputs": [],
      "stateMutability": "nonpayable",
      "type": "function"
    },
    {
      "inputs": [
        {
          "internalType": "address",
          "name": "_erc1155Contract",
          "type": "address"
        }
      ],
      "name": "setERC1155Creator",
      "outputs": [],
      "stateMutability": "nonpayable",
      "type": "function"
    },
    {
      "inputs": [
        {
          "internalType": "address",
          "name": "_to",
          "type": "address"
        },
        {
          "internalType": "uint256",
          "name": "_value",
          "type": "uint256"
        }
      ],
      "name": "increaseRewardERC721",
      "outputs": [],
      "stateMutability": "nonpayable",
      "type": "function"
    },
    {
      "inputs": [
        {
          "internalType": "address",
          "name": "_to",
          "type": "address"
        },
        {
          "internalType": "uint256",
          "name": "_value",
          "type": "uint256"
        }
      ],
      "name": "increaseRewardERC1155",
      "outputs": [],
      "stateMutability": "nonpayable",
      "type": "function"
    },
    {
      "inputs": [
        {
          "internalType": "address",
          "name": "_to",
          "type": "address"
        }
      ],
      "name": "getReward",
      "outputs": [
        {
          "internalType": "uint256",
          "name": "",
          "type": "uint256"
        }
      ],
      "stateMutability": "view",
      "type": "function",
      "constant": true
    },
    {
      "inputs": [
        {
          "internalType": "address",
          "name": "_to",
          "type": "address"
        },
        {
          "internalType": "uint256",
          "name": "_amount",
          "type": "uint256"
        }
      ],
      "name": "mint",
      "outputs": [],
      "stateMutability": "nonpayable",
      "type": "function"
    },
    {
      "inputs": [
        {
          "internalType": "uint256",
          "name": "_airdropVersion",
          "type": "uint256"
        },
        {
          "internalType": "address",
          "name": "_addr",
          "type": "address"
        }
      ],
      "name": "isAirdropped",
      "outputs": [
        {
          "internalType": "uint256",
          "name": "",
          "type": "uint256"
        }
      ],
      "stateMutability": "view",
      "type": "function",
      "constant": true
    },
    {
      "inputs": [
        {
          "internalType": "bytes32[]",
          "name": "_merkleProof",
          "type": "bytes32[]"
        }
      ],
      "name": "checkValidity",
      "outputs": [
        {
          "internalType": "bool",
          "name": "",
          "type": "bool"
        }
      ],
      "stateMutability": "view",
      "type": "function",
      "constant": true
    },
    {
      "inputs": [
        {
          "internalType": "bytes32[]",
          "name": "_merkleProof",
          "type": "bytes32[]"
        }
      ],
      "name": "airdrop",
      "outputs": [],
      "stateMutability": "nonpayable",
      "type": "function"
    }
  ],
  "bytecode": "0x608060405234801561001057600080fd5b50612174806100206000396000f3fe608060405234801561001057600080fd5b50600436106102115760003560e01c80638da5cb5b11610125578063c15a9934116100ad578063dd62ed3e1161007c578063dd62ed3e14610781578063e9c0a918146107af578063efca61971461081d578063f2fde38b14610843578063fc2ea8a51461086957610211565b8063c15a9934146105f3578063d217c73f14610619578063d7c97fb41461074d578063d9b6e2841461075557610211565b806395d89b41116100f457806395d89b4114610550578063a457c2d714610558578063a5500c3014610584578063a9059cbb146105a1578063c00007b0146105cd57610211565b80638da5cb5b146104825780638ee9281f1461048a57806393580d02146104b6578063954d90d0146104e257610211565b806339509351116101a85780636e6c27d4116101775780636e6c27d41461040557806370a082311461040d578063715018a614610433578063718269b51461043b5780637a5649701461045e57610211565b8063395093511461039b57806340c10f19146103c757806351d6e8a4146103f55780635c975abb146103fd57610211565b806318160ddd116101e457806318160ddd1461033757806323b872dd1461033f5780632eb4a7ab14610375578063313ce5671461037d57610211565b806306fdde03146102165780630700037d14610293578063095ea7b3146102cb5780630fb295fc1461030b575b600080fd5b61021e610871565b6040805160208082528351818301528351919283929083019185019080838360005b83811015610258578181015183820152602001610240565b50505050905090810190601f1680156102855780820380516001836020036101000a031916815260200191505b509250505060405180910390f35b6102b9600480360360208110156102a957600080fd5b50356001600160a01b0316610907565b60408051918252519081900360200190f35b6102f7600480360360408110156102e157600080fd5b506001600160a01b03813516906020013561091a565b604080519115158252519081900360200190f35b6102b96004803603604081101561032157600080fd5b50803590602001356001600160a01b0316610938565b6102b9610956565b6102f76004803603606081101561035557600080fd5b506001600160a01b0381358116916020810135909116906040013561095c565b6102b96109e3565b6103856109e9565b6040805160ff9092168252519081900360200190f35b6102f7600480360360408110156103b157600080fd5b506001600160a01b0381351690602001356109f2565b6103f3600480360360408110156103dd57600080fd5b506001600160a01b038135169060200135610a40565b005b6102b9610ab0565b6102f7610ab6565b6103f3610abf565b6102b96004803603602081101561042357600080fd5b50356001600160a01b0316610c87565b6103f3610ca2565b6103f36004803603604081101561045157600080fd5b5080359060200135610d4e565b610466610dc4565b604080516001600160a01b039092168252519081900360200190f35b610466610dd3565b6102b9600480360360408110156104a057600080fd5b50803590602001356001600160a01b0316610de2565b6103f3600480360360408110156104cc57600080fd5b506001600160a01b038135169060200135610e0b565b6102f7600480360360208110156104f857600080fd5b810190602081018135600160201b81111561051257600080fd5b82018360208201111561052457600080fd5b803590602001918460208302840111600160201b8311171561054557600080fd5b509092509050610e9d565b61021e610f49565b6102f76004803603604081101561056e57600080fd5b506001600160a01b038135169060200135610faa565b6103f36004803603602081101561059a57600080fd5b5035611012565b6102f7600480360360408110156105b757600080fd5b506001600160a01b038135169060200135611079565b6102b9600480360360208110156105e357600080fd5b50356001600160a01b031661108d565b6103f36004803603602081101561060957600080fd5b50356001600160a01b03166110a9565b6103f3600480360360a081101561062f57600080fd5b810190602081018135600160201b81111561064957600080fd5b82018360208201111561065b57600080fd5b803590602001918460018302840111600160201b8311171561067c57600080fd5b91908080601f0160208091040260200160405190810160405280939291908181526020018383808284376000920191909152509295949360208101935035915050600160201b8111156106ce57600080fd5b8201836020820111156106e057600080fd5b803590602001918460018302840111600160201b8311171561070157600080fd5b91908080601f016020809104026020016040519081016040528093929190818152602001838380828437600092019190915250929550508235935050506020810135906040013561112d565b610466611217565b6103f36004803603604081101561076b57600080fd5b506001600160a01b038135169060200135611226565b6102b96004803603604081101561079757600080fd5b506001600160a01b0381358116916020013516611273565b6103f3600480360360208110156107c557600080fd5b810190602081018135600160201b8111156107df57600080fd5b8201836020820111156107f157600080fd5b803590602001918460208302840111600160201b8311171561081257600080fd5b50909250905061129e565b6103f36004803603602081101561083357600080fd5b50356001600160a01b0316611451565b6103f36004803603602081101561085957600080fd5b50356001600160a01b03166114d5565b6102b96115d8565b60368054604080516020601f60026000196101006001881615020190951694909404938401819004810282018101909252828152606093909290918301828280156108fd5780601f106108d2576101008083540402835291602001916108fd565b820191906000526020600020905b8154815290600101906020018083116108e057829003601f168201915b5050505050905090565b6101006020526000908152604090205481565b600061092e6109276115de565b84846115e2565b5060015b92915050565b61010160209081526000928352604080842090915290825290205481565b60355490565b60006109698484846116ce565b6109d9846109756115de565b6109d485604051806060016040528060288152602001612089602891396001600160a01b038a166000908152603460205260408120906109b36115de565b6001600160a01b03168152602081019190915260400160002054919061182b565b6115e2565b5060019392505050565b60fd5481565b60385460ff1690565b600061092e6109ff6115de565b846109d48560346000610a106115de565b6001600160a01b03908116825260208083019390935260409182016000908120918c1681529252902054906118c2565b610a486115de565b6001600160a01b0316610a59610dd3565b6001600160a01b031614610aa2576040805162461bcd60e51b815260206004820181905260248201526000805160206120b1833981519152604482015290519081900360640190fd5b610aac8282611923565b5050565b60ff5481565b60c95460ff1690565b60026097541415610b17576040805162461bcd60e51b815260206004820152601f60248201527f5265656e7472616e637947756172643a207265656e7472616e742063616c6c00604482015290519081900360640190fd5b6002609755600061010081610b2a6115de565b6001600160a01b03166001600160a01b031681526020019081526020016000205411610b9d576040805162461bcd60e51b815260206004820152601960248201527f6e6f7420656e6f756768207265776172642062616c616e636500000000000000604482015290519081900360640190fd5b610bdb610ba86115de565b6101006000610bb56115de565b6001600160a01b03166001600160a01b0316815260200190815260200160002054611923565b60006101006000610bea6115de565b6001600160a01b031681526020810191909152604001600020557ff6aae6a86f0d2cf84b2266645bc4bd44dd0a53c1c37f6d60198ed4f75b278de6610c2d6115de565b6101006000610c3a6115de565b6001600160a01b03166001600160a01b031681526020019081526020016000205460405180836001600160a01b031681526020018281526020019250505060405180910390a16001609755565b6001600160a01b031660009081526033602052604090205490565b610caa6115de565b6001600160a01b0316610cbb610dd3565b6001600160a01b031614610d04576040805162461bcd60e51b815260206004820181905260248201526000805160206120b1833981519152604482015290519081900360640190fd5b6065546040516000916001600160a01b0316907f8be0079c531659141344cd1fd0a4f28419497f9722a3daafe3b4186f6b6457e0908390a3606580546001600160a01b0319169055565b610d566115de565b6001600160a01b0316610d67610dd3565b6001600160a01b031614610db0576040805162461bcd60e51b815260206004820181905260248201526000805160206120b1833981519152604482015290519081900360640190fd5b60fd9190915560fe5560ff80546001019055565b60fc546001600160a01b031681565b6065546001600160a01b031690565b6000918252610101602090815260408084206001600160a01b0393909316845291905290205490565b60fc546001600160a01b03163314610e58576040805162461bcd60e51b815260206004820152600b60248201526a2737ba1021b932b0ba37b960a91b604482015290519081900360640190fd5b6001600160a01b03821660009081526101006020526040902054610e7c90826118c2565b6001600160a01b039092166000908152610100602052604090209190915550565b604080513360601b6020808301919091528251808303601401815260348301808552815191830191909120605492860280850184019095528582526000949093610f069388928892839201908490808284376000920191909152505060fd549150849050611a15565b6109d9576040805162461bcd60e51b815260206004820152600f60248201526e24b731b7b93932b1ba10383937b7b360891b604482015290519081900360640190fd5b60378054604080516020601f60026000196101006001881615020190951694909404938401819004810282018101909252828152606093909290918301828280156108fd5780601f106108d2576101008083540402835291602001916108fd565b600061092e610fb76115de565b846109d48560405180606001604052806025815260200161211a6025913960346000610fe16115de565b6001600160a01b03908116825260208083019390935260409182016000908120918d1681529252902054919061182b565b61101a6115de565b6001600160a01b031661102b610dd3565b6001600160a01b031614611074576040805162461bcd60e51b815260206004820181905260248201526000805160206120b1833981519152604482015290519081900360640190fd5b60fe55565b600061092e6110866115de565b84846116ce565b6001600160a01b03166000908152610100602052604090205490565b6110b16115de565b6001600160a01b03166110c2610dd3565b6001600160a01b03161461110b576040805162461bcd60e51b815260206004820181905260248201526000805160206120b1833981519152604482015290519081900360640190fd5b60fb80546001600160a01b0319166001600160a01b0392909216919091179055565b600054610100900460ff16806111465750611146611abe565b80611154575060005460ff16155b61118f5760405162461bcd60e51b815260040180806020018281038252602e81526020018061203a602e913960400191505060405180910390fd5b600054610100900460ff161580156111ba576000805460ff1961ff0019909116610100171660011790555b6111c48686611acf565b6111cc611b85565b6111ee6111d76115de565b6111e986670de0b6b3a7640000611c37565b611923565b60fd83905560fe829055600060ff55801561120f576000805461ff00191690555b505050505050565b60fb546001600160a01b031681565b60fb546001600160a01b03163314610e58576040805162461bcd60e51b815260206004820152600b60248201526a2737ba1021b932b0ba37b960a91b604482015290519081900360640190fd5b6001600160a01b03918216600090815260346020908152604080832093909416825291909152205490565b60003360405160200180826001600160a01b031660601b81526014019150506040516020818303038152906040528051906020012090506113168383808060200260200160405190810160405280939291908181526020018383602002808284376000920191909152505060fd549150849050611a15565b611359576040805162461bcd60e51b815260206004820152600f60248201526e24b731b7b93932b1ba10383937b7b360891b604482015290519081900360640190fd5b60ff54600090815261010160209081526040808320338452909152902054156113c9576040805162461bcd60e51b815260206004820152601a60248201527f596f7520616c726561647920676f7420616e2061697264726f70000000000000604482015290519081900360640190fd5b6113d53360fe54611923565b60fe5460ff546000908152610101602090815260408083203384529091529020557f1e6e63ca52b0dc379ccf30c83f4d133f7adbc13914ba31f6ddbc750886a7760f61141f6115de565b60fe5460ff54604080516001600160a01b039094168452602084019290925282820152519081900360600190a1505050565b6114596115de565b6001600160a01b031661146a610dd3565b6001600160a01b0316146114b3576040805162461bcd60e51b815260206004820181905260248201526000805160206120b1833981519152604482015290519081900360640190fd5b60fc80546001600160a01b0319166001600160a01b0392909216919091179055565b6114dd6115de565b6001600160a01b03166114ee610dd3565b6001600160a01b031614611537576040805162461bcd60e51b815260206004820181905260248201526000805160206120b1833981519152604482015290519081900360640190fd5b6001600160a01b03811661157c5760405162461bcd60e51b8152600401808060200182810382526026815260200180611fcc6026913960400191505060405180910390fd5b6065546040516001600160a01b038084169216907f8be0079c531659141344cd1fd0a4f28419497f9722a3daafe3b4186f6b6457e090600090a3606580546001600160a01b0319166001600160a01b0392909216919091179055565b60fe5481565b3390565b6001600160a01b0383166116275760405162461bcd60e51b81526004018080602001828103825260248152602001806120f66024913960400191505060405180910390fd5b6001600160a01b03821661166c5760405162461bcd60e51b8152600401808060200182810382526022815260200180611ff26022913960400191505060405180910390fd5b6001600160a01b03808416600081815260346020908152604080832094871680845294825291829020859055815185815291517f8c5be1e5ebec7d5bd14f71427d1e84f3dd0314c0f7b2291e5b200ac8c7c3b9259281900390910190a3505050565b6001600160a01b0383166117135760405162461bcd60e51b81526004018080602001828103825260258152602001806120d16025913960400191505060405180910390fd5b6001600160a01b0382166117585760405162461bcd60e51b8152600401808060200182810382526023815260200180611fa96023913960400191505060405180910390fd5b611763838383611b80565b6117a081604051806060016040528060268152602001612014602691396001600160a01b038616600090815260336020526040902054919061182b565b6001600160a01b0380851660009081526033602052604080822093909355908416815220546117cf90826118c2565b6001600160a01b0380841660008181526033602090815260409182902094909455805185815290519193928716927fddf252ad1be2c89b69c2b068fc378daa952ba7f163c4a11628f55a4df523b3ef92918290030190a3505050565b600081848411156118ba5760405162461bcd60e51b81526004018080602001828103825283818151815260200191508051906020019080838360005b8381101561187f578181015183820152602001611867565b50505050905090810190601f1680156118ac5780820380516001836020036101000a031916815260200191505b509250505060405180910390fd5b505050900390565b60008282018381101561191c576040805162461bcd60e51b815260206004820152601b60248201527f536166654d6174683a206164646974696f6e206f766572666c6f770000000000604482015290519081900360640190fd5b9392505050565b6001600160a01b03821661197e576040805162461bcd60e51b815260206004820152601f60248201527f45524332303a206d696e7420746f20746865207a65726f206164647265737300604482015290519081900360640190fd5b61198a60008383611b80565b60355461199790826118c2565b6035556001600160a01b0382166000908152603360205260409020546119bd90826118c2565b6001600160a01b03831660008181526033602090815260408083209490945583518581529351929391927fddf252ad1be2c89b69c2b068fc378daa952ba7f163c4a11628f55a4df523b3ef9281900390910190a35050565b600081815b8551811015611ab3576000868281518110611a3157fe5b60200260200101519050808311611a785782816040516020018083815260200182815260200192505050604051602081830303815290604052805190602001209250611aaa565b808360405160200180838152602001828152602001925050506040516020818303038152906040528051906020012092505b50600101611a1a565b509092149392505050565b6000611ac930611c90565b15905090565b600054610100900460ff1680611ae85750611ae8611abe565b80611af6575060005460ff16155b611b315760405162461bcd60e51b815260040180806020018281038252602e81526020018061203a602e913960400191505060405180910390fd5b600054610100900460ff16158015611b5c576000805460ff1961ff0019909116610100171660011790555b611b64611c96565b611b6e8383611d36565b8015611b80576000805461ff00191690555b505050565b600054610100900460ff1680611b9e5750611b9e611abe565b80611bac575060005460ff16155b611be75760405162461bcd60e51b815260040180806020018281038252602e81526020018061203a602e913960400191505060405180910390fd5b600054610100900460ff16158015611c12576000805460ff1961ff0019909116610100171660011790555b611c1a611c96565b611c22611e0e565b8015611c34576000805461ff00191690555b50565b600082611c4657506000610932565b82820282848281611c5357fe5b041461191c5760405162461bcd60e51b81526004018080602001828103825260218152602001806120686021913960400191505060405180910390fd5b3b151590565b600054610100900460ff1680611caf5750611caf611abe565b80611cbd575060005460ff16155b611cf85760405162461bcd60e51b815260040180806020018281038252602e81526020018061203a602e913960400191505060405180910390fd5b600054610100900460ff16158015611c22576000805460ff1961ff0019909116610100171660011790558015611c34576000805461ff001916905550565b600054610100900460ff1680611d4f5750611d4f611abe565b80611d5d575060005460ff16155b611d985760405162461bcd60e51b815260040180806020018281038252602e81526020018061203a602e913960400191505060405180910390fd5b600054610100900460ff16158015611dc3576000805460ff1961ff0019909116610100171660011790555b8251611dd6906036906020860190611f07565b508151611dea906037906020850190611f07565b506038805460ff191660121790558015611b80576000805461ff0019169055505050565b600054610100900460ff1680611e275750611e27611abe565b80611e35575060005460ff16155b611e705760405162461bcd60e51b815260040180806020018281038252602e81526020018061203a602e913960400191505060405180910390fd5b600054610100900460ff16158015611e9b576000805460ff1961ff0019909116610100171660011790555b6000611ea56115de565b606580546001600160a01b0319166001600160a01b038316908117909155604051919250906000907f8be0079c531659141344cd1fd0a4f28419497f9722a3daafe3b4186f6b6457e0908290a3508015611c34576000805461ff001916905550565b828054600181600116156101000203166002900490600052602060002090601f016020900481019282611f3d5760008555611f83565b82601f10611f5657805160ff1916838001178555611f83565b82800160010185558215611f83579182015b82811115611f83578251825591602001919060010190611f68565b50611f8f929150611f93565b5090565b5b80821115611f8f5760008155600101611f9456fe45524332303a207472616e7366657220746f20746865207a65726f20616464726573734f776e61626c653a206e6577206f776e657220697320746865207a65726f206164647265737345524332303a20617070726f766520746f20746865207a65726f206164647265737345524332303a207472616e7366657220616d6f756e7420657863656564732062616c616e6365496e697469616c697a61626c653a20636f6e747261637420697320616c726561647920696e697469616c697a6564536166654d6174683a206d756c7469706c69636174696f6e206f766572666c6f7745524332303a207472616e7366657220616d6f756e74206578636565647320616c6c6f77616e63654f776e61626c653a2063616c6c6572206973206e6f7420746865206f776e657245524332303a207472616e736665722066726f6d20746865207a65726f206164647265737345524332303a20617070726f76652066726f6d20746865207a65726f206164647265737345524332303a2064656372656173656420616c6c6f77616e63652062656c6f77207a65726fa2646970667358221220f46d928a7ff98c383161599bfc9692517a5f48bd822943dd8288d58561fa1aa264736f6c63430007060033",
  "immutableReferences": {},
  "source": "// SPDX-License-Identifier: MIT\npragma solidity >=0.6.0 <0.8.0;\n\nimport \"@openzeppelin/contracts-upgradeable/token/ERC20/ERC20Upgradeable.sol\";\nimport \"@openzeppelin/contracts-upgradeable/proxy/Initializable.sol\";\nimport \"@openzeppelin/contracts-upgradeable/access/OwnableUpgradeable.sol\";\nimport \"@openzeppelin/contracts-upgradeable/utils/ReentrancyGuardUpgradeable.sol\";\nimport \"@openzeppelin/contracts-upgradeable/utils/PausableUpgradeable.sol\";\nimport \"@openzeppelin/contracts-upgradeable/cryptography/MerkleProofUpgradeable.sol\";\n\ncontract MetaSaltToken is Initializable, ERC20Upgradeable, OwnableUpgradeable, ReentrancyGuardUpgradeable, PausableUpgradeable {\n    using SafeMathUpgradeable for uint256;\n    address public erc721Contract;\n    address public erc1155Contract;\n    bytes32 public merkleRoot;\n    uint256 public airdropAmount;\n    uint public airdropVersion;\n    mapping (address => uint256) public rewards;\n    mapping (uint => mapping (address => uint256)) public airdrops;    \n    event EventReward(address _to, uint256 _value);\n    event EventAirdrop(address _to, uint256 _value, uint _airdropVersion);\n\n    modifier onlyERC721Creator {\n      require(msg.sender == erc721Contract, \"Not Creator\");\n      _;\n    }\n\n    modifier onlyERC1155Creator {\n      require(msg.sender == erc1155Contract, \"Not Creator\");\n      _;\n    }\n\n    function initialize(string memory name, string memory symbol, uint256 initialSupply, bytes32 _merkleRoot, uint256 _airdropAmount) public virtual initializer {\n        __ERC20_init(name, symbol);\n        __Ownable_init();\n        _mint(_msgSender(), initialSupply.mul(10 ** 18));\n        merkleRoot = _merkleRoot;\n        airdropAmount = _airdropAmount;\n        airdropVersion = 0;\n    }\n\n    function setAirdropAmount(uint256 _airdropAmount) public onlyOwner {        \n        airdropAmount = _airdropAmount;        \n    }\n\n    function createNewAirdropping(bytes32 _merkleRoot, uint256 _airdropAmount) public onlyOwner {\n        merkleRoot = _merkleRoot;\n        airdropAmount = _airdropAmount;\n        airdropVersion++;\n    }\n\n    function claimCreatingReward() external nonReentrant {\n        require(rewards[_msgSender()] > 0, \"not enough reward balance\");\n        _mint(_msgSender(), rewards[_msgSender()]);\n        rewards[_msgSender()] = 0;\n        emit EventReward(_msgSender(), rewards[_msgSender()]);\n    }\n\n    function setERC721Creator(address _erc721Contract) public onlyOwner{\n        erc721Contract = _erc721Contract;\n    }\n\n    function setERC1155Creator(address _erc1155Contract) public onlyOwner{\n        erc1155Contract = _erc1155Contract;\n    }\n\n    function increaseRewardERC721(address _to,  uint256 _value) external onlyERC721Creator{\n        rewards[_to] = rewards[_to].add(_value);\n    }   \n\n    function increaseRewardERC1155(address _to,  uint256 _value) external onlyERC1155Creator{\n        rewards[_to] = rewards[_to].add(_value);\n    }   \n\n    function getReward(address _to) public view returns (uint256) {\n        return rewards[_to];\n    }   \n\n    function mint(address _to, uint256 _amount) public onlyOwner{\n        _mint(_to, _amount);\n    }\n\n    function isAirdropped(uint _airdropVersion, address _addr) public view returns (uint256){\n        return airdrops[_airdropVersion][_addr];\n    }\n\n    function checkValidity(bytes32[] calldata _merkleProof) public view returns (bool){\n        bytes32 leaf = keccak256(abi.encodePacked(msg.sender));\n        require(MerkleProofUpgradeable.verify(_merkleProof, merkleRoot, leaf), \"Incorrect proof\");\n        return true; // Or you can airdrop tokens here\n    }\n\n    function airdrop(bytes32[] calldata _merkleProof) public {\n        bytes32 leaf = keccak256(abi.encodePacked(msg.sender));\n        require(MerkleProofUpgradeable.verify(_merkleProof, merkleRoot, leaf), \"Incorrect proof\");\n        require(airdrops[airdropVersion][msg.sender] == 0, \"You already got an airdrop\");\n        _mint(msg.sender, airdropAmount);\n        airdrops[airdropVersion][msg.sender] = airdropAmount;\n        emit EventAirdrop(_msgSender(), airdropAmount, airdropVersion);\n    }   \n\n    uint256[50] private __gap;\n}",
  "sourcePath": "/Volumes/Data/MetaSalt/smart_contracts/market/contracts/test/MetaSaltToken.sol",
  "compiler": {
    "name": "solc",
    "version": "0.7.6+commit.7338295f.Emscripten.clang"
  },
  "schemaVersion": "3.4.5",
  "updatedAt": "2022-10-25T07:36:59.371Z",
  "networkType": "ethereum",
  "devdoc": {
    "kind": "dev",
    "methods": {
      "allowance(address,address)": {
        "details": "See {IERC20-allowance}."
      },
      "approve(address,uint256)": {
        "details": "See {IERC20-approve}. Requirements: - `spender` cannot be the zero address."
      },
      "balanceOf(address)": {
        "details": "See {IERC20-balanceOf}."
      },
      "decimals()": {
        "details": "Returns the number of decimals used to get its user representation. For example, if `decimals` equals `2`, a balance of `505` tokens should be displayed to a user as `5,05` (`505 / 10 ** 2`). Tokens usually opt for a value of 18, imitating the relationship between Ether and Wei. This is the value {ERC20} uses, unless {_setupDecimals} is called. NOTE: This information is only used for _display_ purposes: it in no way affects any of the arithmetic of the contract, including {IERC20-balanceOf} and {IERC20-transfer}."
      },
      "decreaseAllowance(address,uint256)": {
        "details": "Atomically decreases the allowance granted to `spender` by the caller. This is an alternative to {approve} that can be used as a mitigation for problems described in {IERC20-approve}. Emits an {Approval} event indicating the updated allowance. Requirements: - `spender` cannot be the zero address. - `spender` must have allowance for the caller of at least `subtractedValue`."
      },
      "increaseAllowance(address,uint256)": {
        "details": "Atomically increases the allowance granted to `spender` by the caller. This is an alternative to {approve} that can be used as a mitigation for problems described in {IERC20-approve}. Emits an {Approval} event indicating the updated allowance. Requirements: - `spender` cannot be the zero address."
      },
      "name()": {
        "details": "Returns the name of the token."
      },
      "owner()": {
        "details": "Returns the address of the current owner."
      },
      "paused()": {
        "details": "Returns true if the contract is paused, and false otherwise."
      },
      "renounceOwnership()": {
        "details": "Leaves the contract without owner. It will not be possible to call `onlyOwner` functions anymore. Can only be called by the current owner. NOTE: Renouncing ownership will leave the contract without an owner, thereby removing any functionality that is only available to the owner."
      },
      "symbol()": {
        "details": "Returns the symbol of the token, usually a shorter version of the name."
      },
      "totalSupply()": {
        "details": "See {IERC20-totalSupply}."
      },
      "transfer(address,uint256)": {
        "details": "See {IERC20-transfer}. Requirements: - `recipient` cannot be the zero address. - the caller must have a balance of at least `amount`."
      },
      "transferFrom(address,address,uint256)": {
        "details": "See {IERC20-transferFrom}. Emits an {Approval} event indicating the updated allowance. This is not required by the EIP. See the note at the beginning of {ERC20}. Requirements: - `sender` and `recipient` cannot be the zero address. - `sender` must have a balance of at least `amount`. - the caller must have allowance for ``sender``'s tokens of at least `amount`."
      },
      "transferOwnership(address)": {
        "details": "Transfers ownership of the contract to a new account (`newOwner`). Can only be called by the current owner."
      }
    },
    "version": 1
  },
  "userdoc": {
    "kind": "user",
    "methods": {},
    "version": 1
  }
}