{
  "contractName": "TestERC721",
  "abi": [
    {
      "anonymous": false,
      "inputs": [
        {
          "indexed": true,
          "internalType": "address",
          "name": "owner",
          "type": "address"
        },
        {
          "indexed": true,
          "internalType": "address",
          "name": "approved",
          "type": "address"
        },
        {
          "indexed": true,
          "internalType": "uint256",
          "name": "tokenId",
          "type": "uint256"
        }
      ],
      "name": "Approval",
      "type": "event"
    },
    {
      "anonymous": false,
      "inputs": [
        {
          "indexed": true,
          "internalType": "address",
          "name": "owner",
          "type": "address"
        },
        {
          "indexed": true,
          "internalType": "address",
          "name": "operator",
          "type": "address"
        },
        {
          "indexed": false,
          "internalType": "bool",
          "name": "approved",
          "type": "bool"
        }
      ],
      "name": "ApprovalForAll",
      "type": "event"
    },
    {
      "anonymous": false,
      "inputs": [
        {
          "indexed": true,
          "internalType": "address",
          "name": "from",
          "type": "address"
        },
        {
          "indexed": true,
          "internalType": "address",
          "name": "to",
          "type": "address"
        },
        {
          "indexed": true,
          "internalType": "uint256",
          "name": "tokenId",
          "type": "uint256"
        }
      ],
      "name": "Transfer",
      "type": "event"
    },
    {
      "inputs": [
        {
          "internalType": "address",
          "name": "to",
          "type": "address"
        },
        {
          "internalType": "uint256",
          "name": "tokenId",
          "type": "uint256"
        }
      ],
      "name": "approve",
      "outputs": [],
      "stateMutability": "nonpayable",
      "type": "function"
    },
    {
      "inputs": [
        {
          "internalType": "address",
          "name": "owner",
          "type": "address"
        }
      ],
      "name": "balanceOf",
      "outputs": [
        {
          "internalType": "uint256",
          "name": "",
          "type": "uint256"
        }
      ],
      "stateMutability": "view",
      "type": "function"
    },
    {
      "inputs": [],
      "name": "baseURI",
      "outputs": [
        {
          "internalType": "string",
          "name": "",
          "type": "string"
        }
      ],
      "stateMutability": "view",
      "type": "function"
    },
    {
      "inputs": [
        {
          "internalType": "uint256",
          "name": "tokenId",
          "type": "uint256"
        }
      ],
      "name": "getApproved",
      "outputs": [
        {
          "internalType": "address",
          "name": "",
          "type": "address"
        }
      ],
      "stateMutability": "view",
      "type": "function"
    },
    {
      "inputs": [
        {
          "internalType": "address",
          "name": "owner",
          "type": "address"
        },
        {
          "internalType": "address",
          "name": "operator",
          "type": "address"
        }
      ],
      "name": "isApprovedForAll",
      "outputs": [
        {
          "internalType": "bool",
          "name": "",
          "type": "bool"
        }
      ],
      "stateMutability": "view",
      "type": "function"
    },
    {
      "inputs": [],
      "name": "name",
      "outputs": [
        {
          "internalType": "string",
          "name": "",
          "type": "string"
        }
      ],
      "stateMutability": "view",
      "type": "function"
    },
    {
      "inputs": [
        {
          "internalType": "uint256",
          "name": "tokenId",
          "type": "uint256"
        }
      ],
      "name": "ownerOf",
      "outputs": [
        {
          "internalType": "address",
          "name": "",
          "type": "address"
        }
      ],
      "stateMutability": "view",
      "type": "function"
    },
    {
      "inputs": [
        {
          "internalType": "address",
          "name": "from",
          "type": "address"
        },
        {
          "internalType": "address",
          "name": "to",
          "type": "address"
        },
        {
          "internalType": "uint256",
          "name": "tokenId",
          "type": "uint256"
        }
      ],
      "name": "safeTransferFrom",
      "outputs": [],
      "stateMutability": "nonpayable",
      "type": "function"
    },
    {
      "inputs": [
        {
          "internalType": "address",
          "name": "from",
          "type": "address"
        },
        {
          "internalType": "address",
          "name": "to",
          "type": "address"
        },
        {
          "internalType": "uint256",
          "name": "tokenId",
          "type": "uint256"
        },
        {
          "internalType": "bytes",
          "name": "_data",
          "type": "bytes"
        }
      ],
      "name": "safeTransferFrom",
      "outputs": [],
      "stateMutability": "nonpayable",
      "type": "function"
    },
    {
      "inputs": [
        {
          "internalType": "address",
          "name": "operator",
          "type": "address"
        },
        {
          "internalType": "bool",
          "name": "approved",
          "type": "bool"
        }
      ],
      "name": "setApprovalForAll",
      "outputs": [],
      "stateMutability": "nonpayable",
      "type": "function"
    },
    {
      "inputs": [
        {
          "internalType": "bytes4",
          "name": "interfaceId",
          "type": "bytes4"
        }
      ],
      "name": "supportsInterface",
      "outputs": [
        {
          "internalType": "bool",
          "name": "",
          "type": "bool"
        }
      ],
      "stateMutability": "view",
      "type": "function"
    },
    {
      "inputs": [],
      "name": "symbol",
      "outputs": [
        {
          "internalType": "string",
          "name": "",
          "type": "string"
        }
      ],
      "stateMutability": "view",
      "type": "function"
    },
    {
      "inputs": [
        {
          "internalType": "uint256",
          "name": "index",
          "type": "uint256"
        }
      ],
      "name": "tokenByIndex",
      "outputs": [
        {
          "internalType": "uint256",
          "name": "",
          "type": "uint256"
        }
      ],
      "stateMutability": "view",
      "type": "function"
    },
    {
      "inputs": [
        {
          "internalType": "address",
          "name": "owner",
          "type": "address"
        },
        {
          "internalType": "uint256",
          "name": "index",
          "type": "uint256"
        }
      ],
      "name": "tokenOfOwnerByIndex",
      "outputs": [
        {
          "internalType": "uint256",
          "name": "",
          "type": "uint256"
        }
      ],
      "stateMutability": "view",
      "type": "function"
    },
    {
      "inputs": [
        {
          "internalType": "uint256",
          "name": "tokenId",
          "type": "uint256"
        }
      ],
      "name": "tokenURI",
      "outputs": [
        {
          "internalType": "string",
          "name": "",
          "type": "string"
        }
      ],
      "stateMutability": "view",
      "type": "function"
    },
    {
      "inputs": [],
      "name": "totalSupply",
      "outputs": [
        {
          "internalType": "uint256",
          "name": "",
          "type": "uint256"
        }
      ],
      "stateMutability": "view",
      "type": "function"
    },
    {
      "inputs": [
        {
          "internalType": "address",
          "name": "from",
          "type": "address"
        },
        {
          "internalType": "address",
          "name": "to",
          "type": "address"
        },
        {
          "internalType": "uint256",
          "name": "tokenId",
          "type": "uint256"
        }
      ],
      "name": "transferFrom",
      "outputs": [],
      "stateMutability": "nonpayable",
      "type": "function"
    },
    {
      "inputs": [
        {
          "internalType": "address",
          "name": "to",
          "type": "address"
        },
        {
          "internalType": "uint256",
          "name": "tokenId",
          "type": "uint256"
        }
      ],
      "name": "mint",
      "outputs": [],
      "stateMutability": "nonpayable",
      "type": "function"
    }
  ],
  "bytecode": "0x608060405234801561001057600080fd5b50611c95806100206000396000f3fe608060405234801561001057600080fd5b50600436106101165760003560e01c80634f6ccce7116100a257806395d89b411161007157806395d89b4114610380578063a22cb46514610388578063b88d4fde146103b6578063c87b56dd1461047c578063e985e9c51461049957610116565b80634f6ccce7146103185780636352211e146103355780636c0360eb1461035257806370a082311461035a57610116565b806318160ddd116100e957806318160ddd1461023a57806323b872dd146102545780632f745c591461028a57806340c10f19146102b657806342842e0e146102e257610116565b806301ffc9a71461011b57806306fdde0314610156578063081812fc146101d3578063095ea7b31461020c575b600080fd5b6101426004803603602081101561013157600080fd5b50356001600160e01b0319166104c7565b604080519115158252519081900360200190f35b61015e6104ea565b6040805160208082528351818301528351919283929083019185019080838360005b83811015610198578181015183820152602001610180565b50505050905090810190601f1680156101c55780820380516001836020036101000a031916815260200191505b509250505060405180910390f35b6101f0600480360360208110156101e957600080fd5b5035610580565b604080516001600160a01b039092168252519081900360200190f35b6102386004803603604081101561022257600080fd5b506001600160a01b0381351690602001356105cc565b005b610242610669565b60408051918252519081900360200190f35b6102386004803603606081101561026a57600080fd5b506001600160a01b0381358116916020810135909116906040013561067a565b610242600480360360408110156102a057600080fd5b506001600160a01b0381351690602001356106b2565b610238600480360360408110156102cc57600080fd5b506001600160a01b0381351690602001356106dd565b610238600480360360608110156102f857600080fd5b506001600160a01b038135811691602081013590911690604001356106eb565b6102426004803603602081101561032e57600080fd5b5035610706565b6101f06004803603602081101561034b57600080fd5b503561071c565b61015e610744565b6102426004803603602081101561037057600080fd5b50356001600160a01b03166107a5565b61015e6107ee565b6102386004803603604081101561039e57600080fd5b506001600160a01b038135169060200135151561084f565b610238600480360360808110156103cc57600080fd5b6001600160a01b0382358116926020810135909116916040820135919081019060808101606082013564010000000081111561040757600080fd5b82018360208201111561041957600080fd5b8035906020019184600183028401116401000000008311171561043b57600080fd5b91908080601f01602080910402602001604051908101604052809392919081815260200183838082843760009201919091525092955061091d945050505050565b61015e6004803603602081101561049257600080fd5b503561095c565b610142600480360360408110156104af57600080fd5b506001600160a01b0381358116916020013516610a88565b6001600160e01b0319811660009081526033602052604090205460ff165b919050565b606a8054604080516020601f60026000196101006001881615020190951694909404938401819004810282018101909252828152606093909290918301828280156105765780601f1061054b57610100808354040283529160200191610576565b820191906000526020600020905b81548152906001019060200180831161055957829003601f168201915b5050505050905090565b600061058b82610ab6565b6105b05760405162461bcd60e51b81526004016105a7906119f0565b60405180910390fd5b506000908152606860205260409020546001600160a01b031690565b60006105d78261071c565b9050806001600160a01b0316836001600160a01b0316141561060b5760405162461bcd60e51b81526004016105a790611ad4565b806001600160a01b031661061d610ac3565b6001600160a01b0316148061063e575061063e81610639610ac3565b610a88565b61065a5760405162461bcd60e51b81526004016105a790611914565b6106648383610ac7565b505050565b60006106756066610b35565b905090565b61068b610685610ac3565b82610b40565b6106a75760405162461bcd60e51b81526004016105a790611b15565b610664838383610bc5565b6001600160a01b03821660009081526065602052604081206106d49083610cd3565b90505b92915050565b6106e78282610cdf565b5050565b6106648383836040518060200160405280600081525061091d565b600080610714606684610dd2565b509392505050565b60006106d782604051806060016040528060298152602001611c156029913960669190610dee565b606d8054604080516020601f60026000196101006001881615020190951694909404938401819004810282018101909252828152606093909290918301828280156105765780601f1061054b57610100808354040283529160200191610576565b60006001600160a01b0382166107cd5760405162461bcd60e51b81526004016105a790611971565b6001600160a01b03821660009081526065602052604090206106d790610b35565b606b8054604080516020601f60026000196101006001881615020190951694909404938401819004810282018101909252828152606093909290918301828280156105765780601f1061054b57610100808354040283529160200191610576565b610857610ac3565b6001600160a01b0316826001600160a01b031614156108885760405162461bcd60e51b81526004016105a790611891565b8060696000610895610ac3565b6001600160a01b03908116825260208083019390935260409182016000908120918716808252919093529120805460ff1916921515929092179091556108d9610ac3565b6001600160a01b03167f17307eab39ab6107e8899845ad3d59bd9653f200f220920489ca2b5937696c318360405161091191906117b9565b60405180910390a35050565b61092e610928610ac3565b83610b40565b61094a5760405162461bcd60e51b81526004016105a790611b15565b61095684848484610e05565b50505050565b606061096782610ab6565b6109835760405162461bcd60e51b81526004016105a790611a85565b6000828152606c602090815260408083208054825160026001831615610100026000190190921691909104601f810185900485028201850190935282815292909190830182828015610a165780601f106109eb57610100808354040283529160200191610a16565b820191906000526020600020905b8154815290600101906020018083116109f957829003601f168201915b505050505090506000610a27610744565b9050805160001415610a3b575090506104e5565b815115610a5557610a4c8183610e38565b925050506104e5565b80610a5f8561101d565b604051602001610a70929190611736565b60405160208183030381529060405292505050919050565b6001600160a01b03918216600090815260696020908152604080832093909416825291909152205460ff1690565b60006106d76066836110f8565b3390565b600081815260686020526040902080546001600160a01b0319166001600160a01b0384169081179091558190610afc8261071c565b6001600160a01b03167f8c5be1e5ebec7d5bd14f71427d1e84f3dd0314c0f7b2291e5b200ac8c7c3b92560405160405180910390a45050565b60006106d782611104565b6000610b4b82610ab6565b610b675760405162461bcd60e51b81526004016105a7906118c8565b6000610b728361071c565b9050806001600160a01b0316846001600160a01b03161480610bad5750836001600160a01b0316610ba284610580565b6001600160a01b0316145b80610bbd5750610bbd8185610a88565b949350505050565b826001600160a01b0316610bd88261071c565b6001600160a01b031614610bfe5760405162461bcd60e51b81526004016105a790611a3c565b6001600160a01b038216610c245760405162461bcd60e51b81526004016105a79061184d565b610c2f838383610664565b610c3a600082610ac7565b6001600160a01b0383166000908152606560205260409020610c5c9082611108565b506001600160a01b0382166000908152606560205260409020610c7f9082611114565b50610c8c60668284611120565b5080826001600160a01b0316846001600160a01b03167fddf252ad1be2c89b69c2b068fc378daa952ba7f163c4a11628f55a4df523b3ef60405160405180910390a4505050565b60006106d48383611136565b6001600160a01b038216610d055760405162461bcd60e51b81526004016105a7906119bb565b6000818152606e602052604090205460ff1615610d345760405162461bcd60e51b81526004016105a790611b66565b610d3d81610ab6565b15610d5a5760405162461bcd60e51b81526004016105a790611816565b610d6660008383610664565b6001600160a01b0382166000908152606560205260409020610d889082611114565b50610d9560668284611120565b5060405181906001600160a01b038416906000907fddf252ad1be2c89b69c2b068fc378daa952ba7f163c4a11628f55a4df523b3ef908290a45050565b6000808080610de1868661119a565b9097909650945050505050565b6000610dfb848484611215565b90505b9392505050565b610e10848484610bc5565b610e1c848484846112df565b6109565760405162461bcd60e51b81526004016105a7906117c4565b80518251606091849184911015610f035784846040516020018083805190602001908083835b60208310610e7d5780518252601f199092019160209182019101610e5e565b51815160209384036101000a600019018019909216911617905285519190930192850191508083835b60208310610ec55780518252601f199092019160209182019101610ea6565b6001836020036101000a03801982511681845116808217855250505050505090500192505050604051602081830303815290604052925050506106d7565b60005b825181101561101357828181518110610f1b57fe5b602001015160f81c60f81b6001600160f81b031916828281518110610f3c57fe5b01602001516001600160f81b0319161461100b5785856040516020018083805190602001908083835b60208310610f845780518252601f199092019160209182019101610f65565b51815160209384036101000a600019018019909216911617905285519190930192850191508083835b60208310610fcc5780518252601f199092019160209182019101610fad565b6001836020036101000a0380198251168184511680821785525050505050509050019250505060405160208183030381529060405293505050506106d7565b600101610f06565b5092949350505050565b60608161104257506040805180820190915260018152600360fc1b60208201526104e5565b8160005b811561105a57600101600a82049150611046565b60008167ffffffffffffffff8111801561107357600080fd5b506040519080825280601f01601f19166020018201604052801561109e576020820181803683370190505b50859350905060001982015b83156110ef57600a840660300160f81b828280600190039350815181106110cd57fe5b60200101906001600160f81b031916908160001a905350600a840493506110aa565b50949350505050565b60006106d483836113be565b5490565b60006106d483836113d6565b60006106d4838361149c565b6000610dfb84846001600160a01b0385166114e6565b815460009082106111785760405162461bcd60e51b8152600401808060200182810382526022815260200180611bc16022913960400191505060405180910390fd5b82600001828154811061118757fe5b9060005260206000200154905092915050565b8154600090819083106111de5760405162461bcd60e51b8152600401808060200182810382526022815260200180611c3e6022913960400191505060405180910390fd5b60008460000184815481106111ef57fe5b906000526020600020906002020190508060000154816001015492509250509250929050565b600082815260018401602052604081205482816112b05760405162461bcd60e51b81526004018080602001828103825283818151815260200191508051906020019080838360005b8381101561127557818101518382015260200161125d565b50505050905090810190601f1680156112a25780820380516001836020036101000a031916815260200191505b509250505060405180910390fd5b508460000160018203815481106112c357fe5b9060005260206000209060020201600101549150509392505050565b60006112f3846001600160a01b031661157d565b6112ff57506001610bbd565b6000611387630a85bd0160e11b611314610ac3565b88878760405160240161132a9493929190611765565b604051602081830303815290604052906001600160e01b0319166020820180516001600160e01b038381831617835250505050604051806060016040528060328152602001611be3603291396001600160a01b0388169190611583565b905060008180602001905181019061139f919061170e565b6001600160e01b031916630a85bd0160e11b1492505050949350505050565b60009081526001919091016020526040902054151590565b60008181526001830160205260408120548015611492578354600019808301919081019060009087908390811061140957fe5b906000526020600020015490508087600001848154811061142657fe5b60009182526020808320909101929092558281526001898101909252604090209084019055865487908061145657fe5b600190038181906000526020600020016000905590558660010160008781526020019081526020016000206000905560019450505050506106d7565b60009150506106d7565b60006114a883836113be565b6114de575081546001818101845560008481526020808220909301849055845484825282860190935260409020919091556106d7565b5060006106d7565b60008281526001840160205260408120548061154b575050604080518082018252838152602080820184815286546001818101895560008981528481209551600290930290950191825591519082015586548684528188019092529290912055610dfe565b8285600001600183038154811061155e57fe5b9060005260206000209060020201600101819055506000915050610dfe565b3b151590565b6060610dfb8484600085856115978561157d565b6115e8576040805162461bcd60e51b815260206004820152601d60248201527f416464726573733a2063616c6c20746f206e6f6e2d636f6e7472616374000000604482015290519081900360640190fd5b600080866001600160a01b031685876040518082805190602001908083835b602083106116265780518252601f199092019160209182019101611607565b6001836020036101000a03801982511681845116808217855250505050505090500191505060006040518083038185875af1925050503d8060008114611688576040519150601f19603f3d011682016040523d82523d6000602084013e61168d565b606091505b509150915061169d8282866116a8565b979650505050505050565b606083156116b7575081610dfe565b8251156116c75782518084602001fd5b60405162461bcd60e51b815260206004820181815284516024840152845185939192839260440191908501908083836000831561127557818101518382015260200161125d565b60006020828403121561171f578081fd5b81516001600160e01b031981168114610dfe578182fd5b60008351611748818460208801611b94565b83519083019061175c818360208801611b94565b01949350505050565b600060018060a01b0380871683528086166020840152508360408301526080606083015282518060808401526117a28160a0850160208701611b94565b601f01601f19169190910160a00195945050505050565b901515815260200190565b60208082526032908201527f4552433732313a207472616e7366657220746f206e6f6e20455243373231526560408201527131b2b4bb32b91034b6b83632b6b2b73a32b960711b606082015260800190565b6020808252601c908201527f4552433732313a20746f6b656e20616c7265616479206d696e74656400000000604082015260600190565b60208082526024908201527f4552433732313a207472616e7366657220746f20746865207a65726f206164646040820152637265737360e01b606082015260800190565b60208082526019908201527f4552433732313a20617070726f766520746f2063616c6c657200000000000000604082015260600190565b6020808252602c908201527f4552433732313a206f70657261746f7220717565727920666f72206e6f6e657860408201526b34b9ba32b73a103a37b5b2b760a11b606082015260800190565b60208082526038908201527f4552433732313a20617070726f76652063616c6c6572206973206e6f74206f7760408201527f6e6572206e6f7220617070726f76656420666f7220616c6c0000000000000000606082015260800190565b6020808252602a908201527f4552433732313a2062616c616e636520717565727920666f7220746865207a65604082015269726f206164647265737360b01b606082015260800190565b6020808252818101527f4552433732313a206d696e7420746f20746865207a65726f2061646472657373604082015260600190565b6020808252602c908201527f4552433732313a20617070726f76656420717565727920666f72206e6f6e657860408201526b34b9ba32b73a103a37b5b2b760a11b606082015260800190565b60208082526029908201527f4552433732313a207472616e73666572206f6620746f6b656e2074686174206960408201526839903737ba1037bbb760b91b606082015260800190565b6020808252602f908201527f4552433732314d657461646174613a2055524920717565727920666f72206e6f60408201526e3732bc34b9ba32b73a103a37b5b2b760891b606082015260800190565b60208082526021908201527f4552433732313a20617070726f76616c20746f2063757272656e74206f776e656040820152603960f91b606082015260800190565b60208082526031908201527f4552433732313a207472616e736665722063616c6c6572206973206e6f74206f6040820152701ddb995c881b9bdc88185c1c1c9bdd9959607a1b606082015260800190565b6020808252601490820152731d1bdad95b88185b1c9958591e48189d5c9b995960621b604082015260600190565b60005b83811015611baf578181015183820152602001611b97565b83811115610956575050600091015256fe456e756d657261626c655365743a20696e646578206f7574206f6620626f756e64734552433732313a207472616e7366657220746f206e6f6e20455243373231526563656976657220696d706c656d656e7465724552433732313a206f776e657220717565727920666f72206e6f6e6578697374656e7420746f6b656e456e756d657261626c654d61703a20696e646578206f7574206f6620626f756e6473a2646970667358221220f88e07223a9135c10da93f73f9fb1e9647e7adf30f43c6369a501c323a4927ac64736f6c63430007060033",
  "immutableReferences": {},
  "source": "// SPDX-License-Identifier: MIT\n\npragma solidity 0.7.6;\n\nimport \"./nfts/ERC721Upgradeable.sol\";\n\ncontract TestERC721 is ERC721Upgradeable {\n    function mint(address to, uint tokenId) external {\n        _mint(to, tokenId);\n    }\n}\n",
  "sourcePath": "/Volumes/Data/MetaSalt/smart_contracts/market/contracts/test/TestERC721.sol",
  "compiler": {
    "name": "solc",
    "version": "0.7.6+commit.7338295f.Emscripten.clang"
  },
  "schemaVersion": "3.4.5",
  "updatedAt": "2022-10-25T04:56:34.544Z",
  "devdoc": {
    "kind": "dev",
    "methods": {
      "approve(address,uint256)": {
        "details": "See {IERC721-approve}."
      },
      "balanceOf(address)": {
        "details": "See {IERC721-balanceOf}."
      },
      "baseURI()": {
        "details": "Returns the base URI set via {_setBaseURI}. This will be automatically added as a prefix in {tokenURI} to each token's URI, or to the token ID if no specific URI is set for that token ID."
      },
      "getApproved(uint256)": {
        "details": "See {IERC721-getApproved}."
      },
      "isApprovedForAll(address,address)": {
        "details": "See {IERC721-isApprovedForAll}."
      },
      "name()": {
        "details": "See {IERC721Metadata-name}."
      },
      "ownerOf(uint256)": {
        "details": "See {IERC721-ownerOf}."
      },
      "safeTransferFrom(address,address,uint256)": {
        "details": "See {IERC721-safeTransferFrom}."
      },
      "safeTransferFrom(address,address,uint256,bytes)": {
        "details": "See {IERC721-safeTransferFrom}."
      },
      "setApprovalForAll(address,bool)": {
        "details": "See {IERC721-setApprovalForAll}."
      },
      "supportsInterface(bytes4)": {
        "details": "See {IERC165-supportsInterface}. Time complexity O(1), guaranteed to always use less than 30 000 gas."
      },
      "symbol()": {
        "details": "See {IERC721Metadata-symbol}."
      },
      "tokenByIndex(uint256)": {
        "details": "See {IERC721Enumerable-tokenByIndex}."
      },
      "tokenOfOwnerByIndex(address,uint256)": {
        "details": "See {IERC721Enumerable-tokenOfOwnerByIndex}."
      },
      "tokenURI(uint256)": {
        "details": "See {IERC721Metadata-tokenURI}."
      },
      "totalSupply()": {
        "details": "See {IERC721Enumerable-totalSupply}."
      },
      "transferFrom(address,address,uint256)": {
        "details": "See {IERC721-transferFrom}."
      }
    },
    "version": 1
  },
  "userdoc": {
    "kind": "user",
    "methods": {},
    "version": 1
  }
}