{
  "contractName": "TestERC1155",
  "abi": [
    {
      "anonymous": false,
      "inputs": [
        {
          "indexed": true,
          "internalType": "address",
          "name": "account",
          "type": "address"
        },
        {
          "indexed": true,
          "internalType": "address",
          "name": "operator",
          "type": "address"
        },
        {
          "indexed": false,
          "internalType": "bool",
          "name": "approved",
          "type": "bool"
        }
      ],
      "name": "ApprovalForAll",
      "type": "event"
    },
    {
      "anonymous": false,
      "inputs": [
        {
          "indexed": true,
          "internalType": "address",
          "name": "operator",
          "type": "address"
        },
        {
          "indexed": true,
          "internalType": "address",
          "name": "from",
          "type": "address"
        },
        {
          "indexed": true,
          "internalType": "address",
          "name": "to",
          "type": "address"
        },
        {
          "indexed": false,
          "internalType": "uint256[]",
          "name": "ids",
          "type": "uint256[]"
        },
        {
          "indexed": false,
          "internalType": "uint256[]",
          "name": "values",
          "type": "uint256[]"
        }
      ],
      "name": "TransferBatch",
      "type": "event"
    },
    {
      "anonymous": false,
      "inputs": [
        {
          "indexed": true,
          "internalType": "address",
          "name": "operator",
          "type": "address"
        },
        {
          "indexed": true,
          "internalType": "address",
          "name": "from",
          "type": "address"
        },
        {
          "indexed": true,
          "internalType": "address",
          "name": "to",
          "type": "address"
        },
        {
          "indexed": false,
          "internalType": "uint256",
          "name": "id",
          "type": "uint256"
        },
        {
          "indexed": false,
          "internalType": "uint256",
          "name": "value",
          "type": "uint256"
        }
      ],
      "name": "TransferSingle",
      "type": "event"
    },
    {
      "anonymous": false,
      "inputs": [
        {
          "indexed": false,
          "internalType": "string",
          "name": "value",
          "type": "string"
        },
        {
          "indexed": true,
          "internalType": "uint256",
          "name": "id",
          "type": "uint256"
        }
      ],
      "name": "URI",
      "type": "event"
    },
    {
      "inputs": [
        {
          "internalType": "address",
          "name": "account",
          "type": "address"
        },
        {
          "internalType": "uint256",
          "name": "id",
          "type": "uint256"
        }
      ],
      "name": "balanceOf",
      "outputs": [
        {
          "internalType": "uint256",
          "name": "",
          "type": "uint256"
        }
      ],
      "stateMutability": "view",
      "type": "function"
    },
    {
      "inputs": [
        {
          "internalType": "address[]",
          "name": "accounts",
          "type": "address[]"
        },
        {
          "internalType": "uint256[]",
          "name": "ids",
          "type": "uint256[]"
        }
      ],
      "name": "balanceOfBatch",
      "outputs": [
        {
          "internalType": "uint256[]",
          "name": "",
          "type": "uint256[]"
        }
      ],
      "stateMutability": "view",
      "type": "function"
    },
    {
      "inputs": [
        {
          "internalType": "address",
          "name": "account",
          "type": "address"
        },
        {
          "internalType": "address",
          "name": "operator",
          "type": "address"
        }
      ],
      "name": "isApprovedForAll",
      "outputs": [
        {
          "internalType": "bool",
          "name": "",
          "type": "bool"
        }
      ],
      "stateMutability": "view",
      "type": "function"
    },
    {
      "inputs": [
        {
          "internalType": "address",
          "name": "from",
          "type": "address"
        },
        {
          "internalType": "address",
          "name": "to",
          "type": "address"
        },
        {
          "internalType": "uint256[]",
          "name": "ids",
          "type": "uint256[]"
        },
        {
          "internalType": "uint256[]",
          "name": "amounts",
          "type": "uint256[]"
        },
        {
          "internalType": "bytes",
          "name": "data",
          "type": "bytes"
        }
      ],
      "name": "safeBatchTransferFrom",
      "outputs": [],
      "stateMutability": "nonpayable",
      "type": "function"
    },
    {
      "inputs": [
        {
          "internalType": "address",
          "name": "from",
          "type": "address"
        },
        {
          "internalType": "address",
          "name": "to",
          "type": "address"
        },
        {
          "internalType": "uint256",
          "name": "id",
          "type": "uint256"
        },
        {
          "internalType": "uint256",
          "name": "amount",
          "type": "uint256"
        },
        {
          "internalType": "bytes",
          "name": "data",
          "type": "bytes"
        }
      ],
      "name": "safeTransferFrom",
      "outputs": [],
      "stateMutability": "nonpayable",
      "type": "function"
    },
    {
      "inputs": [
        {
          "internalType": "address",
          "name": "operator",
          "type": "address"
        },
        {
          "internalType": "bool",
          "name": "approved",
          "type": "bool"
        }
      ],
      "name": "setApprovalForAll",
      "outputs": [],
      "stateMutability": "nonpayable",
      "type": "function"
    },
    {
      "inputs": [
        {
          "internalType": "bytes4",
          "name": "interfaceId",
          "type": "bytes4"
        }
      ],
      "name": "supportsInterface",
      "outputs": [
        {
          "internalType": "bool",
          "name": "",
          "type": "bool"
        }
      ],
      "stateMutability": "view",
      "type": "function"
    },
    {
      "inputs": [
        {
          "internalType": "uint256",
          "name": "",
          "type": "uint256"
        }
      ],
      "name": "uri",
      "outputs": [
        {
          "internalType": "string",
          "name": "",
          "type": "string"
        }
      ],
      "stateMutability": "view",
      "type": "function"
    },
    {
      "inputs": [
        {
          "internalType": "address",
          "name": "account",
          "type": "address"
        },
        {
          "internalType": "uint256",
          "name": "id",
          "type": "uint256"
        },
        {
          "internalType": "uint256",
          "name": "amount",
          "type": "uint256"
        },
        {
          "internalType": "bytes",
          "name": "data",
          "type": "bytes"
        }
      ],
      "name": "mint",
      "outputs": [],
      "stateMutability": "nonpayable",
      "type": "function"
    }
  ],
  "bytecode": "0x608060405234801561001057600080fd5b506117b9806100206000396000f3fe608060405234801561001057600080fd5b50600436106100925760003560e01c80634e1273f4116100665780634e1273f414610365578063731133e9146104d8578063a22cb46514610598578063e985e9c5146105c6578063f242432a146105f457610092565b8062fdd58e1461009757806301ffc9a7146100d55780630e89341c146101105780632eb2c2d6146101a2575b600080fd5b6100c3600480360360408110156100ad57600080fd5b506001600160a01b0381351690602001356106bd565b60408051918252519081900360200190f35b6100fc600480360360208110156100eb57600080fd5b50356001600160e01b03191661072c565b604080519115158252519081900360200190f35b61012d6004803603602081101561012657600080fd5b503561074b565b6040805160208082528351818301528351919283929083019185019080838360005b8381101561016757818101518382015260200161014f565b50505050905090810190601f1680156101945780820380516001836020036101000a031916815260200191505b509250505060405180910390f35b610363600480360360a08110156101b857600080fd5b6001600160a01b038235811692602081013590911691810190606081016040820135600160201b8111156101eb57600080fd5b8201836020820111156101fd57600080fd5b803590602001918460208302840111600160201b8311171561021e57600080fd5b9190808060200260200160405190810160405280939291908181526020018383602002808284376000920191909152509295949360208101935035915050600160201b81111561026d57600080fd5b82018360208201111561027f57600080fd5b803590602001918460208302840111600160201b831117156102a057600080fd5b9190808060200260200160405190810160405280939291908181526020018383602002808284376000920191909152509295949360208101935035915050600160201b8111156102ef57600080fd5b82018360208201111561030157600080fd5b803590602001918460018302840111600160201b8311171561032257600080fd5b91908080601f0160208091040260200160405190810160405280939291908181526020018383808284376000920191909152509295506107e3945050505050565b005b6104886004803603604081101561037b57600080fd5b810190602081018135600160201b81111561039557600080fd5b8201836020820111156103a757600080fd5b803590602001918460208302840111600160201b831117156103c857600080fd5b9190808060200260200160405190810160405280939291908181526020018383602002808284376000920191909152509295949360208101935035915050600160201b81111561041757600080fd5b82018360208201111561042957600080fd5b803590602001918460208302840111600160201b8311171561044a57600080fd5b919080806020026020016040519081016040528093929190818152602001838360200280828437600092019190915250929550610ae6945050505050565b60408051602080825283518183015283519192839290830191858101910280838360005b838110156104c45781810151838201526020016104ac565b505050509050019250505060405180910390f35b610363600480360360808110156104ee57600080fd5b6001600160a01b038235169160208101359160408201359190810190608081016060820135600160201b81111561052457600080fd5b82018360208201111561053657600080fd5b803590602001918460018302840111600160201b8311171561055757600080fd5b91908080601f016020809104026020016040519081016040528093929190818152602001838380828437600092019190915250929550610bd2945050505050565b610363600480360360408110156105ae57600080fd5b506001600160a01b0381351690602001351515610be4565b6100fc600480360360408110156105dc57600080fd5b506001600160a01b0381358116916020013516610cd3565b610363600480360360a081101561060a57600080fd5b6001600160a01b03823581169260208101359091169160408201359160608101359181019060a081016080820135600160201b81111561064957600080fd5b82018360208201111561065b57600080fd5b803590602001918460018302840111600160201b8311171561067c57600080fd5b91908080601f016020809104026020016040519081016040528093929190818152602001838380828437600092019190915250929550610d01945050505050565b60006001600160a01b0383166107045760405162461bcd60e51b815260040180806020018281038252602b815260200180611614602b913960400191505060405180910390fd5b5060009081526065602090815260408083206001600160a01b03949094168352929052205490565b6001600160e01b03191660009081526033602052604090205460ff1690565b60678054604080516020601f60026000196101006001881615020190951694909404938401819004810282018101909252828152606093909290918301828280156107d75780601f106107ac576101008083540402835291602001916107d7565b820191906000526020600020905b8154815290600101906020018083116107ba57829003601f168201915b50505050509050919050565b81518351146108235760405162461bcd60e51b815260040180806020018281038252602881526020018061173b6028913960400191505060405180910390fd5b6001600160a01b0384166108685760405162461bcd60e51b81526004018080602001828103825260258152602001806116686025913960400191505060405180910390fd5b610870610ecc565b6001600160a01b0316856001600160a01b0316148061089b575061089b85610896610ecc565b610cd3565b6108d65760405162461bcd60e51b815260040180806020018281038252603281526020018061168d6032913960400191505060405180910390fd5b60006108e0610ecc565b90506108f0818787878787610ade565b60005b84518110156109f657600085828151811061090a57fe5b60200260200101519050600085838151811061092257fe5b6020026020010151905061098f816040518060600160405280602a81526020016116bf602a91396065600086815260200190815260200160002060008d6001600160a01b03166001600160a01b0316815260200190815260200160002054610ed19092919063ffffffff16565b60008381526065602090815260408083206001600160a01b038e811685529252808320939093558a16815220546109c69082610f68565b60009283526065602090815260408085206001600160a01b038c16865290915290922091909155506001016108f3565b50846001600160a01b0316866001600160a01b0316826001600160a01b03167f4a39dc06d4c0dbc64b70af90fd698a233a518aa5d07e595d983b8c0526c8f7fb8787604051808060200180602001838103835285818151815260200191508051906020019060200280838360005b83811015610a7c578181015183820152602001610a64565b50505050905001838103825284818151815260200191508051906020019060200280838360005b83811015610abb578181015183820152602001610aa3565b5050505090500194505050505060405180910390a4610ade818787878787610fc9565b505050505050565b60608151835114610b285760405162461bcd60e51b81526004018080602001828103825260298152602001806117126029913960400191505060405180910390fd5b6000835167ffffffffffffffff81118015610b4257600080fd5b50604051908082528060200260200182016040528015610b6c578160200160208202803683370190505b50905060005b8451811015610bca57610bab858281518110610b8a57fe5b6020026020010151858381518110610b9e57fe5b60200260200101516106bd565b828281518110610bb757fe5b6020908102919091010152600101610b72565b509392505050565b610bde84848484611248565b50505050565b816001600160a01b0316610bf6610ecc565b6001600160a01b03161415610c3c5760405162461bcd60e51b81526004018080602001828103825260298152602001806116e96029913960400191505060405180910390fd5b8060666000610c49610ecc565b6001600160a01b03908116825260208083019390935260409182016000908120918716808252919093529120805460ff191692151592909217909155610c8d610ecc565b6001600160a01b03167f17307eab39ab6107e8899845ad3d59bd9653f200f220920489ca2b5937696c318360405180821515815260200191505060405180910390a35050565b6001600160a01b03918216600090815260666020908152604080832093909416825291909152205460ff1690565b6001600160a01b038416610d465760405162461bcd60e51b81526004018080602001828103825260258152602001806116686025913960400191505060405180910390fd5b610d4e610ecc565b6001600160a01b0316856001600160a01b03161480610d745750610d7485610896610ecc565b610daf5760405162461bcd60e51b815260040180806020018281038252602981526020018061163f6029913960400191505060405180910390fd5b6000610db9610ecc565b9050610dd9818787610dca88611350565b610dd388611350565b87610ade565b610e20836040518060600160405280602a81526020016116bf602a913960008781526065602090815260408083206001600160a01b038d1684529091529020549190610ed1565b60008581526065602090815260408083206001600160a01b038b81168552925280832093909355871681522054610e579084610f68565b60008581526065602090815260408083206001600160a01b03808b168086529184529382902094909455805188815291820187905280518a8416938616927fc3d58168c5ae7397731d063d5bbf3d657854427343f4c083240f7aacaa2d0f6292908290030190a4610ade818787878787611395565b335b90565b60008184841115610f605760405162461bcd60e51b81526004018080602001828103825283818151815260200191508051906020019080838360005b83811015610f25578181015183820152602001610f0d565b50505050905090810190601f168015610f525780820380516001836020036101000a031916815260200191505b509250505060405180910390fd5b505050900390565b600082820183811015610fc2576040805162461bcd60e51b815260206004820152601b60248201527f536166654d6174683a206164646974696f6e206f766572666c6f770000000000604482015290519081900360640190fd5b9392505050565b610fdb846001600160a01b0316611506565b15610ade57836001600160a01b031663bc197c8187878686866040518663ffffffff1660e01b815260040180866001600160a01b03168152602001856001600160a01b03168152602001806020018060200180602001848103845287818151815260200191508051906020019060200280838360005b83811015611069578181015183820152602001611051565b50505050905001848103835286818151815260200191508051906020019060200280838360005b838110156110a8578181015183820152602001611090565b50505050905001848103825285818151815260200191508051906020019080838360005b838110156110e45781810151838201526020016110cc565b50505050905090810190601f1680156111115780820380516001836020036101000a031916815260200191505b5098505050505050505050602060405180830381600087803b15801561113657600080fd5b505af192505050801561115b57506040513d602081101561115657600080fd5b505160015b6111f057611167611512565b8061117257506111b9565b60405162461bcd60e51b8152602060048201818152835160248401528351849391928392604401919085019080838360008315610f25578181015183820152602001610f0d565b60405162461bcd60e51b81526004018080602001828103825260348152602001806115b86034913960400191505060405180910390fd5b6001600160e01b0319811663bc197c8160e01b1461123f5760405162461bcd60e51b81526004018080602001828103825260288152602001806115ec6028913960400191505060405180910390fd5b50505050505050565b6001600160a01b03841661128d5760405162461bcd60e51b81526004018080602001828103825260218152602001806117636021913960400191505060405180910390fd5b6000611297610ecc565b90506112a981600087610dca88611350565b60008481526065602090815260408083206001600160a01b03891684529091529020546112d69084610f68565b60008581526065602090815260408083206001600160a01b03808b16808652918452828520959095558151898152928301889052815190948616927fc3d58168c5ae7397731d063d5bbf3d657854427343f4c083240f7aacaa2d0f6292908290030190a461134981600087878787611395565b5050505050565b6040805160018082528183019092526060916000919060208083019080368337019050509050828160008151811061138457fe5b602090810291909101015292915050565b6113a7846001600160a01b0316611506565b15610ade57836001600160a01b031663f23a6e6187878686866040518663ffffffff1660e01b815260040180866001600160a01b03168152602001856001600160a01b0316815260200184815260200183815260200180602001828103825283818151815260200191508051906020019080838360005b8381101561143657818101518382015260200161141e565b50505050905090810190601f1680156114635780820380516001836020036101000a031916815260200191505b509650505050505050602060405180830381600087803b15801561148657600080fd5b505af19250505080156114ab57506040513d60208110156114a657600080fd5b505160015b6114b757611167611512565b6001600160e01b0319811663f23a6e6160e01b1461123f5760405162461bcd60e51b81526004018080602001828103825260288152602001806115ec6028913960400191505060405180910390fd5b3b151590565b60e01c90565b600060443d101561152257610ece565b600481823e6308c379a0611536825161150c565b1461154057610ece565b6040513d600319016004823e80513d67ffffffffffffffff81602484011181841117156115705750505050610ece565b8284019250825191508082111561158a5750505050610ece565b503d830160208284010111156115a257505050610ece565b601f01601f191681016020016040529150509056fe455243313135353a207472616e7366657220746f206e6f6e2045524331313535526563656976657220696d706c656d656e746572455243313135353a204552433131353552656365697665722072656a656374656420746f6b656e73455243313135353a2062616c616e636520717565727920666f7220746865207a65726f2061646472657373455243313135353a2063616c6c6572206973206e6f74206f776e6572206e6f7220617070726f766564455243313135353a207472616e7366657220746f20746865207a65726f2061646472657373455243313135353a207472616e736665722063616c6c6572206973206e6f74206f776e6572206e6f7220617070726f766564455243313135353a20696e73756666696369656e742062616c616e636520666f72207472616e73666572455243313135353a2073657474696e6720617070726f76616c2073746174757320666f722073656c66455243313135353a206163636f756e747320616e6420696473206c656e677468206d69736d61746368455243313135353a2069647320616e6420616d6f756e7473206c656e677468206d69736d61746368455243313135353a206d696e7420746f20746865207a65726f2061646472657373a26469706673582212204c6b56efe65f7cc4f035740b51a0568e20a75a2fb01cfa1cf15d7daa810e73c164736f6c63430007060033",
  "immutableReferences": {},
  "source": "// SPDX-License-Identifier: MIT\n\npragma solidity 0.7.6;\n\nimport \"./nfts/erc-1155/ERC1155Upgradeable.sol\";\n\ncontract TestERC1155 is ERC1155Upgradeable {\n    function mint(address account, uint256 id, uint256 amount, bytes memory data) external {\n        _mint(account, id, amount, data);\n    }\n}\n",
  "sourcePath": "/Volumes/Data/MetaSalt/smart_contracts/market/contracts/test/TestERC1155..sol",
  "compiler": {
    "name": "solc",
    "version": "0.7.6+commit.7338295f.Emscripten.clang"
  },
  "schemaVersion": "3.4.5",
  "updatedAt": "2022-10-25T04:56:34.542Z",
  "devdoc": {
    "kind": "dev",
    "methods": {
      "balanceOf(address,uint256)": {
        "details": "See {IERC1155-balanceOf}. Requirements: - `account` cannot be the zero address."
      },
      "balanceOfBatch(address[],uint256[])": {
        "details": "See {IERC1155-balanceOfBatch}. Requirements: - `accounts` and `ids` must have the same length."
      },
      "isApprovedForAll(address,address)": {
        "details": "See {IERC1155-isApprovedForAll}."
      },
      "safeBatchTransferFrom(address,address,uint256[],uint256[],bytes)": {
        "details": "See {IERC1155-safeBatchTransferFrom}."
      },
      "safeTransferFrom(address,address,uint256,uint256,bytes)": {
        "details": "See {IERC1155-safeTransferFrom}."
      },
      "setApprovalForAll(address,bool)": {
        "details": "See {IERC1155-setApprovalForAll}."
      },
      "supportsInterface(bytes4)": {
        "details": "See {IERC165-supportsInterface}. Time complexity O(1), guaranteed to always use less than 30 000 gas."
      },
      "uri(uint256)": {
        "details": "See {IERC1155MetadataURI-uri}. This implementation returns the same URI for *all* token types. It relies on the token type ID substitution mechanism https://eips.ethereum.org/EIPS/eip-1155#metadata[defined in the EIP]. Clients calling this function must replace the `\\{id\\}` substring with the actual token type ID."
      }
    },
    "version": 1
  },
  "userdoc": {
    "kind": "user",
    "methods": {},
    "version": 1
  }
}