{
  "contractName": "MetaSaltAuth",
  "abi": [
    {
      "anonymous": false,
      "inputs": [
        {
          "indexed": true,
          "internalType": "address",
          "name": "previousOwner",
          "type": "address"
        },
        {
          "indexed": true,
          "internalType": "address",
          "name": "newOwner",
          "type": "address"
        }
      ],
      "name": "OwnershipTransferred",
      "type": "event"
    },
    {
      "anonymous": false,
      "inputs": [
        {
          "indexed": false,
          "internalType": "address",
          "name": "account",
          "type": "address"
        }
      ],
      "name": "Paused",
      "type": "event"
    },
    {
      "anonymous": false,
      "inputs": [
        {
          "indexed": false,
          "internalType": "address",
          "name": "account",
          "type": "address"
        }
      ],
      "name": "Unpaused",
      "type": "event"
    },
    {
      "inputs": [],
      "name": "owner",
      "outputs": [
        {
          "internalType": "address",
          "name": "",
          "type": "address"
        }
      ],
      "stateMutability": "view",
      "type": "function",
      "constant": true
    },
    {
      "inputs": [],
      "name": "paused",
      "outputs": [
        {
          "internalType": "bool",
          "name": "",
          "type": "bool"
        }
      ],
      "stateMutability": "view",
      "type": "function",
      "constant": true
    },
    {
      "inputs": [],
      "name": "renounceOwnership",
      "outputs": [],
      "stateMutability": "nonpayable",
      "type": "function"
    },
    {
      "inputs": [
        {
          "internalType": "address",
          "name": "newOwner",
          "type": "address"
        }
      ],
      "name": "transferOwnership",
      "outputs": [],
      "stateMutability": "nonpayable",
      "type": "function"
    },
    {
      "inputs": [
        {
          "internalType": "address",
          "name": "MetaSaltERC20",
          "type": "address"
        },
        {
          "internalType": "uint256",
          "name": "RequestPrice",
          "type": "uint256"
        }
      ],
      "name": "__MetaSaltAuth_init",
      "outputs": [],
      "stateMutability": "nonpayable",
      "type": "function"
    },
    {
      "inputs": [
        {
          "internalType": "address",
          "name": "to",
          "type": "address"
        }
      ],
      "name": "WithdrawBalance",
      "outputs": [],
      "stateMutability": "nonpayable",
      "type": "function"
    },
    {
      "inputs": [
        {
          "internalType": "address",
          "name": "_tokenAddress",
          "type": "address"
        }
      ],
      "name": "SetPaymentToken",
      "outputs": [],
      "stateMutability": "nonpayable",
      "type": "function"
    },
    {
      "inputs": [
        {
          "internalType": "uint256",
          "name": "_price",
          "type": "uint256"
        }
      ],
      "name": "SetRequestPrice",
      "outputs": [],
      "stateMutability": "nonpayable",
      "type": "function"
    }
  ],
  "bytecode": "0x608060405234801561001057600080fd5b50610a11806100206000396000f3fe608060405234801561001057600080fd5b50600436106100885760003560e01c8063ae83d0db1161005b578063ae83d0db146100dd578063cdf4cd95146100f0578063ecb37ef314610103578063f2fde38b1461011657610088565b80635c975abb1461008d578063715018a6146100ab57806374db4f7e146100b55780638da5cb5b146100c8575b600080fd5b610095610129565b6040516100a2919061095c565b60405180910390f35b6100b3610132565b005b6100b36100c33660046108f4565b6101de565b6100d0610245565b6040516100a29190610924565b6100b36100eb36600461088a565b610254565b6100b36100fe3660046108ab565b6103b6565b6100b361011136600461088a565b610482565b6100b361012436600461088a565b610506565b60975460ff1690565b61013a610609565b6001600160a01b031661014b610245565b6001600160a01b031614610194576040805162461bcd60e51b815260206004820181905260248201526000805160206109bc833981519152604482015290519081900360640190fd5b6033546040516000916001600160a01b0316907f8be0079c531659141344cd1fd0a4f28419497f9722a3daafe3b4186f6b6457e0908390a3603380546001600160a01b0319169055565b6101e6610609565b6001600160a01b03166101f7610245565b6001600160a01b031614610240576040805162461bcd60e51b815260206004820181905260248201526000805160206109bc833981519152604482015290519081900360640190fd5b60ca55565b6033546001600160a01b031690565b61025c610609565b6001600160a01b031661026d610245565b6001600160a01b0316146102b6576040805162461bcd60e51b815260206004820181905260248201526000805160206109bc833981519152604482015290519081900360640190fd5b60c9546040516370a0823160e01b81526001600160a01b03909116906323b872dd903090849084906370a08231906102f2908590600401610924565b60206040518083038186803b15801561030a57600080fd5b505afa15801561031e573d6000803e3d6000fd5b505050506040513d601f19601f82011682018060405250810190610342919061090c565b6040518463ffffffff1660e01b815260040161036093929190610938565b602060405180830381600087803b15801561037a57600080fd5b505af115801561038e573d6000803e3d6000fd5b505050506040513d601f19601f820116820180604052508101906103b291906108d4565b5050565b600054610100900460ff16806103cf57506103cf61060d565b806103dd575060005460ff16155b6104185760405162461bcd60e51b815260040180806020018281038252602e81526020018061098e602e913960400191505060405180910390fd5b600054610100900460ff16158015610443576000805460ff1961ff0019909116610100171660011790555b61044b61061e565b60c980546001600160a01b0319166001600160a01b03851617905560ca829055801561047d576000805461ff00191690555b505050565b61048a610609565b6001600160a01b031661049b610245565b6001600160a01b0316146104e4576040805162461bcd60e51b815260206004820181905260248201526000805160206109bc833981519152604482015290519081900360640190fd5b60c980546001600160a01b0319166001600160a01b0392909216919091179055565b61050e610609565b6001600160a01b031661051f610245565b6001600160a01b031614610568576040805162461bcd60e51b815260206004820181905260248201526000805160206109bc833981519152604482015290519081900360640190fd5b6001600160a01b0381166105ad5760405162461bcd60e51b81526004018080602001828103825260268152602001806109686026913960400191505060405180910390fd5b6033546040516001600160a01b038084169216907f8be0079c531659141344cd1fd0a4f28419497f9722a3daafe3b4186f6b6457e090600090a3603380546001600160a01b0319166001600160a01b0392909216919091179055565b3390565b6000610618306106d0565b15905090565b600054610100900460ff1680610637575061063761060d565b80610645575060005460ff16155b6106805760405162461bcd60e51b815260040180806020018281038252602e81526020018061098e602e913960400191505060405180910390fd5b600054610100900460ff161580156106ab576000805460ff1961ff0019909116610100171660011790555b6106b36106da565b6106bb61077a565b80156106cd576000805461ff00191690555b50565b803b15155b919050565b600054610100900460ff16806106f357506106f361060d565b80610701575060005460ff16155b61073c5760405162461bcd60e51b815260040180806020018281038252602e81526020018061098e602e913960400191505060405180910390fd5b600054610100900460ff161580156106bb576000805460ff1961ff00199091166101001716600117905580156106cd576000805461ff001916905550565b600054610100900460ff1680610793575061079361060d565b806107a1575060005460ff16155b6107dc5760405162461bcd60e51b815260040180806020018281038252602e81526020018061098e602e913960400191505060405180910390fd5b600054610100900460ff16158015610807576000805460ff1961ff0019909116610100171660011790555b6000610811610609565b603380546001600160a01b0319166001600160a01b038316908117909155604051919250906000907f8be0079c531659141344cd1fd0a4f28419497f9722a3daafe3b4186f6b6457e0908290a35080156106cd576000805461ff001916905550565b80356001600160a01b03811681146106d557600080fd5b60006020828403121561089b578081fd5b6108a482610873565b9392505050565b600080604083850312156108bd578081fd5b6108c683610873565b946020939093013593505050565b6000602082840312156108e5578081fd5b815180151581146108a4578182fd5b600060208284031215610905578081fd5b5035919050565b60006020828403121561091d578081fd5b5051919050565b6001600160a01b0391909116815260200190565b6001600160a01b039384168152919092166020820152604081019190915260600190565b90151581526020019056fe4f776e61626c653a206e6577206f776e657220697320746865207a65726f2061646472657373496e697469616c697a61626c653a20636f6e747261637420697320616c726561647920696e697469616c697a65644f776e61626c653a2063616c6c6572206973206e6f7420746865206f776e6572a2646970667358221220a5f3f05c8c0b9475febd887e06d0c7b419f88eec7061eb58316a0f20e77f07ac64736f6c63430007060033",
  "immutableReferences": {},
  "source": "// SPDX-License-Identifier: MIT\npragma solidity 0.7.6;\npragma abicoder v2;\nimport \"@openzeppelin/contracts-upgradeable/proxy/Initializable.sol\";\nimport \"@openzeppelin/contracts-upgradeable/utils/ReentrancyGuardUpgradeable.sol\";\nimport \"@openzeppelin/contracts-upgradeable/utils/PausableUpgradeable.sol\";\nimport \"@openzeppelin/contracts-upgradeable/access/OwnableUpgradeable.sol\";\nimport \"@openzeppelin/contracts-upgradeable/token/ERC20/IERC20Upgradeable.sol\";\n\n\ncontract MetaSaltAuth is Initializable, OwnableUpgradeable, ReentrancyGuardUpgradeable, PausableUpgradeable {\n\n    IERC20Upgradeable private token;\n    uint256 private price;\n\n    function __MetaSaltAuth_init(address MetaSaltERC20, uint256 RequestPrice) external initializer {\n        __Ownable_init();\n        token = IERC20Upgradeable(MetaSaltERC20);\n        price = RequestPrice;\n    }\n\n    function WithdrawBalance(address to) external onlyOwner{\n        token.transferFrom(address(this), to, token.balanceOf(address(this)));\n    }\n\n    function SetPaymentToken(address _tokenAddress) external onlyOwner{\n        token = IERC20Upgradeable(_tokenAddress);\n    }\n\n    function SetRequestPrice(uint256 _price) external onlyOwner{\n       price = _price;\n    }\n\n    uint256[50] private __gap;\n}",
  "sourcePath": "/Volumes/Data/MetaSalt/smart_contracts/authentication/contracts/authentication.sol",
  "compiler": {
    "name": "solc",
    "version": "0.7.6+commit.7338295f.Emscripten.clang"
  },
  "schemaVersion": "3.4.5",
  "updatedAt": "2022-06-01T16:40:14.531Z",
  "networkType": "ethereum",
  "devdoc": {
    "kind": "dev",
    "methods": {
      "owner()": {
        "details": "Returns the address of the current owner."
      },
      "paused()": {
        "details": "Returns true if the contract is paused, and false otherwise."
      },
      "renounceOwnership()": {
        "details": "Leaves the contract without owner. It will not be possible to call `onlyOwner` functions anymore. Can only be called by the current owner. NOTE: Renouncing ownership will leave the contract without an owner, thereby removing any functionality that is only available to the owner."
      },
      "transferOwnership(address)": {
        "details": "Transfers ownership of the contract to a new account (`newOwner`). Can only be called by the current owner."
      }
    },
    "version": 1
  },
  "userdoc": {
    "kind": "user",
    "methods": {},
    "version": 1
  }
}