{
  "contractName": "ERC1155MetaSalt",
  "abi": [
    {
      "anonymous": false,
      "inputs": [
        {
          "indexed": true,
          "internalType": "address",
          "name": "account",
          "type": "address"
        },
        {
          "indexed": true,
          "internalType": "address",
          "name": "operator",
          "type": "address"
        },
        {
          "indexed": false,
          "internalType": "bool",
          "name": "approved",
          "type": "bool"
        }
      ],
      "name": "ApprovalForAll",
      "type": "event"
    },
    {
      "anonymous": false,
      "inputs": [
        {
          "indexed": true,
          "internalType": "address",
          "name": "operator",
          "type": "address"
        },
        {
          "indexed": true,
          "internalType": "address",
          "name": "account",
          "type": "address"
        },
        {
          "indexed": false,
          "internalType": "uint256",
          "name": "id",
          "type": "uint256"
        },
        {
          "indexed": false,
          "internalType": "uint256",
          "name": "amount",
          "type": "uint256"
        }
      ],
      "name": "BurnLazy",
      "type": "event"
    },
    {
      "anonymous": false,
      "inputs": [
        {
          "indexed": true,
          "internalType": "address",
          "name": "operator",
          "type": "address"
        },
        {
          "indexed": true,
          "internalType": "address",
          "name": "account",
          "type": "address"
        },
        {
          "indexed": false,
          "internalType": "uint256[]",
          "name": "ids",
          "type": "uint256[]"
        },
        {
          "indexed": false,
          "internalType": "uint256[]",
          "name": "amounts",
          "type": "uint256[]"
        }
      ],
      "name": "BurnLazyBatch",
      "type": "event"
    },
    {
      "anonymous": false,
      "inputs": [
        {
          "indexed": false,
          "internalType": "uint256",
          "name": "tokenId",
          "type": "uint256"
        },
        {
          "indexed": false,
          "internalType": "address",
          "name": "creator",
          "type": "address"
        }
      ],
      "name": "Creator",
      "type": "event"
    },
    {
      "anonymous": false,
      "inputs": [
        {
          "indexed": true,
          "internalType": "address",
          "name": "operator",
          "type": "address"
        },
        {
          "indexed": false,
          "internalType": "bool",
          "name": "hasApproval",
          "type": "bool"
        }
      ],
      "name": "DefaultApproval",
      "type": "event"
    },
    {
      "anonymous": false,
      "inputs": [
        {
          "indexed": true,
          "internalType": "address",
          "name": "previousOwner",
          "type": "address"
        },
        {
          "indexed": true,
          "internalType": "address",
          "name": "newOwner",
          "type": "address"
        }
      ],
      "name": "OwnershipTransferred",
      "type": "event"
    },
    {
      "anonymous": false,
      "inputs": [
        {
          "indexed": false,
          "internalType": "uint256",
          "name": "tokenId",
          "type": "uint256"
        },
        {
          "indexed": false,
          "internalType": "uint256",
          "name": "value",
          "type": "uint256"
        }
      ],
      "name": "Supply",
      "type": "event"
    },
    {
      "anonymous": false,
      "inputs": [
        {
          "indexed": true,
          "internalType": "address",
          "name": "operator",
          "type": "address"
        },
        {
          "indexed": true,
          "internalType": "address",
          "name": "from",
          "type": "address"
        },
        {
          "indexed": true,
          "internalType": "address",
          "name": "to",
          "type": "address"
        },
        {
          "indexed": false,
          "internalType": "uint256[]",
          "name": "ids",
          "type": "uint256[]"
        },
        {
          "indexed": false,
          "internalType": "uint256[]",
          "name": "values",
          "type": "uint256[]"
        }
      ],
      "name": "TransferBatch",
      "type": "event"
    },
    {
      "anonymous": false,
      "inputs": [
        {
          "indexed": true,
          "internalType": "address",
          "name": "operator",
          "type": "address"
        },
        {
          "indexed": true,
          "internalType": "address",
          "name": "from",
          "type": "address"
        },
        {
          "indexed": true,
          "internalType": "address",
          "name": "to",
          "type": "address"
        },
        {
          "indexed": false,
          "internalType": "uint256",
          "name": "id",
          "type": "uint256"
        },
        {
          "indexed": false,
          "internalType": "uint256",
          "name": "value",
          "type": "uint256"
        }
      ],
      "name": "TransferSingle",
      "type": "event"
    },
    {
      "anonymous": false,
      "inputs": [
        {
          "indexed": false,
          "internalType": "string",
          "name": "value",
          "type": "string"
        },
        {
          "indexed": true,
          "internalType": "uint256",
          "name": "id",
          "type": "uint256"
        }
      ],
      "name": "URI",
      "type": "event"
    },
    {
      "inputs": [],
      "name": "MetasaltTokenCreateRewardValue",
      "outputs": [
        {
          "internalType": "uint256",
          "name": "",
          "type": "uint256"
        }
      ],
      "stateMutability": "view",
      "type": "function"
    },
    {
      "inputs": [
        {
          "internalType": "address",
          "name": "account",
          "type": "address"
        },
        {
          "internalType": "uint256",
          "name": "id",
          "type": "uint256"
        }
      ],
      "name": "balanceOf",
      "outputs": [
        {
          "internalType": "uint256",
          "name": "",
          "type": "uint256"
        }
      ],
      "stateMutability": "view",
      "type": "function"
    },
    {
      "inputs": [
        {
          "internalType": "address[]",
          "name": "accounts",
          "type": "address[]"
        },
        {
          "internalType": "uint256[]",
          "name": "ids",
          "type": "uint256[]"
        }
      ],
      "name": "balanceOfBatch",
      "outputs": [
        {
          "internalType": "uint256[]",
          "name": "",
          "type": "uint256[]"
        }
      ],
      "stateMutability": "view",
      "type": "function"
    },
    {
      "inputs": [],
      "name": "baseURI",
      "outputs": [
        {
          "internalType": "string",
          "name": "",
          "type": "string"
        }
      ],
      "stateMutability": "view",
      "type": "function"
    },
    {
      "inputs": [
        {
          "internalType": "address",
          "name": "account",
          "type": "address"
        },
        {
          "internalType": "uint256",
          "name": "id",
          "type": "uint256"
        },
        {
          "internalType": "uint256",
          "name": "amount",
          "type": "uint256"
        }
      ],
      "name": "burn",
      "outputs": [],
      "stateMutability": "nonpayable",
      "type": "function"
    },
    {
      "inputs": [
        {
          "internalType": "address",
          "name": "account",
          "type": "address"
        },
        {
          "internalType": "uint256[]",
          "name": "ids",
          "type": "uint256[]"
        },
        {
          "internalType": "uint256[]",
          "name": "amounts",
          "type": "uint256[]"
        }
      ],
      "name": "burnBatch",
      "outputs": [],
      "stateMutability": "nonpayable",
      "type": "function"
    },
    {
      "inputs": [
        {
          "internalType": "uint256",
          "name": "",
          "type": "uint256"
        }
      ],
      "name": "creators",
      "outputs": [
        {
          "internalType": "address",
          "name": "",
          "type": "address"
        }
      ],
      "stateMutability": "view",
      "type": "function"
    },
    {
      "inputs": [
        {
          "internalType": "uint256",
          "name": "_id",
          "type": "uint256"
        }
      ],
      "name": "getCreator",
      "outputs": [
        {
          "internalType": "address",
          "name": "",
          "type": "address"
        }
      ],
      "stateMutability": "view",
      "type": "function"
    },
    {
      "inputs": [
        {
          "internalType": "address",
          "name": "_owner",
          "type": "address"
        },
        {
          "internalType": "address",
          "name": "_operator",
          "type": "address"
        }
      ],
      "name": "isApprovedForAll",
      "outputs": [
        {
          "internalType": "bool",
          "name": "",
          "type": "bool"
        }
      ],
      "stateMutability": "view",
      "type": "function"
    },
    {
      "inputs": [],
      "name": "metasaltToken",
      "outputs": [
        {
          "internalType": "address",
          "name": "",
          "type": "address"
        }
      ],
      "stateMutability": "view",
      "type": "function"
    },
    {
      "inputs": [
        {
          "components": [
            {
              "internalType": "uint256",
              "name": "tokenId",
              "type": "uint256"
            },
            {
              "internalType": "string",
              "name": "tokenURI",
              "type": "string"
            },
            {
              "internalType": "uint256",
              "name": "supply",
              "type": "uint256"
            },
            {
              "internalType": "address",
              "name": "creator",
              "type": "address"
            },
            {
              "internalType": "uint256",
              "name": "royaltyFee",
              "type": "uint256"
            },
            {
              "internalType": "bytes",
              "name": "signature",
              "type": "bytes"
            }
          ],
          "internalType": "struct LibERC1155LazyMint.Mint1155Data",
          "name": "data",
          "type": "tuple"
        },
        {
          "internalType": "address",
          "name": "to",
          "type": "address"
        },
        {
          "internalType": "uint256",
          "name": "_amount",
          "type": "uint256"
        }
      ],
      "name": "mintAndTransfer",
      "outputs": [],
      "stateMutability": "nonpayable",
      "type": "function"
    },
    {
      "inputs": [
        {
          "components": [
            {
              "internalType": "uint256",
              "name": "tokenId",
              "type": "uint256"
            },
            {
              "internalType": "string",
              "name": "tokenURI",
              "type": "string"
            },
            {
              "internalType": "uint256",
              "name": "supply",
              "type": "uint256"
            },
            {
              "internalType": "address",
              "name": "creator",
              "type": "address"
            },
            {
              "internalType": "uint256",
              "name": "royaltyFee",
              "type": "uint256"
            },
            {
              "internalType": "bytes",
              "name": "signature",
              "type": "bytes"
            }
          ],
          "internalType": "struct LibERC1155LazyMint.Mint1155Data",
          "name": "data",
          "type": "tuple"
        },
        {
          "internalType": "address",
          "name": "to",
          "type": "address"
        },
        {
          "internalType": "uint256",
          "name": "_amount",
          "type": "uint256"
        }
      ],
      "name": "mintAndTransferTest",
      "outputs": [],
      "stateMutability": "nonpayable",
      "type": "function"
    },
    {
      "inputs": [],
      "name": "name",
      "outputs": [
        {
          "internalType": "string",
          "name": "",
          "type": "string"
        }
      ],
      "stateMutability": "view",
      "type": "function"
    },
    {
      "inputs": [],
      "name": "owner",
      "outputs": [
        {
          "internalType": "address",
          "name": "",
          "type": "address"
        }
      ],
      "stateMutability": "view",
      "type": "function"
    },
    {
      "inputs": [],
      "name": "renounceOwnership",
      "outputs": [],
      "stateMutability": "nonpayable",
      "type": "function"
    },
    {
      "inputs": [
        {
          "internalType": "uint256",
          "name": "",
          "type": "uint256"
        }
      ],
      "name": "royaltyFees",
      "outputs": [
        {
          "internalType": "uint256",
          "name": "",
          "type": "uint256"
        }
      ],
      "stateMutability": "view",
      "type": "function"
    },
    {
      "inputs": [
        {
          "internalType": "address",
          "name": "from",
          "type": "address"
        },
        {
          "internalType": "address",
          "name": "to",
          "type": "address"
        },
        {
          "internalType": "uint256[]",
          "name": "ids",
          "type": "uint256[]"
        },
        {
          "internalType": "uint256[]",
          "name": "amounts",
          "type": "uint256[]"
        },
        {
          "internalType": "bytes",
          "name": "data",
          "type": "bytes"
        }
      ],
      "name": "safeBatchTransferFrom",
      "outputs": [],
      "stateMutability": "nonpayable",
      "type": "function"
    },
    {
      "inputs": [
        {
          "internalType": "address",
          "name": "from",
          "type": "address"
        },
        {
          "internalType": "address",
          "name": "to",
          "type": "address"
        },
        {
          "internalType": "uint256",
          "name": "id",
          "type": "uint256"
        },
        {
          "internalType": "uint256",
          "name": "amount",
          "type": "uint256"
        },
        {
          "internalType": "bytes",
          "name": "data",
          "type": "bytes"
        }
      ],
      "name": "safeTransferFrom",
      "outputs": [],
      "stateMutability": "nonpayable",
      "type": "function"
    },
    {
      "inputs": [
        {
          "internalType": "address",
          "name": "operator",
          "type": "address"
        },
        {
          "internalType": "bool",
          "name": "approved",
          "type": "bool"
        }
      ],
      "name": "setApprovalForAll",
      "outputs": [],
      "stateMutability": "nonpayable",
      "type": "function"
    },
    {
      "inputs": [
        {
          "internalType": "address",
          "name": "_metaSaltToken",
          "type": "address"
        }
      ],
      "name": "setMetaSaltToken",
      "outputs": [],
      "stateMutability": "nonpayable",
      "type": "function"
    },
    {
      "inputs": [
        {
          "internalType": "bytes4",
          "name": "interfaceId",
          "type": "bytes4"
        }
      ],
      "name": "supportsInterface",
      "outputs": [
        {
          "internalType": "bool",
          "name": "",
          "type": "bool"
        }
      ],
      "stateMutability": "view",
      "type": "function"
    },
    {
      "inputs": [],
      "name": "symbol",
      "outputs": [
        {
          "internalType": "string",
          "name": "",
          "type": "string"
        }
      ],
      "stateMutability": "view",
      "type": "function"
    },
    {
      "inputs": [
        {
          "components": [
            {
              "internalType": "uint256",
              "name": "tokenId",
              "type": "uint256"
            },
            {
              "internalType": "string",
              "name": "tokenURI",
              "type": "string"
            },
            {
              "internalType": "uint256",
              "name": "supply",
              "type": "uint256"
            },
            {
              "internalType": "address",
              "name": "creator",
              "type": "address"
            },
            {
              "internalType": "uint256",
              "name": "royaltyFee",
              "type": "uint256"
            },
            {
              "internalType": "bytes",
              "name": "signature",
              "type": "bytes"
            }
          ],
          "internalType": "struct LibERC1155LazyMint.Mint1155Data",
          "name": "data",
          "type": "tuple"
        },
        {
          "internalType": "address",
          "name": "from",
          "type": "address"
        },
        {
          "internalType": "address",
          "name": "to",
          "type": "address"
        },
        {
          "internalType": "uint256",
          "name": "amount",
          "type": "uint256"
        }
      ],
      "name": "transferFromOrMint",
      "outputs": [],
      "stateMutability": "nonpayable",
      "type": "function"
    },
    {
      "inputs": [
        {
          "internalType": "address",
          "name": "newOwner",
          "type": "address"
        }
      ],
      "name": "transferOwnership",
      "outputs": [],
      "stateMutability": "nonpayable",
      "type": "function"
    },
    {
      "inputs": [
        {
          "internalType": "uint256",
          "name": "id",
          "type": "uint256"
        }
      ],
      "name": "uri",
      "outputs": [
        {
          "internalType": "string",
          "name": "",
          "type": "string"
        }
      ],
      "stateMutability": "view",
      "type": "function"
    },
    {
      "inputs": [
        {
          "internalType": "string",
          "name": "_name",
          "type": "string"
        },
        {
          "internalType": "string",
          "name": "_symbol",
          "type": "string"
        },
        {
          "internalType": "string",
          "name": "baseURI",
          "type": "string"
        },
        {
          "internalType": "address",
          "name": "_erc20Token",
          "type": "address"
        },
        {
          "internalType": "uint256",
          "name": "_erc20CreateRewardValue",
          "type": "uint256"
        }
      ],
      "name": "__ERC1155MetaSalt_init",
      "outputs": [],
      "stateMutability": "nonpayable",
      "type": "function"
    }
  ],
  "bytecode": "0x608060405234801561001057600080fd5b5061414e806100206000396000f3fe608060405234801561001057600080fd5b506004361061018d5760003560e01c8063a22cb465116100de578063d48e638a11610097578063f242432a11610071578063f242432a14610320578063f2fde38b14610333578063f5298aca14610346578063f8786f0f146103595761018d565b8063d48e638a146102fa578063e75080a1146102ae578063e985e9c51461030d5761018d565b8063a22cb46514610293578063ad3d7b7a146102a6578063cbb9f662146102ae578063ccecc809146102c1578063cd53d08e146102d4578063cecfea1b146102e75761018d565b80634e1273f41161014b5780636c0360eb116101255780636c0360eb14610266578063715018a61461026e5780638da5cb5b1461027657806395d89b411461028b5761018d565b80634e1273f41461022057806361aa8b00146102405780636b20c454146102535761018d565b8062fdd58e1461019257806301ffc9a7146101bb57806306fdde03146101db5780630e89341c146101f05780632eb2c2d6146102035780634af8bd2214610218575b600080fd5b6101a56101a03660046137dc565b61036c565b6040516101b29190613d35565b60405180910390f35b6101ce6101c93660046138f4565b6103de565b6040516101b29190613b26565b6101e36103f1565b6040516101b29190613b31565b6101e36101fe366004613a6f565b610480565b61021661021136600461362b565b61048b565b005b6101a5610789565b61023361022e366004613837565b610790565b6040516101b29190613aee565b6101a561024e366004613a6f565b61087b565b610216610261366004613732565b61088e565b6101e3610a1d565b610216610ab4565b61027e610b74565b6040516101b29190613ac1565b6101e3610b84565b6102166102a13660046137a2565b610be0565b61027e610ccf565b6102166102bc366004613a1b565b610cdf565b6102166102cf3660046135df565b610fce565b61027e6102e2366004613a6f565b611065565b6102166102f536600461391c565b611081565b61027e610308366004613a6f565b611134565b6101ce61031b3660046135f9565b611150565b61021661032e3660046136d0565b611163565b6102166103413660046135df565b61131c565b610216610354366004613805565b611433565b6102166103673660046139b8565b6114a8565b60006001600160a01b0383166103b35760405162461bcd60e51b815260040180806020018281038252602b815260200180613eca602b913960400191505060405180910390fd5b5060008181526065602090815260408083206001600160a01b03861684529091529020545b92915050565b60006103e982611503565b90505b919050565b610232805460408051602060026001851615610100026000190190941693909304601f810184900484028201840190925281815292918301828280156104785780601f1061044d57610100808354040283529160200191610478565b820191906000526020600020905b81548152906001019060200180831161045b57829003601f168201915b505050505081565b60606103e98261156c565b81518351146104cb5760405162461bcd60e51b81526004018080602001828103825260288152602001806140f16028913960400191505060405180910390fd5b6001600160a01b0384166105105760405162461bcd60e51b8152600401808060200182810382526025815260200180613f8a6025913960400191505060405180910390fd5b610518611701565b6001600160a01b0316856001600160a01b0316148061053e575061053e8561031b611701565b6105795760405162461bcd60e51b8152600401808060200182810382526032815260200180613faf6032913960400191505060405180910390fd5b6000610583611701565b9050610593818787878787610781565b60005b84518110156106995760008582815181106105ad57fe5b6020026020010151905060008583815181106105c557fe5b60200260200101519050610632816040518060600160405280602a8152602001614075602a91396065600086815260200190815260200160002060008d6001600160a01b03166001600160a01b03168152602001908152602001600020546117059092919063ffffffff16565b60008381526065602090815260408083206001600160a01b038e811685529252808320939093558a1681522054610669908261179c565b60009283526065602090815260408085206001600160a01b038c1686529091529092209190915550600101610596565b50846001600160a01b0316866001600160a01b0316826001600160a01b03167f4a39dc06d4c0dbc64b70af90fd698a233a518aa5d07e595d983b8c0526c8f7fb8787604051808060200180602001838103835285818151815260200191508051906020019060200280838360005b8381101561071f578181015183820152602001610707565b50505050905001838103825284818151815260200191508051906020019060200280838360005b8381101561075e578181015183820152602001610746565b5050505090500194505050505060405180910390a46107818187878787876117f6565b505050505050565b6101ff5481565b606081518351146107d25760405162461bcd60e51b81526004018080602001828103825260298152602001806140c86029913960400191505060405180910390fd5b600083516001600160401b03811180156107eb57600080fd5b50604051908082528060200260200182016040528015610815578160200160208202803683370190505b50905060005b84518110156108735761085485828151811061083357fe5b602002602001015185838151811061084757fe5b602002602001015161036c565b82828151811061086057fe5b602090810291909101015260010161081b565b509392505050565b6101fb6020526000908152604090205481565b80518251146108b85760405162461bcd60e51b81526004016108af90613cac565b60405180910390fd5b600082516001600160401b03811180156108d157600080fd5b506040519080825280602002602001820160405280156108fb578160200160208202803683370190505b509050600083516001600160401b038111801561091757600080fd5b50604051908082528060200260200182016040528015610941578160200160208202803683370190505b50905060005b84518110156109b65761098085828151811061095f57fe5b602002602001015185838151811061097357fe5b6020026020010151611a75565b84838151811061098c57fe5b6020026020010184848151811061099f57fe5b602090810291909101019190915252600101610947565b506109c2858584611aea565b846001600160a01b03166109d4611701565b6001600160a01b03167fcf3391513e21a9d4a0348f8e890080170eba18dc62db35b60d8a518b7088eb3a8684604051610a0e929190613b01565b60405180910390a35050505050565b60988054604080516020601f6002600019610100600188161502019095169490940493840181900481028201810190925282815260609390929091830182828015610aa95780601f10610a7e57610100808354040283529160200191610aa9565b820191906000526020600020905b815481529060010190602001808311610a8c57829003601f168201915b505050505090505b90565b610abc611701565b6001600160a01b0316610acd610b74565b6001600160a01b031614610b28576040805162461bcd60e51b815260206004820181905260248201527f4f776e61626c653a2063616c6c6572206973206e6f7420746865206f776e6572604482015290519081900360640190fd5b610163546040516000916001600160a01b0316907f8be0079c531659141344cd1fd0a4f28419497f9722a3daafe3b4186f6b6457e0908390a361016380546001600160a01b0319169055565b610163546001600160a01b031690565b610233805460408051602060026001851615610100026000190190941693909304601f810184900484028201840190925281815292918301828280156104785780601f1061044d57610100808354040283529160200191610478565b816001600160a01b0316610bf2611701565b6001600160a01b03161415610c385760405162461bcd60e51b815260040180806020018281038252602981526020018061409f6029913960400191505060405180910390fd5b8060666000610c45611701565b6001600160a01b03908116825260208083019390935260409182016000908120918716808252919093529120805460ff191692151592909217909155610c89611701565b6001600160a01b03167f17307eab39ab6107e8899845ad3d59bd9653f200f220920489ca2b5937696c318360405180821515815260200191505060405180910390a35050565b6101fe546001600160a01b031681565b825160601c6000610cee611701565b9050806001600160a01b0316826001600160a01b03161480610d155750610d158282611150565b610d315760405162461bcd60e51b81526004016108af90613c03565b60008311610d515760405162461bcd60e51b81526004016108af90613bd9565b845160009081526101fc6020526040902054610eac5784606001516001600160a01b0316826001600160a01b031614610d9c5760405162461bcd60e51b81526004016108af90613bae565b6000856040015111610dc05760405162461bcd60e51b81526004016108af90613b84565b60608501516001600160a01b0380821690831614610df6576000610de387611b63565b9050610df482828960a00151611bee565b505b610e0886600001518760400151611bf9565b610e1a86600001518760800151611c63565b610e2c86600001518760600151611c76565b610e3e86600001518760200151611ccd565b6101fe5460608701516101ff546040516349ac068160e11b81526001600160a01b03909316926393580d0292610e78929091600401613ad5565b600060405180830381600087803b158015610e9257600080fd5b505af1158015610ea6573d6000803e3d6000fd5b50505050505b610ecb8486600001518560405180602001604052806000815250611d90565b836001600160a01b0316826001600160a01b031614610f7c57816001600160a01b031660006001600160a01b0316826001600160a01b0316600080516020613eaa833981519152886000015187604051610f26929190613d55565b60405180910390a4836001600160a01b0316826001600160a01b0316826001600160a01b0316600080516020613eaa833981519152886000015187604051610f6f929190613d55565b60405180910390a4610fc7565b836001600160a01b031660006001600160a01b0316826001600160a01b0316600080516020613eaa833981519152886000015187604051610fbe929190613d55565b60405180910390a45b5050505050565b610fd6611701565b6001600160a01b0316610fe7610b74565b6001600160a01b031614611042576040805162461bcd60e51b815260206004820181905260248201527f4f776e61626c653a2063616c6c6572206973206e6f7420746865206f776e6572604482015290519081900360640190fd5b6101fe80546001600160a01b0319166001600160a01b0392909216919091179055565b6101fa602052600090815260409020546001600160a01b031681565b600054610100900460ff168061109a575061109a611da2565b806110a8575060005460ff16155b6110e35760405162461bcd60e51b815260040180806020018281038252602e815260200180613fe1602e913960400191505060405180910390fd5b600054610100900460ff1615801561110e576000805460ff1961ff0019909116610100171660011790555b61111b8686868686611db3565b8015610781576000805461ff0019169055505050505050565b60009081526101fa60205260409020546001600160a01b031690565b600061115c8383611e10565b9392505050565b6001600160a01b0384166111a85760405162461bcd60e51b8152600401808060200182810382526025815260200180613f8a6025913960400191505060405180910390fd5b6111b0611701565b6001600160a01b0316856001600160a01b031614806111d657506111d68561031b611701565b6112115760405162461bcd60e51b8152600401808060200182810382526029815260200180613f3f6029913960400191505060405180910390fd5b600061121b611701565b905061123b81878761122c88611e3d565b61123588611e3d565b87610781565b611282836040518060600160405280602a8152602001614075602a913960008781526065602090815260408083206001600160a01b038d1684529091529020549190611705565b60008581526065602090815260408083206001600160a01b038b811685529252808320939093558716815220546112b9908461179c565b60008581526065602090815260408083206001600160a01b03808b168086529184529382902094909455805188815291820187905280518a841693861692600080516020613eaa83398151915292908290030190a4610781818787878787611e82565b611324611701565b6001600160a01b0316611335610b74565b6001600160a01b031614611390576040805162461bcd60e51b815260206004820181905260248201527f4f776e61626c653a2063616c6c6572206973206e6f7420746865206f776e6572604482015290519081900360640190fd5b6001600160a01b0381166113d55760405162461bcd60e51b8152600401808060200182810382526026815260200180613ef56026913960400191505060405180910390fd5b610163546040516001600160a01b038084169216907f8be0079c531659141344cd1fd0a4f28419497f9722a3daafe3b4186f6b6457e090600090a361016380546001600160a01b0319166001600160a01b0392909216919091179055565b6000806114408484611a75565b9092509050811561145657611456858584611ff3565b8015610fc757846001600160a01b031661146e611701565b6001600160a01b03167f5110a21391aa55386de41fe7a3e3dffb40132d38d629a113a7f4afff251b1a018684604051610a0e929190613d55565b60006114b884866000015161036c565b90508181156114f25782808310156114cd5750815b6114ed868689600001518460405180602001604052806000815250611163565b830390505b801561078157610781868583610cdf565b60006001600160e01b03198216636db15a0f60e01b148061153457506001600160e01b031982166301ffc9a760e01b145b8061154f57506001600160e01b03198216636cdb3d1360e11b145b806103e95750506001600160e01b0319166303a24d0760e21b1490565b600081815260976020908152604080832080548251601f60026000196101006001861615020190931692909204918201859004850281018501909352808352606094938301828280156116005780601f106115d557610100808354040283529160200191611600565b820191906000526020600020905b8154815290600101906020018083116115e357829003601f168201915b505050505090506000611611610a1d565b9050805160001415611625575090506103ec565b81511561163f576116368183612067565b925050506103ec565b806116498561224c565b6040516020018083805190602001908083835b6020831061167b5780518252601f19909201916020918201910161165c565b51815160209384036101000a600019018019909216911617905285519190930192850191508083835b602083106116c35780518252601f1990920191602091820191016116a4565b6001836020036101000a0380198251168184511680821785525050505050509050019250505060405160208183030381529060405292505050919050565b3390565b600081848411156117945760405162461bcd60e51b81526004018080602001828103825283818151815260200191508051906020019080838360005b83811015611759578181015183820152602001611741565b50505050905090810190601f1680156117865780820380516001836020036101000a031916815260200191505b509250505060405180910390fd5b505050900390565b60008282018381101561115c576040805162461bcd60e51b815260206004820152601b60248201527f536166654d6174683a206164646974696f6e206f766572666c6f770000000000604482015290519081900360640190fd5b611808846001600160a01b0316612326565b1561078157836001600160a01b031663bc197c8187878686866040518663ffffffff1660e01b815260040180866001600160a01b03168152602001856001600160a01b03168152602001806020018060200180602001848103845287818151815260200191508051906020019060200280838360005b8381101561189657818101518382015260200161187e565b50505050905001848103835286818151815260200191508051906020019060200280838360005b838110156118d55781810151838201526020016118bd565b50505050905001848103825285818151815260200191508051906020019080838360005b838110156119115781810151838201526020016118f9565b50505050905090810190601f16801561193e5780820380516001836020036101000a031916815260200191505b5098505050505050505050602060405180830381600087803b15801561196357600080fd5b505af192505050801561198857506040513d602081101561198357600080fd5b505160015b611a1d57611994613da9565b8061199f57506119e6565b60405162461bcd60e51b8152602060048201818152835160248401528351849391928392604401919085019080838360008315611759578181015183820152602001611741565b60405162461bcd60e51b8152600401808060200182810382526034815260200180613e4e6034913960400191505060405180910390fd5b6001600160e01b0319811663bc197c8160e01b14611a6c5760405162461bcd60e51b8152600401808060200182810382526028815260200180613e826028913960400191505060405180910390fd5b50505050505050565b806000606084901c611a85611701565b6001600160a01b0316816001600160a01b03161415611ae2578391506000611aac8661232c565b90508015611ad1576000611abf8761233f565b8203905080861115611acf578093505b505b611adb8684612352565b8285039350505b509250929050565b611af2611701565b6001600160a01b0316836001600160a01b03161480611b185750611b188361031b611701565b611b535760405162461bcd60e51b8152600401808060200182810382526029815260200180613f3f6029913960400191505060405180910390fd5b611b5e83838361236b565b505050565b805160408083015160208085015180519082012060608087015160809788015186517f39fe0f86a2d2e0dd565ff360d4ffe2d0fbaf1482241bc61221389cd22455a664818701528088019890985291870194909452958501526001600160a01b0390911660a084015260c0808401949094528151808403909401845260e09092019052815191012090565b611b5e8383836125d9565b60008281526101fc602052604090205415611c1357600080fd5b60008281526101fc602052604090819020829055517f5e2aa66efd74cce82b21852e317e5490d9ecc9e6bb953ae24d90851258cc2f5c90611c579084908490613d55565b60405180910390a15050565b60009182526101fb602052604090912055565b6001600160a01b038116611c9c5760405162461bcd60e51b81526004016108af90613c75565b7fb66dd16c47b218498425ac4f9d58fdb3ad27107adf3521463a91dfab2d3345448282604051611c57929190613d3e565b60008281526097602090815260409091208251611cec928401906133b9565b50817f6bb7ff708619ba0610cba295a58592e0451dee2622938c8755667688daf3529b611d188461156c565b6040805160208082528351818301528351919283929083019185019080838360005b83811015611d52578181015183820152602001611d3a565b50505050905090810190601f168015611d7f5780820380516001836020036101000a031916815260200191505b509250505060405180910390a25050565b611d9c8484848461264f565b50505050565b6000611dad30612326565b15905090565b611dbb612761565b611dc5828261285c565b611dcd612921565b611dd56129d2565b611ddd612a72565b611df560405180602001604052806000815250612b42565b611dfd6129d2565b611e078585612c0e565b610fc783612cdb565b6001600160a01b0381166000908152610195602052604081205460ff168061115c575061115c8383612cee565b60408051600180825281830190925260609160009190602080830190803683370190505090508281600081518110611e7157fe5b602090810291909101015292915050565b611e94846001600160a01b0316612326565b1561078157836001600160a01b031663f23a6e6187878686866040518663ffffffff1660e01b815260040180866001600160a01b03168152602001856001600160a01b0316815260200184815260200183815260200180602001828103825283818151815260200191508051906020019080838360005b83811015611f23578181015183820152602001611f0b565b50505050905090810190601f168015611f505780820380516001836020036101000a031916815260200191505b509650505050505050602060405180830381600087803b158015611f7357600080fd5b505af1925050508015611f9857506040513d6020811015611f9357600080fd5b505160015b611fa457611994613da9565b6001600160e01b0319811663f23a6e6160e01b14611a6c5760405162461bcd60e51b8152600401808060200182810382526028815260200180613e826028913960400191505060405180910390fd5b611ffb611701565b6001600160a01b0316836001600160a01b0316148061202157506120218361031b611701565b61205c5760405162461bcd60e51b8152600401808060200182810382526029815260200180613f3f6029913960400191505060405180910390fd5b611b5e838383612d1c565b805182516060918491849110156121325784846040516020018083805190602001908083835b602083106120ac5780518252601f19909201916020918201910161208d565b51815160209384036101000a600019018019909216911617905285519190930192850191508083835b602083106120f45780518252601f1990920191602091820191016120d5565b6001836020036101000a03801982511681845116808217855250505050505090500192505050604051602081830303815290604052925050506103d8565b60005b82518110156122425782818151811061214a57fe5b602001015160f81c60f81b6001600160f81b03191682828151811061216b57fe5b01602001516001600160f81b0319161461223a5785856040516020018083805190602001908083835b602083106121b35780518252601f199092019160209182019101612194565b51815160209384036101000a600019018019909216911617905285519190930192850191508083835b602083106121fb5780518252601f1990920191602091820191016121dc565b6001836020036101000a0380198251168184511680821785525050505050509050019250505060405160208183030381529060405293505050506103d8565b600101612135565b5092949350505050565b60608161227157506040805180820190915260018152600360fc1b60208201526103ec565b8160005b811561228957600101600a82049150612275565b6000816001600160401b03811180156122a157600080fd5b506040519080825280601f01601f1916602001820160405280156122cc576020820181803683370190505b50859350905060001982015b831561231d57600a840660300160f81b828280600190039350815181106122fb57fe5b60200101906001600160f81b031916908160001a905350600a840493506122d8565b50949350505050565b3b151590565b60009081526101fc602052604090205490565b60009081526101fd602052604090205490565b60009182526101fd602052604090912080549091019055565b6001600160a01b0383166123b05760405162461bcd60e51b81526004018080602001828103825260238152602001806140526023913960400191505060405180910390fd5b80518251146123f05760405162461bcd60e51b81526004018080602001828103825260288152602001806140f16028913960400191505060405180910390fd5b60006123fa611701565b905061241a81856000868660405180602001604052806000815250610781565b60005b83518110156124f8576124af83828151811061243557fe5b6020026020010151604051806060016040528060248152602001613f1b602491396065600088868151811061246657fe5b602002602001015181526020019081526020016000206000896001600160a01b03166001600160a01b03168152602001908152602001600020546117059092919063ffffffff16565b606560008684815181106124bf57fe5b602090810291909101810151825281810192909252604090810160009081206001600160a01b038a16825290925290205560010161241d565b5060006001600160a01b0316846001600160a01b0316826001600160a01b03167f4a39dc06d4c0dbc64b70af90fd698a233a518aa5d07e595d983b8c0526c8f7fb8686604051808060200180602001838103835285818151815260200191508051906020019060200280838360005b8381101561257f578181015183820152602001612567565b50505050905001838103825284818151815260200191508051906020019060200280838360005b838110156125be5781810151838201526020016125a6565b5050505090500194505050505060405180910390a450505050565b60006125e483612e3d565b905060008251604114156125ff576125fc8284612e89565b90505b846001600160a01b0316816001600160a01b031614610fc75760405162461bcd60e51b815260040180806020018281038252602181526020018061400f6021913960400191505060405180910390fd5b60008381526101fd602052604081205461266a90849061179c565b60008581526101fc602052604090205490915081111561269c5760405162461bcd60e51b81526004016108af90613c4b565b60008481526101fd602052604090208190556001600160a01b0385166126d45760405162461bcd60e51b81526004016108af90613cf4565b60006126de611701565b90506126ff816000886126f089611e3d565b6126f989611e3d565b88610781565b60008581526065602090815260408083206001600160a01b038a16845290915290205461272c908561179c565b60008681526065602090815260408083206001600160a01b038b16845290915281209190915561078190829088888888611e82565b600054610100900460ff168061277a575061277a611da2565b80612788575060005460ff16155b6127c35760405162461bcd60e51b815260040180806020018281038252602e815260200180613fe1602e913960400191505060405180910390fd5b600054610100900460ff161580156127ee576000805460ff1961ff0019909116610100171660011790555b60006127f8611701565b61016380546001600160a01b0319166001600160a01b038316908117909155604051919250906000907f8be0079c531659141344cd1fd0a4f28419497f9722a3daafe3b4186f6b6457e0908290a3508015612859576000805461ff00191690555b50565b600054610100900460ff16806128755750612875611da2565b80612883575060005460ff16155b6128be5760405162461bcd60e51b815260040180806020018281038252602e815260200180613fe1602e913960400191505060405180910390fd5b600054610100900460ff161580156128e9576000805460ff1961ff0019909116610100171660011790555b6101fe80546001600160a01b0319166001600160a01b0385161790556101ff8290558015611b5e576000805461ff0019169055505050565b600054610100900460ff168061293a575061293a611da2565b80612948575060005460ff16155b6129835760405162461bcd60e51b815260040180806020018281038252602e815260200180613fe1602e913960400191505060405180910390fd5b600054610100900460ff161580156129ae576000805460ff1961ff0019909116610100171660011790555b6129be6301ffc9a760e01b612f09565b8015612859576000805461ff001916905550565b600054610100900460ff16806129eb57506129eb611da2565b806129f9575060005460ff16155b612a345760405162461bcd60e51b815260040180806020018281038252602e815260200180613fe1602e913960400191505060405180910390fd5b600054610100900460ff161580156129be576000805460ff1961ff0019909116610100171660011790558015612859576000805461ff001916905550565b600054610100900460ff1680612a8b5750612a8b611da2565b80612a99575060005460ff16155b612ad45760405162461bcd60e51b815260040180806020018281038252602e815260200180613fe1602e913960400191505060405180910390fd5b600054610100900460ff16158015612aff576000805460ff1961ff0019909116610100171660011790555b6129be604051806040016040528060088152602001674d696e743131353560c01b815250604051806040016040528060018152602001603160f81b815250612f8d565b600054610100900460ff1680612b5b5750612b5b611da2565b80612b69575060005460ff16155b612ba45760405162461bcd60e51b815260040180806020018281038252602e815260200180613fe1602e913960400191505060405180910390fd5b600054610100900460ff16158015612bcf576000805460ff1961ff0019909116610100171660011790555b612bd88261304d565b612be8636cdb3d1360e11b612f09565b612bf86303a24d0760e21b612f09565b8015612c0a576000805461ff00191690555b5050565b600054610100900460ff1680612c275750612c27611da2565b80612c35575060005460ff16155b612c705760405162461bcd60e51b815260040180806020018281038252602e815260200180613fe1602e913960400191505060405180910390fd5b600054610100900460ff16158015612c9b576000805460ff1961ff0019909116610100171660011790555b8251612caf906102329060208601906133b9565b508151612cc4906102339060208501906133b9565b508015611b5e576000805461ff0019169055505050565b8051612c0a9060989060208401906133b9565b6001600160a01b03918216600090815260666020908152604080832093909416825291909152205460ff1690565b6001600160a01b038316612d615760405162461bcd60e51b81526004018080602001828103825260238152602001806140526023913960400191505060405180910390fd5b6000612d6b611701565b9050612d9b81856000612d7d87611e3d565b612d8687611e3d565b60405180602001604052806000815250610781565b612de282604051806060016040528060248152602001613f1b6024913960008681526065602090815260408083206001600160a01b038b1684529091529020549190611705565b60008481526065602090815260408083206001600160a01b03808a1680865291845282852095909555815188815292830187905281519394909390861692600080516020613eaa83398151915292908290030190a450505050565b6000612e47613060565b82604051602001808061190160f01b81525060020183815260200182815260200192505050604051602081830303815290604052805190602001209050919050565b60008151604114612ee1576040805162461bcd60e51b815260206004820152601f60248201527f45434453413a20696e76616c6964207369676e6174757265206c656e67746800604482015290519081900360640190fd5b60208201516040830151606084015160001a612eff868285856130a0565b9695505050505050565b6001600160e01b03198082161415612f68576040805162461bcd60e51b815260206004820152601c60248201527f4552433136353a20696e76616c696420696e7465726661636520696400000000604482015290519081900360640190fd5b6001600160e01b0319166000908152603360205260409020805460ff19166001179055565b600054610100900460ff1680612fa65750612fa6611da2565b80612fb4575060005460ff16155b612fef5760405162461bcd60e51b815260040180806020018281038252602e815260200180613fe1602e913960400191505060405180910390fd5b600054610100900460ff1615801561301a576000805460ff1961ff0019909116610100171660011790555b825160208085019190912083519184019190912060cb9190915560cc558015611b5e576000805461ff0019169055505050565b8051612c0a9060679060208401906133b9565b600061309b7f8b73c3c69bb8fe3d512ecc4cf759cc79239f7b179b0ffacaa9a75d522b39400f61308e6132f6565b6130966132fc565b613302565b905090565b60007f7fffffffffffffffffffffffffffffff5d576e7357a4501ddfe92f46681b20a08211156131015760405162461bcd60e51b8152600401808060200182810382526022815260200180613f686022913960400191505060405180910390fd5b6000601e8560ff1611156131db576004850360ff16601b148061312a57506004850360ff16601c145b6131655760405162461bcd60e51b81526004018080602001828103825260228152602001806140306022913960400191505060405180910390fd5b600161317087613364565b60048703868660405160008152602001604052604051808581526020018460ff1681526020018381526020018281526020019450505050506020604051602081039080840390855afa1580156131ca573d6000803e3d6000fd5b505050602060405103519050613292565b8460ff16601b14806131f057508460ff16601c145b61322b5760405162461bcd60e51b81526004018080602001828103825260228152602001806140306022913960400191505060405180910390fd5b60018686868660405160008152602001604052604051808581526020018460ff1681526020018381526020018281526020019450505050506020604051602081039080840390855afa158015613285573d6000803e3d6000fd5b5050506020604051035190505b6001600160a01b0381166132ed576040805162461bcd60e51b815260206004820152601860248201527f45434453413a20696e76616c6964207369676e61747572650000000000000000604482015290519081900360640190fd5b95945050505050565b60cb5490565b60cc5490565b600083838361330f6133b5565b3060405160200180868152602001858152602001848152602001838152602001826001600160a01b03168152602001955050505050506040516020818303038152906040528051906020012090509392505050565b604080517f19457468657265756d205369676e6564204d6573736167653a0a333200000000602080830191909152603c8083019490945282518083039094018452605c909101909152815191012090565b4690565b828054600181600116156101000203166002900490600052602060002090601f0160209004810192826133ef5760008555613435565b82601f1061340857805160ff1916838001178555613435565b82800160010185558215613435579182015b8281111561343557825182559160200191906001019061341a565b50613441929150613445565b5090565b5b808211156134415760008155600101613446565b80356001600160a01b03811681146103ec57600080fd5b600082601f830112613481578081fd5b8135602061349661349183613d86565b613d63565b82815281810190858301838502870184018810156134b2578586fd5b855b858110156134d0578135845292840192908401906001016134b4565b5090979650505050505050565b600082601f8301126134ed578081fd5b81356001600160401b0381111561350057fe5b613513601f8201601f1916602001613d63565b818152846020838601011115613527578283fd5b816020850160208301379081016020019190915292915050565b600060c08284031215613552578081fd5b61355c60c0613d63565b90508135815260208201356001600160401b038082111561357c57600080fd5b613588858386016134dd565b6020840152604084013560408401526135a36060850161345a565b60608401526080840135608084015260a08401359150808211156135c657600080fd5b506135d3848285016134dd565b60a08301525092915050565b6000602082840312156135f0578081fd5b61115c8261345a565b6000806040838503121561360b578081fd5b6136148361345a565b91506136226020840161345a565b90509250929050565b600080600080600060a08688031215613642578081fd5b61364b8661345a565b94506136596020870161345a565b935060408601356001600160401b0380821115613674578283fd5b61368089838a01613471565b94506060880135915080821115613695578283fd5b6136a189838a01613471565b935060808801359150808211156136b6578283fd5b506136c3888289016134dd565b9150509295509295909350565b600080600080600060a086880312156136e7578081fd5b6136f08661345a565b94506136fe6020870161345a565b9350604086013592506060860135915060808601356001600160401b03811115613726578182fd5b6136c3888289016134dd565b600080600060608486031215613746578283fd5b61374f8461345a565b925060208401356001600160401b038082111561376a578384fd5b61377687838801613471565b9350604086013591508082111561378b578283fd5b5061379886828701613471565b9150509250925092565b600080604083850312156137b4578182fd5b6137bd8361345a565b9150602083013580151581146137d1578182fd5b809150509250929050565b600080604083850312156137ee578182fd5b6137f78361345a565b946020939093013593505050565b600080600060608486031215613819578081fd5b6138228461345a565b95602085013595506040909401359392505050565b60008060408385031215613849578182fd5b82356001600160401b038082111561385f578384fd5b818501915085601f830112613872578384fd5b8135602061388261349183613d86565b82815281810190858301838502870184018b101561389e578889fd5b8896505b848710156138c7576138b38161345a565b8352600196909601959183019183016138a2565b50965050860135925050808211156138dd578283fd5b506138ea85828601613471565b9150509250929050565b600060208284031215613905578081fd5b81356001600160e01b03198116811461115c578182fd5b600080600080600060a08688031215613933578283fd5b85356001600160401b0380821115613949578485fd5b61395589838a016134dd565b9650602088013591508082111561396a578485fd5b61397689838a016134dd565b9550604088013591508082111561398b578485fd5b50613998888289016134dd565b9350506139a76060870161345a565b949793965091946080013592915050565b600080600080608085870312156139cd578182fd5b84356001600160401b038111156139e2578283fd5b6139ee87828801613541565b9450506139fd6020860161345a565b9250613a0b6040860161345a565b9396929550929360600135925050565b600080600060608486031215613a2f578081fd5b83356001600160401b03811115613a44578182fd5b613a5086828701613541565b935050613a5f6020850161345a565b9150604084013590509250925092565b600060208284031215613a80578081fd5b5035919050565b6000815180845260208085019450808401835b83811015613ab657815187529582019590820190600101613a9a565b509495945050505050565b6001600160a01b0391909116815260200190565b6001600160a01b03929092168252602082015260400190565b60006020825261115c6020830184613a87565b600060408252613b146040830185613a87565b82810360208401526132ed8185613a87565b901515815260200190565b6000602080835283518082850152825b81811015613b5d57858101830151858201604001528201613b41565b81811115613b6e5783604083870101525b50601f01601f1916929092016040019392505050565b60208082526010908201526f1cdd5c1c1b1e481a5b98dbdc9c9958dd60821b604082015260600190565b6020808252601190820152701d1bdad95b9259081a5b98dbdc9c9958dd607a1b604082015260600190565b60208082526010908201526f185b5bdd5b9d081a5b98dbdc9c9958dd60821b604082015260600190565b60208082526028908201527f455243313135353a207472616e736665722063616c6c6572206973206e6f7420604082015267185c1c1c9bdd995960c21b606082015260800190565b60208082526010908201526f6d6f7265207468616e20737570706c7960801b604082015260600190565b60208082526019908201527f4163636f756e742073686f756c642062652070726573656e7400000000000000604082015260600190565b60208082526028908201527f455243313135353a2069647320616e6420616d6f756e7473206c656e677468206040820152670dad2e6dac2e8c6d60c31b606082015260800190565b60208082526021908201527f455243313135353a206d696e7420746f20746865207a65726f206164647265736040820152607360f81b606082015260800190565b90815260200190565b9182526001600160a01b0316602082015260400190565b918252602082015260400190565b6040518181016001600160401b0381118282101715613d7e57fe5b604052919050565b60006001600160401b03821115613d9957fe5b5060209081020190565b60e01c90565b600060443d1015613db957610ab1565b600481823e6308c379a0613dcd8251613da3565b14613dd757610ab1565b6040513d600319016004823e80513d6001600160401b038160248401118184111715613e065750505050610ab1565b82840192508251915080821115613e205750505050610ab1565b503d83016020828401011115613e3857505050610ab1565b601f01601f191681016020016040529150509056fe455243313135353a207472616e7366657220746f206e6f6e2045524331313535526563656976657220696d706c656d656e746572455243313135353a204552433131353552656365697665722072656a656374656420746f6b656e73c3d58168c5ae7397731d063d5bbf3d657854427343f4c083240f7aacaa2d0f62455243313135353a2062616c616e636520717565727920666f7220746865207a65726f20616464726573734f776e61626c653a206e6577206f776e657220697320746865207a65726f2061646472657373455243313135353a206275726e20616d6f756e7420657863656564732062616c616e6365455243313135353a2063616c6c6572206973206e6f74206f776e6572206e6f7220617070726f76656445434453413a20696e76616c6964207369676e6174757265202773272076616c7565455243313135353a207472616e7366657220746f20746865207a65726f2061646472657373455243313135353a207472616e736665722063616c6c6572206973206e6f74206f776e6572206e6f7220617070726f766564496e697469616c697a61626c653a20636f6e747261637420697320616c726561647920696e697469616c697a65644e46543a207369676e617475726520766572696669636174696f6e206572726f7245434453413a20696e76616c6964207369676e6174757265202776272076616c7565455243313135353a206275726e2066726f6d20746865207a65726f2061646472657373455243313135353a20696e73756666696369656e742062616c616e636520666f72207472616e73666572455243313135353a2073657474696e6720617070726f76616c2073746174757320666f722073656c66455243313135353a206163636f756e747320616e6420696473206c656e677468206d69736d61746368455243313135353a2069647320616e6420616d6f756e7473206c656e677468206d69736d61746368a26469706673582212208c800b53dcb7f0f8f0823f9c561fd1158a7b8538a5730f006219ab1bd9a97f3564736f6c63430007060033",
  "immutableReferences": {},
  "source": "// SPDX-License-Identifier: MIT\n\npragma solidity 0.7.6;\npragma abicoder v2;\n\nimport \"./ERC1155Base.sol\";\ncontract ERC1155MetaSalt is ERC1155Base {        \n    function __ERC1155MetaSalt_init(string memory _name, string memory _symbol, string memory baseURI, address _erc20Token, uint256 _erc20CreateRewardValue) external virtual initializer {\n        __ERC1155MetaSalt_init_unchained(_name, _symbol, baseURI, _erc20Token, _erc20CreateRewardValue);\n    }\n    \n    function __ERC1155MetaSalt_init_unchained(string memory _name, string memory _symbol, string memory baseURI, address _erc20Token, uint256 _erc20CreateRewardValue) internal {\n        __Ownable_init_unchained();\n        __ERC1155Lazy_init_unchained(_erc20Token, _erc20CreateRewardValue);\n        __ERC165_init_unchained();\n        __Context_init_unchained();\n        __Mint1155Validator_init_unchained();\n        __ERC1155_init_unchained(\"\");        \n        __ERC1155Burnable_init_unchained();        \n        __ERC1155Base_init_unchained(_name, _symbol);        \n        _setBaseURI(baseURI);\n    }\n\n    uint256[49] private __gap;\n}\n",
  "sourcePath": "/Volumes/Data/MetaSalt/smart_contracts/nft/contracts/erc-1155/ERC1155MetaSalt.sol",
  "compiler": {
    "name": "solc",
    "version": "0.7.6+commit.7338295f.Emscripten.clang"
  },
  "schemaVersion": "3.4.5",
  "updatedAt": "2022-06-11T06:18:24.349Z",
  "networkType": "ethereum",
  "devdoc": {
    "kind": "dev",
    "methods": {
      "balanceOf(address,uint256)": {
        "details": "See {IERC1155-balanceOf}. Requirements: - `account` cannot be the zero address."
      },
      "balanceOfBatch(address[],uint256[])": {
        "details": "See {IERC1155-balanceOfBatch}. Requirements: - `accounts` and `ids` must have the same length."
      },
      "baseURI()": {
        "details": "Returns the base URI set via {_setBaseURI}. This will be automatically added as a prefix in {tokenURI} to each token's URI, or to the token ID if no specific URI is set for that token ID."
      },
      "owner()": {
        "details": "Returns the address of the current owner."
      },
      "renounceOwnership()": {
        "details": "Leaves the contract without owner. It will not be possible to call `onlyOwner` functions anymore. Can only be called by the current owner. NOTE: Renouncing ownership will leave the contract without an owner, thereby removing any functionality that is only available to the owner."
      },
      "safeBatchTransferFrom(address,address,uint256[],uint256[],bytes)": {
        "details": "See {IERC1155-safeBatchTransferFrom}."
      },
      "safeTransferFrom(address,address,uint256,uint256,bytes)": {
        "details": "See {IERC1155-safeTransferFrom}."
      },
      "setApprovalForAll(address,bool)": {
        "details": "See {IERC1155-setApprovalForAll}."
      },
      "transferOwnership(address)": {
        "details": "Transfers ownership of the contract to a new account (`newOwner`). Can only be called by the current owner."
      }
    },
    "version": 1
  },
  "userdoc": {
    "kind": "user",
    "methods": {},
    "version": 1
  }
}