{
  "contractName": "ERC721Test",
  "abi": [
    {
      "inputs": [],
      "name": "__ERC721Test_init",
      "outputs": [],
      "stateMutability": "nonpayable",
      "type": "function"
    },
    {
      "inputs": [
        {
          "components": [
            {
              "internalType": "uint256",
              "name": "tokenId",
              "type": "uint256"
            },
            {
              "internalType": "string",
              "name": "tokenURI",
              "type": "string"
            },
            {
              "internalType": "address",
              "name": "creator",
              "type": "address"
            },
            {
              "internalType": "uint256",
              "name": "royaltyFee",
              "type": "uint256"
            },
            {
              "internalType": "bytes",
              "name": "signature",
              "type": "bytes"
            }
          ],
          "internalType": "struct LibERC721LazyMint.Mint721Data",
          "name": "data",
          "type": "tuple"
        },
        {
          "internalType": "bytes",
          "name": "signature",
          "type": "bytes"
        }
      ],
      "name": "recover",
      "outputs": [
        {
          "internalType": "address",
          "name": "",
          "type": "address"
        }
      ],
      "stateMutability": "view",
      "type": "function"
    }
  ],
  "bytecode": "0x608060405234801561001057600080fd5b506109d1806100206000396000f3fe608060405234801561001057600080fd5b50600436106100365760003560e01c806318a062271461003b57806327079a7a14610064575b600080fd5b61004e610049366004610830565b61006e565b60405161005b9190610915565b60405180910390f35b61006c61009c565b005b60008061007a84610180565b9050600061008782610203565b9050610093818561024f565b95945050505050565b600054610100900460ff16806100b557506100b56102cf565b806100c3575060005460ff16155b6100fe5760405162461bcd60e51b815260040180806020018281038252602e81526020018061094c602e913960400191505060405180910390fd5b600054610100900460ff16158015610129576000805460ff1961ff0019909116610100171660011790555b61016b604051806040016040528060078152602001664d696e7437323160c81b815250604051806040016040528060018152602001603160f81b8152506102e0565b801561017d576000805461ff00191690555b50565b805160208083015180519082012060408085015160608087015183517f64b7745b2715150d007548102f4cb13be2e2fec2b73b3b0c0ac6e2f1e8934ccb8188015280850197909752908601939093526001600160a01b0316608085015260a0808501929092528051808503909201825260c090930190925281519101205b919050565b600061020d61038e565b82604051602001808061190160f01b81525060020183815260200182815260200192505050604051602081830303815290604052805190602001209050919050565b600081516041146102a7576040805162461bcd60e51b815260206004820152601f60248201527f45434453413a20696e76616c6964207369676e6174757265206c656e67746800604482015290519081900360640190fd5b60208201516040830151606084015160001a6102c5868285856103ce565b9695505050505050565b60006102da3061061b565b15905090565b600054610100900460ff16806102f957506102f96102cf565b80610307575060005460ff16155b6103425760405162461bcd60e51b815260040180806020018281038252602e81526020018061094c602e913960400191505060405180910390fd5b600054610100900460ff1615801561036d576000805460ff1961ff0019909116610100171660011790555b6103778383610621565b8015610389576000805461ff00191690555b505050565b60006103c97f8b73c3c69bb8fe3d512ecc4cf759cc79239f7b179b0ffacaa9a75d522b39400f6103bc6106e1565b6103c46106e7565b6106ed565b905090565b60007f7fffffffffffffffffffffffffffffff5d576e7357a4501ddfe92f46681b20a082111561042f5760405162461bcd60e51b815260040180806020018281038252602281526020018061092a6022913960400191505060405180910390fd5b6000601e8560ff161115610509576004850360ff16601b148061045857506004850360ff16601c145b6104935760405162461bcd60e51b815260040180806020018281038252602281526020018061097a6022913960400191505060405180910390fd5b600161049e8761074f565b60048703868660405160008152602001604052604051808581526020018460ff1681526020018381526020018281526020019450505050506020604051602081039080840390855afa1580156104f8573d6000803e3d6000fd5b5050506020604051035190506105c0565b8460ff16601b148061051e57508460ff16601c145b6105595760405162461bcd60e51b815260040180806020018281038252602281526020018061097a6022913960400191505060405180910390fd5b60018686868660405160008152602001604052604051808581526020018460ff1681526020018381526020018281526020019450505050506020604051602081039080840390855afa1580156105b3573d6000803e3d6000fd5b5050506020604051035190505b6001600160a01b038116610093576040805162461bcd60e51b815260206004820152601860248201527f45434453413a20696e76616c6964207369676e61747572650000000000000000604482015290519081900360640190fd5b3b151590565b600054610100900460ff168061063a575061063a6102cf565b80610648575060005460ff16155b6106835760405162461bcd60e51b815260040180806020018281038252602e81526020018061094c602e913960400191505060405180910390fd5b600054610100900460ff161580156106ae576000805460ff1961ff0019909116610100171660011790555b82516020808501919091208351918401919091206001919091556002558015610389576000805461ff0019169055505050565b60015490565b60025490565b60008383836106fa6107a0565b3060405160200180868152602001858152602001848152602001838152602001826001600160a01b03168152602001955050505050506040516020818303038152906040528051906020012090509392505050565b604080517f19457468657265756d205369676e6564204d6573736167653a0a333200000000602080830191909152603c8083019490945282518083039094018452605c909101909152815191012090565b4690565b80356001600160a01b03811681146101fe57600080fd5b600082601f8301126107cb578081fd5b813567ffffffffffffffff808211156107e057fe5b604051601f8301601f1916810160200182811182821017156107fe57fe5b604052828152848301602001861015610815578384fd5b82602086016020830137918201602001929092529392505050565b60008060408385031215610842578182fd5b823567ffffffffffffffff80821115610859578384fd5b9084019060a0828703121561086c578384fd5b60405160a08101818110838211171561088157fe5b60405282358152602083013582811115610899578586fd5b6108a5888286016107bb565b6020830152506108b7604084016107a4565b6040820152606083013560608201526080830135828111156108d7578586fd5b6108e3888286016107bb565b608083015250935060208501359150808211156108fe578283fd5b5061090b858286016107bb565b9150509250929050565b6001600160a01b039190911681526020019056fe45434453413a20696e76616c6964207369676e6174757265202773272076616c7565496e697469616c697a61626c653a20636f6e747261637420697320616c726561647920696e697469616c697a656445434453413a20696e76616c6964207369676e6174757265202776272076616c7565a2646970667358221220a43ab7f35bca7018161a44117110370a37b8e7803d0521b6c77901e84250e8ff64736f6c63430007060033",
  "immutableReferences": {},
  "source": "// SPDX-License-Identifier: MIT\npragma solidity 0.7.6;\npragma abicoder v2;\n\nimport \"../lib/LibERC721LazyMint.sol\";\nimport \"@openzeppelin/contracts-upgradeable/drafts/EIP712Upgradeable.sol\";\nimport \"../lib/LibSignature.sol\";\n\ncontract ERC721Test is EIP712Upgradeable {\n    using LibSignature for bytes32;\n\n    function __ERC721Test_init() external initializer {\n        __EIP712_init(\"Mint721\", \"1\");\n    }\n\n    function recover(LibERC721LazyMint.Mint721Data memory data, bytes memory signature) external view returns (address) {\n        bytes32 structHash = LibERC721LazyMint.hash(data);\n        bytes32 hash = _hashTypedDataV4(structHash);\n        return hash.recover(signature);\n    }\n}\n",
  "sourcePath": "/Volumes/Data/MetaSalt/smart_contracts/nft/contracts/test/ERC721Test.sol",
  "compiler": {
    "name": "solc",
    "version": "0.7.6+commit.7338295f.Emscripten.clang"
  },
  "schemaVersion": "3.4.5",
  "updatedAt": "2022-06-11T03:32:51.971Z",
  "devdoc": {
    "kind": "dev",
    "methods": {},
    "version": 1
  },
  "userdoc": {
    "kind": "user",
    "methods": {},
    "version": 1
  }
}