{
  "contractName": "ERC721MetaSalt",
  "abi": [
    {
      "anonymous": false,
      "inputs": [
        {
          "indexed": true,
          "internalType": "address",
          "name": "owner",
          "type": "address"
        },
        {
          "indexed": true,
          "internalType": "address",
          "name": "approved",
          "type": "address"
        },
        {
          "indexed": true,
          "internalType": "uint256",
          "name": "tokenId",
          "type": "uint256"
        }
      ],
      "name": "Approval",
      "type": "event"
    },
    {
      "anonymous": false,
      "inputs": [
        {
          "indexed": true,
          "internalType": "address",
          "name": "owner",
          "type": "address"
        },
        {
          "indexed": true,
          "internalType": "address",
          "name": "operator",
          "type": "address"
        },
        {
          "indexed": false,
          "internalType": "bool",
          "name": "approved",
          "type": "bool"
        }
      ],
      "name": "ApprovalForAll",
      "type": "event"
    },
    {
      "anonymous": false,
      "inputs": [
        {
          "indexed": false,
          "internalType": "address",
          "name": "owner",
          "type": "address"
        },
        {
          "indexed": false,
          "internalType": "string",
          "name": "name",
          "type": "string"
        },
        {
          "indexed": false,
          "internalType": "string",
          "name": "symbol",
          "type": "string"
        }
      ],
      "name": "CreateERC721MetaSalt",
      "type": "event"
    },
    {
      "anonymous": false,
      "inputs": [
        {
          "indexed": false,
          "internalType": "uint256",
          "name": "tokenId",
          "type": "uint256"
        },
        {
          "indexed": false,
          "internalType": "address",
          "name": "creator",
          "type": "address"
        },
        {
          "indexed": false,
          "internalType": "uint256",
          "name": "royaltyFee",
          "type": "uint256"
        }
      ],
      "name": "Creator",
      "type": "event"
    },
    {
      "anonymous": false,
      "inputs": [
        {
          "indexed": true,
          "internalType": "address",
          "name": "operator",
          "type": "address"
        },
        {
          "indexed": false,
          "internalType": "bool",
          "name": "hasApproval",
          "type": "bool"
        }
      ],
      "name": "DefaultApproval",
      "type": "event"
    },
    {
      "anonymous": false,
      "inputs": [
        {
          "indexed": true,
          "internalType": "address",
          "name": "previousOwner",
          "type": "address"
        },
        {
          "indexed": true,
          "internalType": "address",
          "name": "newOwner",
          "type": "address"
        }
      ],
      "name": "OwnershipTransferred",
      "type": "event"
    },
    {
      "anonymous": false,
      "inputs": [
        {
          "indexed": true,
          "internalType": "address",
          "name": "from",
          "type": "address"
        },
        {
          "indexed": true,
          "internalType": "address",
          "name": "to",
          "type": "address"
        },
        {
          "indexed": true,
          "internalType": "uint256",
          "name": "tokenId",
          "type": "uint256"
        }
      ],
      "name": "Transfer",
      "type": "event"
    },
    {
      "inputs": [],
      "name": "MetasaltTokenCreateRewardValue",
      "outputs": [
        {
          "internalType": "uint256",
          "name": "",
          "type": "uint256"
        }
      ],
      "stateMutability": "view",
      "type": "function",
      "constant": true
    },
    {
      "inputs": [
        {
          "internalType": "address",
          "name": "to",
          "type": "address"
        },
        {
          "internalType": "uint256",
          "name": "tokenId",
          "type": "uint256"
        }
      ],
      "name": "approve",
      "outputs": [],
      "stateMutability": "nonpayable",
      "type": "function"
    },
    {
      "inputs": [
        {
          "internalType": "address",
          "name": "owner",
          "type": "address"
        }
      ],
      "name": "balanceOf",
      "outputs": [
        {
          "internalType": "uint256",
          "name": "",
          "type": "uint256"
        }
      ],
      "stateMutability": "view",
      "type": "function",
      "constant": true
    },
    {
      "inputs": [],
      "name": "baseURI",
      "outputs": [
        {
          "internalType": "string",
          "name": "",
          "type": "string"
        }
      ],
      "stateMutability": "view",
      "type": "function",
      "constant": true
    },
    {
      "inputs": [
        {
          "internalType": "uint256",
          "name": "tokenId",
          "type": "uint256"
        }
      ],
      "name": "burn",
      "outputs": [],
      "stateMutability": "nonpayable",
      "type": "function"
    },
    {
      "inputs": [
        {
          "components": [
            {
              "internalType": "uint256",
              "name": "tokenId",
              "type": "uint256"
            },
            {
              "internalType": "string",
              "name": "tokenURI",
              "type": "string"
            },
            {
              "internalType": "address",
              "name": "creator",
              "type": "address"
            },
            {
              "internalType": "uint256",
              "name": "royaltyFee",
              "type": "uint256"
            },
            {
              "internalType": "bytes",
              "name": "signature",
              "type": "bytes"
            }
          ],
          "internalType": "struct LibERC721LazyMint.Mint721Data",
          "name": "data",
          "type": "tuple"
        }
      ],
      "name": "encode",
      "outputs": [
        {
          "internalType": "bytes",
          "name": "",
          "type": "bytes"
        }
      ],
      "stateMutability": "view",
      "type": "function",
      "constant": true
    },
    {
      "inputs": [
        {
          "internalType": "uint256",
          "name": "tokenId",
          "type": "uint256"
        }
      ],
      "name": "getApproved",
      "outputs": [
        {
          "internalType": "address",
          "name": "",
          "type": "address"
        }
      ],
      "stateMutability": "view",
      "type": "function",
      "constant": true
    },
    {
      "inputs": [
        {
          "internalType": "uint256",
          "name": "_id",
          "type": "uint256"
        }
      ],
      "name": "getCreator",
      "outputs": [
        {
          "internalType": "address",
          "name": "",
          "type": "address"
        }
      ],
      "stateMutability": "view",
      "type": "function",
      "constant": true
    },
    {
      "inputs": [
        {
          "internalType": "uint256",
          "name": "_id",
          "type": "uint256"
        }
      ],
      "name": "getRoyaltyFee",
      "outputs": [
        {
          "internalType": "uint256",
          "name": "",
          "type": "uint256"
        }
      ],
      "stateMutability": "view",
      "type": "function",
      "constant": true
    },
    {
      "inputs": [
        {
          "internalType": "address",
          "name": "owner",
          "type": "address"
        },
        {
          "internalType": "address",
          "name": "operator",
          "type": "address"
        }
      ],
      "name": "isApprovedForAll",
      "outputs": [
        {
          "internalType": "bool",
          "name": "",
          "type": "bool"
        }
      ],
      "stateMutability": "view",
      "type": "function",
      "constant": true
    },
    {
      "inputs": [],
      "name": "metasaltToken",
      "outputs": [
        {
          "internalType": "address",
          "name": "",
          "type": "address"
        }
      ],
      "stateMutability": "view",
      "type": "function",
      "constant": true
    },
    {
      "inputs": [
        {
          "components": [
            {
              "internalType": "uint256",
              "name": "tokenId",
              "type": "uint256"
            },
            {
              "internalType": "string",
              "name": "tokenURI",
              "type": "string"
            },
            {
              "internalType": "address",
              "name": "creator",
              "type": "address"
            },
            {
              "internalType": "uint256",
              "name": "royaltyFee",
              "type": "uint256"
            },
            {
              "internalType": "bytes",
              "name": "signature",
              "type": "bytes"
            }
          ],
          "internalType": "struct LibERC721LazyMint.Mint721Data",
          "name": "data",
          "type": "tuple"
        },
        {
          "internalType": "address",
          "name": "to",
          "type": "address"
        }
      ],
      "name": "mintAndTransfer",
      "outputs": [],
      "stateMutability": "nonpayable",
      "type": "function"
    },
    {
      "inputs": [],
      "name": "name",
      "outputs": [
        {
          "internalType": "string",
          "name": "",
          "type": "string"
        }
      ],
      "stateMutability": "view",
      "type": "function",
      "constant": true
    },
    {
      "inputs": [],
      "name": "owner",
      "outputs": [
        {
          "internalType": "address",
          "name": "",
          "type": "address"
        }
      ],
      "stateMutability": "view",
      "type": "function",
      "constant": true
    },
    {
      "inputs": [
        {
          "internalType": "uint256",
          "name": "tokenId",
          "type": "uint256"
        }
      ],
      "name": "ownerOf",
      "outputs": [
        {
          "internalType": "address",
          "name": "",
          "type": "address"
        }
      ],
      "stateMutability": "view",
      "type": "function",
      "constant": true
    },
    {
      "inputs": [],
      "name": "renounceOwnership",
      "outputs": [],
      "stateMutability": "nonpayable",
      "type": "function"
    },
    {
      "inputs": [
        {
          "internalType": "address",
          "name": "from",
          "type": "address"
        },
        {
          "internalType": "address",
          "name": "to",
          "type": "address"
        },
        {
          "internalType": "uint256",
          "name": "tokenId",
          "type": "uint256"
        }
      ],
      "name": "safeTransferFrom",
      "outputs": [],
      "stateMutability": "nonpayable",
      "type": "function"
    },
    {
      "inputs": [
        {
          "internalType": "address",
          "name": "from",
          "type": "address"
        },
        {
          "internalType": "address",
          "name": "to",
          "type": "address"
        },
        {
          "internalType": "uint256",
          "name": "tokenId",
          "type": "uint256"
        },
        {
          "internalType": "bytes",
          "name": "_data",
          "type": "bytes"
        }
      ],
      "name": "safeTransferFrom",
      "outputs": [],
      "stateMutability": "nonpayable",
      "type": "function"
    },
    {
      "inputs": [
        {
          "internalType": "address",
          "name": "operator",
          "type": "address"
        },
        {
          "internalType": "bool",
          "name": "approved",
          "type": "bool"
        }
      ],
      "name": "setApprovalForAll",
      "outputs": [],
      "stateMutability": "nonpayable",
      "type": "function"
    },
    {
      "inputs": [
        {
          "internalType": "address",
          "name": "_metaSaltToken",
          "type": "address"
        }
      ],
      "name": "setMetaSaltToken",
      "outputs": [],
      "stateMutability": "nonpayable",
      "type": "function"
    },
    {
      "inputs": [
        {
          "internalType": "bytes4",
          "name": "interfaceId",
          "type": "bytes4"
        }
      ],
      "name": "supportsInterface",
      "outputs": [
        {
          "internalType": "bool",
          "name": "",
          "type": "bool"
        }
      ],
      "stateMutability": "view",
      "type": "function",
      "constant": true
    },
    {
      "inputs": [],
      "name": "symbol",
      "outputs": [
        {
          "internalType": "string",
          "name": "",
          "type": "string"
        }
      ],
      "stateMutability": "view",
      "type": "function",
      "constant": true
    },
    {
      "inputs": [
        {
          "internalType": "uint256",
          "name": "index",
          "type": "uint256"
        }
      ],
      "name": "tokenByIndex",
      "outputs": [
        {
          "internalType": "uint256",
          "name": "",
          "type": "uint256"
        }
      ],
      "stateMutability": "view",
      "type": "function",
      "constant": true
    },
    {
      "inputs": [
        {
          "internalType": "address",
          "name": "owner",
          "type": "address"
        },
        {
          "internalType": "uint256",
          "name": "index",
          "type": "uint256"
        }
      ],
      "name": "tokenOfOwnerByIndex",
      "outputs": [
        {
          "internalType": "uint256",
          "name": "",
          "type": "uint256"
        }
      ],
      "stateMutability": "view",
      "type": "function",
      "constant": true
    },
    {
      "inputs": [
        {
          "internalType": "uint256",
          "name": "tokenId",
          "type": "uint256"
        }
      ],
      "name": "tokenURI",
      "outputs": [
        {
          "internalType": "string",
          "name": "",
          "type": "string"
        }
      ],
      "stateMutability": "view",
      "type": "function",
      "constant": true
    },
    {
      "inputs": [],
      "name": "totalSupply",
      "outputs": [
        {
          "internalType": "uint256",
          "name": "",
          "type": "uint256"
        }
      ],
      "stateMutability": "view",
      "type": "function",
      "constant": true
    },
    {
      "inputs": [
        {
          "internalType": "address",
          "name": "from",
          "type": "address"
        },
        {
          "internalType": "address",
          "name": "to",
          "type": "address"
        },
        {
          "internalType": "uint256",
          "name": "tokenId",
          "type": "uint256"
        }
      ],
      "name": "transferFrom",
      "outputs": [],
      "stateMutability": "nonpayable",
      "type": "function"
    },
    {
      "inputs": [
        {
          "components": [
            {
              "internalType": "uint256",
              "name": "tokenId",
              "type": "uint256"
            },
            {
              "internalType": "string",
              "name": "tokenURI",
              "type": "string"
            },
            {
              "internalType": "address",
              "name": "creator",
              "type": "address"
            },
            {
              "internalType": "uint256",
              "name": "royaltyFee",
              "type": "uint256"
            },
            {
              "internalType": "bytes",
              "name": "signature",
              "type": "bytes"
            }
          ],
          "internalType": "struct LibERC721LazyMint.Mint721Data",
          "name": "data",
          "type": "tuple"
        },
        {
          "internalType": "address",
          "name": "from",
          "type": "address"
        },
        {
          "internalType": "address",
          "name": "to",
          "type": "address"
        }
      ],
      "name": "transferFromOrMint",
      "outputs": [],
      "stateMutability": "nonpayable",
      "type": "function"
    },
    {
      "inputs": [
        {
          "internalType": "address",
          "name": "newOwner",
          "type": "address"
        }
      ],
      "name": "transferOwnership",
      "outputs": [],
      "stateMutability": "nonpayable",
      "type": "function"
    },
    {
      "inputs": [
        {
          "internalType": "string",
          "name": "_name",
          "type": "string"
        },
        {
          "internalType": "string",
          "name": "_symbol",
          "type": "string"
        },
        {
          "internalType": "string",
          "name": "baseURI",
          "type": "string"
        },
        {
          "internalType": "address",
          "name": "_erc20Token",
          "type": "address"
        },
        {
          "internalType": "uint256",
          "name": "_erc20CreateRewardValue",
          "type": "uint256"
        }
      ],
      "name": "__ERC721MetaSalt_init",
      "outputs": [],
      "stateMutability": "nonpayable",
      "type": "function"
    }
  ],
  "bytecode": "0x608060405234801561001057600080fd5b506136f4806100206000396000f3fe608060405234801561001057600080fd5b50600436106101da5760003560e01c8063715018a611610104578063ad3d7b7a116100a2578063d48e638a11610071578063d48e638a146103b4578063e985e9c5146103c7578063f2fde38b146103da578063f4bf8c05146103ed576101da565b8063ad3d7b7a14610373578063b88d4fde1461037b578063c87b56dd1461038e578063ccecc809146103a1576101da565b806395d89b41116100de57806395d89b41146103325780639e4c01411461033a578063a22cb4651461034d578063aac3b43914610360576101da565b8063715018a61461030f57806383adacb5146103175780638da5cb5b1461032a576101da565b806341f010de1161017c5780634f6ccce71161014b5780634f6ccce7146102ce5780636352211e146102e15780636c0360eb146102f457806370a08231146102fc576101da565b806341f010de1461028d57806342842e0e146102a057806342966c68146102b35780634af8bd22146102c6576101da565b8063095ea7b3116101b8578063095ea7b31461023d57806318160ddd1461025257806323b872dd146102675780632f745c591461027a576101da565b806301ffc9a7146101df57806306fdde0314610208578063081812fc1461021d575b600080fd5b6101f26101ed366004612ff0565b610400565b6040516101ff919061329e565b60405180910390f35b610210610413565b6040516101ff91906132a9565b61023061022b366004613187565b6104a9565b6040516101ff91906131ea565b61025061024b366004612fc7565b61050b565b005b61025a6105e6565b6040516101ff9190613354565b610250610275366004612eec565b6105f7565b61025a610288366004612fc7565b61064e565b61025061029b3660046130e8565b610679565b6102506102ae366004612eec565b610797565b6102506102c1366004613187565b6107b2565b61025a61087c565b61025a6102dc366004613187565b610883565b6102306102ef366004613187565b610899565b6102106108c1565b61025a61030a366004612ea0565b610922565b61025061098a565b61025061032536600461312b565b610a4a565b610230610a78565b610210610a88565b61025a610348366004613187565b610ae9565b61025061035b366004612f8d565b610afc565b61025061036e366004613018565b610c01565b610230610cf7565b610250610389366004612f27565b610d07565b61021061039c366004613187565b610d65565b6102506103af366004612ea0565b610f3f565b6102306103c2366004613187565b610fd6565b6101f26103d5366004612eba565b610ff2565b6102506103e8366004612ea0565b610ffe565b6102106103fb3660046130b5565b611115565b600061040b82611140565b90505b919050565b606a8054604080516020601f600260001961010060018816150201909516949094049384018190048102820181019092528281526060939092909183018282801561049f5780601f106104745761010080835404028352916020019161049f565b820191906000526020600020905b81548152906001019060200180831161048257829003601f168201915b5050505050905090565b60006104b4826111c4565b6104ef5760405162461bcd60e51b815260040180806020018281038252602c8152602001806135b9602c913960400191505060405180910390fd5b506000908152606860205260409020546001600160a01b031690565b600061051682610899565b9050806001600160a01b0316836001600160a01b031614156105695760405162461bcd60e51b815260040180806020018281038252602181526020018061363d6021913960400191505060405180910390fd5b806001600160a01b031661057b6111d1565b6001600160a01b0316148061059c575061059c816105976111d1565b6111d5565b6105d75760405162461bcd60e51b815260040180806020018281038252603881526020018061348f6038913960400191505060405180910390fd5b6105e18383611203565b505050565b60006105f26066611271565b905090565b6106086106026111d1565b8261127c565b6106435760405162461bcd60e51b815260040180806020018281038252603181526020018061365e6031913960400191505060405180910390fd5b6105e1838383611288565b6001600160a01b038216600090815260656020526040812061067090836113d4565b90505b92915050565b8151604083015160609190911c906001600160a01b031681146106b75760405162461bcd60e51b81526004016106ae906132bc565b60405180910390fd5b60006106c16111d1565b9050806001600160a01b031684604001516001600160a01b031614806106f057506106f0846040015182610ff2565b61070c5760405162461bcd60e51b81526004016106ae90613303565b6000610717856113e0565b9050816001600160a01b031685604001516001600160a01b031614610749576107498560400151828760800151611462565b7f6b7cf5856d17260bc32731a72e775520bc629b91e1faab58b4661f3e6ce22a0f8560000151866040015187606001516040516107889392919061335d565b60405180910390a15050505050565b6105e183838360405180602001604052806000815250610d07565b6107bb816111c4565b61082a57606081901c6107cc6111d1565b6001600160a01b0316816001600160a01b03161461081b5760405162461bcd60e51b815260040180806020018281038252602d81526020018061358c602d913960400191505060405180910390fd5b6108248261146d565b50610879565b6108356106026111d1565b6108705760405162461bcd60e51b815260040180806020018281038252603081526020018061368f6030913960400191505060405180910390fd5b61087981611488565b50565b6101c95481565b60008061089160668461155e565b509392505050565b600061040b826040518060600160405280602981526020016134f1602991396066919061157a565b606d8054604080516020601f600260001961010060018816150201909516949094049384018190048102820181019092528281526060939092909183018282801561049f5780601f106104745761010080835404028352916020019161049f565b60006001600160a01b0382166109695760405162461bcd60e51b815260040180806020018281038252602a8152602001806134c7602a913960400191505060405180910390fd5b6001600160a01b038216600090815260656020526040902061040b90611271565b6109926111d1565b6001600160a01b03166109a3610a78565b6001600160a01b0316146109fe576040805162461bcd60e51b815260206004820181905260248201527f4f776e61626c653a2063616c6c6572206973206e6f7420746865206f776e6572604482015290519081900360640190fd5b610194546040516000916001600160a01b0316907f8be0079c531659141344cd1fd0a4f28419497f9722a3daafe3b4186f6b6457e0908390a361019480546001600160a01b0319169055565b8251610a55906111c4565b15610a6e57610a6982828560000151610797565b6105e1565b6105e18382610679565b610194546001600160a01b031690565b606b8054604080516020601f600260001961010060018816150201909516949094049384018190048102820181019092528281526060939092909183018282801561049f5780601f106104745761010080835404028352916020019161049f565b60009081526101c7602052604090205490565b610b046111d1565b6001600160a01b0316826001600160a01b03161415610b6a576040805162461bcd60e51b815260206004820152601960248201527f4552433732313a20617070726f766520746f2063616c6c657200000000000000604482015290519081900360640190fd5b8060696000610b776111d1565b6001600160a01b03908116825260208083019390935260409182016000908120918716808252919093529120805460ff191692151592909217909155610bbb6111d1565b6001600160a01b03167f17307eab39ab6107e8899845ad3d59bd9653f200f220920489ca2b5937696c318360405180821515815260200191505060405180910390a35050565b600054610100900460ff1680610c1a5750610c1a611591565b80610c28575060005460ff16155b610c635760405162461bcd60e51b815260040180806020018281038252602e81526020018061351a602e913960400191505060405180910390fd5b600054610100900460ff16158015610c8e576000805460ff1961ff0019909116610100171660011790555b610c9b86868686866115a2565b7fb9803d81d7940793e76a2af33ec4b03f525e4ca5ebb280018cfbe07f5635dfb1610cc46111d1565b8787604051610cd5939291906131fe565b60405180910390a18015610cef576000805461ff00191690555b505050505050565b6101c8546001600160a01b031681565b610d18610d126111d1565b8361127c565b610d535760405162461bcd60e51b815260040180806020018281038252603181526020018061365e6031913960400191505060405180910390fd5b610d5f848484846115ee565b50505050565b6060610d70826111c4565b610dab5760405162461bcd60e51b815260040180806020018281038252602f81526020018061360e602f913960400191505060405180910390fd5b6000828152606c602090815260408083208054825160026001831615610100026000190190921691909104601f810185900485028201850190935282815292909190830182828015610e3e5780601f10610e1357610100808354040283529160200191610e3e565b820191906000526020600020905b815481529060010190602001808311610e2157829003601f168201915b505050505090506000610e4f6108c1565b9050805160001415610e635750905061040e565b815115610e7d57610e748183611640565b9250505061040e565b80610e8785611825565b6040516020018083805190602001908083835b60208310610eb95780518252601f199092019160209182019101610e9a565b51815160209384036101000a600019018019909216911617905285519190930192850191508083835b60208310610f015780518252601f199092019160209182019101610ee2565b6001836020036101000a0380198251168184511680821785525050505050509050019250505060405160208183030381529060405292505050919050565b610f476111d1565b6001600160a01b0316610f58610a78565b6001600160a01b031614610fb3576040805162461bcd60e51b815260206004820181905260248201527f4f776e61626c653a2063616c6c6572206973206e6f7420746865206f776e6572604482015290519081900360640190fd5b6101c880546001600160a01b0319166001600160a01b0392909216919091179055565b60009081526101c660205260409020546001600160a01b031690565b60006106708383611900565b6110066111d1565b6001600160a01b0316611017610a78565b6001600160a01b031614611072576040805162461bcd60e51b815260206004820181905260248201527f4f776e61626c653a2063616c6c6572206973206e6f7420746865206f776e6572604482015290519081900360640190fd5b6001600160a01b0381166110b75760405162461bcd60e51b81526004018080602001828103825260268152602001806133d16026913960400191505060405180910390fd5b610194546040516001600160a01b038084169216907f8be0079c531659141344cd1fd0a4f28419497f9722a3daafe3b4186f6b6457e090600090a361019480546001600160a01b0319166001600160a01b0392909216919091179055565b6060308260405160200161112a929190613234565b6040516020818303038152906040529050919050565b60006001600160e01b03198216638486f69f60e01b148061117157506001600160e01b031982166301ffc9a760e01b145b8061118c57506001600160e01b031982166380ac58cd60e01b145b806111a757506001600160e01b03198216635b5e139f60e01b145b8061040b5750506001600160e01b03191663780e9d6360e01b1490565b600061040b60668361192c565b3390565b6001600160a01b03918216600090815260696020908152604080832093909416825291909152205460ff1690565b600081815260686020526040902080546001600160a01b0319166001600160a01b038416908117909155819061123882610899565b6001600160a01b03167f8c5be1e5ebec7d5bd14f71427d1e84f3dd0314c0f7b2291e5b200ac8c7c3b92560405160405180910390a45050565b600061040b82611938565b6000610670838361193c565b826001600160a01b031661129b82610899565b6001600160a01b0316146112e05760405162461bcd60e51b81526004018080602001828103825260298152602001806135e56029913960400191505060405180910390fd5b6001600160a01b0382166113255760405162461bcd60e51b81526004018080602001828103825260248152602001806133f76024913960400191505060405180910390fd5b6113308383836105e1565b61133b600082611203565b6001600160a01b038316600090815260656020526040902061135d9082611968565b506001600160a01b03821660009081526065602052604090206113809082611974565b5061138d60668284611980565b5080826001600160a01b0316846001600160a01b03167fddf252ad1be2c89b69c2b068fc378daa952ba7f163c4a11628f55a4df523b3ef60405160405180910390a4505050565b60006106708383611996565b805160208083015180519082012060408085015160608087015183517f64b7745b2715150d007548102f4cb13be2e2fec2b73b3b0c0ac6e2f1e8934ccb8188015280850197909752908601939093526001600160a01b0316608085015260a0808501929092528051808503909201825260c09093019092528151910120919050565b6105e18383836119fa565b6000908152606e60205260409020805460ff19166001179055565b600061149382610899565b90506114a1816000846105e1565b6114ac600083611203565b6000828152606c602052604090205460026000196101006001841615020190911604156114ea576000828152606c602052604081206114ea91612c87565b6001600160a01b038116600090815260656020526040902061150c9083611968565b50611518606683611af3565b506115228261146d565b60405182906000906001600160a01b038416907fddf252ad1be2c89b69c2b068fc378daa952ba7f163c4a11628f55a4df523b3ef908390a45050565b600080808061156d8686611aff565b9097909650945050505050565b6000611587848484611b7a565b90505b9392505050565b600061159c30611c07565b15905090565b6115ab83611c0d565b6115b58282611c24565b6115bd611ce9565b6115c5611d8a565b6115cd611e27565b6115d5611ce9565b6115dd611f21565b6115e78585611ff0565b5050505050565b6115f9848484611288565b611605848484846120bb565b610d5f5760405162461bcd60e51b815260040180806020018281038252603281526020018061339f6032913960400191505060405180910390fd5b8051825160609184918491101561170b5784846040516020018083805190602001908083835b602083106116855780518252601f199092019160209182019101611666565b51815160209384036101000a600019018019909216911617905285519190930192850191508083835b602083106116cd5780518252601f1990920191602091820191016116ae565b6001836020036101000a0380198251168184511680821785525050505050509050019250505060405160208183030381529060405292505050610673565b60005b825181101561181b5782818151811061172357fe5b602001015160f81c60f81b6001600160f81b03191682828151811061174457fe5b01602001516001600160f81b031916146118135785856040516020018083805190602001908083835b6020831061178c5780518252601f19909201916020918201910161176d565b51815160209384036101000a600019018019909216911617905285519190930192850191508083835b602083106117d45780518252601f1990920191602091820191016117b5565b6001836020036101000a038019825116818451168082178552505050505050905001925050506040516020818303038152906040529350505050610673565b60010161170e565b5092949350505050565b60608161184a57506040805180820190915260018152600360fc1b602082015261040e565b8160005b811561186257600101600a8204915061184e565b60008167ffffffffffffffff8111801561187b57600080fd5b506040519080825280601f01601f1916602001820160405280156118a6576020820181803683370190505b50859350905060001982015b83156118f757600a840660300160f81b828280600190039350815181106118d557fe5b60200101906001600160f81b031916908160001a905350600a840493506118b2565b50949350505050565b6001600160a01b03811660009081526097602052604081205460ff1680610670575061067083836111d5565b60006106708383612224565b5490565b6001600160a01b03821660009081526097602052604081205460ff16806106705750610670838361223c565b600061067083836122d8565b6000610670838361239e565b600061158784846001600160a01b0385166123e8565b815460009082106119d85760405162461bcd60e51b815260040180806020018281038252602281526020018061337d6022913960400191505060405180910390fd5b8260000182815481106119e757fe5b9060005260206000200154905092915050565b6000611a058361247f565b90506000825160411415611a2057611a1d82846124cb565b90505b846001600160a01b0316816001600160a01b0316146115e7576040518060400160405280601c81526020017f7369676e617475726520766572696669636174696f6e206572726f720000000081525060405162461bcd60e51b81526004018080602001828103825283818151815260200191508051906020019080838360005b83811015611ab8578181015183820152602001611aa0565b50505050905090810190601f168015611ae55780820380516001836020036101000a031916815260200191505b509250505060405180910390fd5b6000610670838361254b565b815460009081908310611b435760405162461bcd60e51b815260040180806020018281038252602281526020018061356a6022913960400191505060405180910390fd5b6000846000018481548110611b5457fe5b906000526020600020906002020190508060000154816001015492509250509250929050565b60008281526001840160205260408120548281611bd85760405162461bcd60e51b8152602060048201818152835160248401528351909283926044909101919085019080838360008315611ab8578181015183820152602001611aa0565b50846000016001820381548110611beb57fe5b9060005260206000209060020201600101549150509392505050565b3b151590565b8051611c2090606d906020840190612ccb565b5050565b600054610100900460ff1680611c3d5750611c3d611591565b80611c4b575060005460ff16155b611c865760405162461bcd60e51b815260040180806020018281038252602e81526020018061351a602e913960400191505060405180910390fd5b600054610100900460ff16158015611cb1576000805460ff1961ff0019909116610100171660011790555b6101c880546001600160a01b0319166001600160a01b0385161790556101c982905580156105e1576000805461ff0019169055505050565b600054610100900460ff1680611d025750611d02611591565b80611d10575060005460ff16155b611d4b5760405162461bcd60e51b815260040180806020018281038252602e81526020018061351a602e913960400191505060405180910390fd5b600054610100900460ff16158015611d76576000805460ff1961ff0019909116610100171660011790555b8015610879576000805461ff001916905550565b600054610100900460ff1680611da35750611da3611591565b80611db1575060005460ff16155b611dec5760405162461bcd60e51b815260040180806020018281038252602e81526020018061351a602e913960400191505060405180910390fd5b600054610100900460ff16158015611e17576000805460ff1961ff0019909116610100171660011790555b611d766301ffc9a760e01b61261f565b600054610100900460ff1680611e405750611e40611591565b80611e4e575060005460ff16155b611e895760405162461bcd60e51b815260040180806020018281038252602e81526020018061351a602e913960400191505060405180910390fd5b600054610100900460ff16158015611eb4576000805460ff1961ff0019909116610100171660011790555b6000611ebe6111d1565b61019480546001600160a01b0319166001600160a01b038316908117909155604051919250906000907f8be0079c531659141344cd1fd0a4f28419497f9722a3daafe3b4186f6b6457e0908290a3508015610879576000805461ff001916905550565b600054610100900460ff1680611f3a5750611f3a611591565b80611f48575060005460ff16155b611f835760405162461bcd60e51b815260040180806020018281038252602e81526020018061351a602e913960400191505060405180910390fd5b600054610100900460ff16158015611fae576000805460ff1961ff0019909116610100171660011790555b611d76604051806040016040528060078152602001664d696e7437323160c81b815250604051806040016040528060018152602001603160f81b8152506126a3565b600054610100900460ff16806120095750612009611591565b80612017575060005460ff16155b6120525760405162461bcd60e51b815260040180806020018281038252602e81526020018061351a602e913960400191505060405180910390fd5b600054610100900460ff1615801561207d576000805460ff1961ff0019909116610100171660011790555b825161209090606a906020860190612ccb565b5081516120a490606b906020850190612ccb565b5080156105e1576000805461ff0019169055505050565b60006120cf846001600160a01b0316611c07565b6120db5750600161221c565b60006121e9630a85bd0160e11b6120f06111d1565b88878760405160240180856001600160a01b03168152602001846001600160a01b0316815260200183815260200180602001828103825283818151815260200191508051906020019080838360005b8381101561215757818101518382015260200161213f565b50505050905090810190601f1680156121845780820380516001836020036101000a031916815260200191505b5095505050505050604051602081830303815290604052906001600160e01b0319166020820180516001600160e01b03838183161783525050505060405180606001604052806032815260200161339f603291396001600160a01b0388169190612763565b9050600081806020019051602081101561220257600080fd5b50516001600160e01b031916630a85bd0160e11b14925050505b949350505050565b60009081526001919091016020526040902054151590565b6000612247826111c4565b6122825760405162461bcd60e51b815260040180806020018281038252602c815260200180613463602c913960400191505060405180910390fd5b600061228d83610899565b9050806001600160a01b0316846001600160a01b031614806122c85750836001600160a01b03166122bd846104a9565b6001600160a01b0316145b8061221c575061221c81856111d5565b60008181526001830160205260408120548015612394578354600019808301919081019060009087908390811061230b57fe5b906000526020600020015490508087600001848154811061232857fe5b60009182526020808320909101929092558281526001898101909252604090209084019055865487908061235857fe5b60019003818190600052602060002001600090559055866001016000878152602001908152602001600020600090556001945050505050610673565b6000915050610673565b60006123aa8383612224565b6123e057508154600181810184556000848152602080822090930184905584548482528286019093526040902091909155610673565b506000610673565b60008281526001840160205260408120548061244d57505060408051808201825283815260208082018481528654600181810189556000898152848120955160029093029095019182559151908201558654868452818801909252929091205561158a565b8285600001600183038154811061246057fe5b906000526020600020906002020160010181905550600091505061158a565b6000612489612772565b82604051602001808061190160f01b81525060020183815260200182815260200192505050604051602081830303815290604052805190602001209050919050565b60008151604114612523576040805162461bcd60e51b815260206004820152601f60248201527f45434453413a20696e76616c6964207369676e6174757265206c656e67746800604482015290519081900360640190fd5b60208201516040830151606084015160001a612541868285856127ad565b9695505050505050565b60008181526001830160205260408120548015612394578354600019808301919081019060009087908390811061257e57fe5b906000526020600020906002020190508087600001848154811061259e57fe5b6000918252602080832084546002909302019182556001938401549184019190915583548252898301905260409020908401905586548790806125dd57fe5b60008281526020808220600260001990940193840201828155600190810183905592909355888152898201909252604082209190915594506106739350505050565b6001600160e01b0319808216141561267e576040805162461bcd60e51b815260206004820152601c60248201527f4552433136353a20696e76616c696420696e7465726661636520696400000000604482015290519081900360640190fd5b6001600160e01b0319166000908152603360205260409020805460ff19166001179055565b600054610100900460ff16806126bc57506126bc611591565b806126ca575060005460ff16155b6127055760405162461bcd60e51b815260040180806020018281038252602e81526020018061351a602e913960400191505060405180910390fd5b600054610100900460ff16158015612730576000805460ff1961ff0019909116610100171660011790555b825160208085019190912083519184019190912060fc9190915560fd5580156105e1576000805461ff0019169055505050565b60606115878484600085612a03565b60006105f27f8b73c3c69bb8fe3d512ecc4cf759cc79239f7b179b0ffacaa9a75d522b39400f6127a0612b5e565b6127a8612b64565b612b6a565b60007f7fffffffffffffffffffffffffffffff5d576e7357a4501ddfe92f46681b20a082111561280e5760405162461bcd60e51b815260040180806020018281038252602281526020018061341b6022913960400191505060405180910390fd5b6000601e8560ff1611156128e8576004850360ff16601b148061283757506004850360ff16601c145b6128725760405162461bcd60e51b81526004018080602001828103825260228152602001806135486022913960400191505060405180910390fd5b600161287d87612bcc565b60048703868660405160008152602001604052604051808581526020018460ff1681526020018381526020018281526020019450505050506020604051602081039080840390855afa1580156128d7573d6000803e3d6000fd5b50505060206040510351905061299f565b8460ff16601b14806128fd57508460ff16601c145b6129385760405162461bcd60e51b81526004018080602001828103825260228152602001806135486022913960400191505060405180910390fd5b60018686868660405160008152602001604052604051808581526020018460ff1681526020018381526020018281526020019450505050506020604051602081039080840390855afa158015612992573d6000803e3d6000fd5b5050506020604051035190505b6001600160a01b0381166129fa576040805162461bcd60e51b815260206004820152601860248201527f45434453413a20696e76616c6964207369676e61747572650000000000000000604482015290519081900360640190fd5b95945050505050565b606082471015612a445760405162461bcd60e51b815260040180806020018281038252602681526020018061343d6026913960400191505060405180910390fd5b612a4d85611c07565b612a9e576040805162461bcd60e51b815260206004820152601d60248201527f416464726573733a2063616c6c20746f206e6f6e2d636f6e7472616374000000604482015290519081900360640190fd5b600080866001600160a01b031685876040518082805190602001908083835b60208310612adc5780518252601f199092019160209182019101612abd565b6001836020036101000a03801982511681845116808217855250505050505090500191505060006040518083038185875af1925050503d8060008114612b3e576040519150601f19603f3d011682016040523d82523d6000602084013e612b43565b606091505b5091509150612b53828286612c1d565b979650505050505050565b60fc5490565b60fd5490565b6000838383612b77612c83565b3060405160200180868152602001858152602001848152602001838152602001826001600160a01b03168152602001955050505050506040516020818303038152906040528051906020012090509392505050565b604080517f19457468657265756d205369676e6564204d6573736167653a0a333200000000602080830191909152603c8083019490945282518083039094018452605c909101909152815191012090565b60608315612c2c57508161158a565b825115612c3c5782518084602001fd5b60405162461bcd60e51b8152602060048201818152845160248401528451859391928392604401919085019080838360008315611ab8578181015183820152602001611aa0565b4690565b50805460018160011615610100020316600290046000825580601f10612cad5750610879565b601f0160209004906000526020600020908101906108799190612d57565b828054600181600116156101000203166002900490600052602060002090601f016020900481019282612d015760008555612d47565b82601f10612d1a57805160ff1916838001178555612d47565b82800160010185558215612d47579182015b82811115612d47578251825591602001919060010190612d2c565b50612d53929150612d57565b5090565b5b80821115612d535760008155600101612d58565b80356001600160a01b038116811461040e57600080fd5b600082601f830112612d93578081fd5b813567ffffffffffffffff80821115612da857fe5b604051601f8301601f191681016020018281118282101715612dc657fe5b604052828152848301602001861015612ddd578384fd5b82602086016020830137918201602001929092529392505050565b600060a08284031215612e09578081fd5b60405160a0810167ffffffffffffffff8282108183111715612e2757fe5b81604052829350843583526020850135915080821115612e4657600080fd5b612e5286838701612d83565b6020840152612e6360408601612d6c565b6040840152606085013560608401526080850135915080821115612e8657600080fd5b50612e9385828601612d83565b6080830152505092915050565b600060208284031215612eb1578081fd5b61067082612d6c565b60008060408385031215612ecc578081fd5b612ed583612d6c565b9150612ee360208401612d6c565b90509250929050565b600080600060608486031215612f00578081fd5b612f0984612d6c565b9250612f1760208501612d6c565b9150604084013590509250925092565b60008060008060808587031215612f3c578081fd5b612f4585612d6c565b9350612f5360208601612d6c565b925060408501359150606085013567ffffffffffffffff811115612f75578182fd5b612f8187828801612d83565b91505092959194509250565b60008060408385031215612f9f578182fd5b612fa883612d6c565b915060208301358015158114612fbc578182fd5b809150509250929050565b60008060408385031215612fd9578182fd5b612fe283612d6c565b946020939093013593505050565b600060208284031215613001578081fd5b81356001600160e01b03198116811461158a578182fd5b600080600080600060a0868803121561302f578081fd5b853567ffffffffffffffff80821115613046578283fd5b61305289838a01612d83565b96506020880135915080821115613067578283fd5b61307389838a01612d83565b95506040880135915080821115613088578283fd5b5061309588828901612d83565b9350506130a460608701612d6c565b949793965091946080013592915050565b6000602082840312156130c6578081fd5b813567ffffffffffffffff8111156130dc578182fd5b61221c84828501612df8565b600080604083850312156130fa578182fd5b823567ffffffffffffffff811115613110578283fd5b61311c85828601612df8565b925050612ee360208401612d6c565b60008060006060848603121561313f578283fd5b833567ffffffffffffffff811115613155578384fd5b61316186828701612df8565b93505061317060208501612d6c565b915061317e60408501612d6c565b90509250925092565b600060208284031215613198578081fd5b5035919050565b60008151808452815b818110156131c4576020818501810151868301820152016131a8565b818111156131d55782602083870101525b50601f01601f19169290920160200192915050565b6001600160a01b0391909116815260200190565b6001600160a01b03841681526060602082018190526000906132229083018561319f565b8281036040840152612541818561319f565b600060018060a01b0380851683526040602084015283516040840152602084015160a0606085015261326960e085018261319f565b9050816040860151166080850152606085015160a085015260808501519150603f198482030160c0850152612541818361319f565b901515815260200190565b600060208252610670602083018461319f565b60208082526027908201527f4552433732314d65746153616c743a20746f6b656e4964206973206e6f74206360408201526637b93932b1ba1760c91b606082015260800190565b60208082526031908201527f4552433732313a207472616e736665722063616c6c6572206973206e6f74206f6040820152701ddb995c881b9bdc88185c1c1c9bdd9959607a1b606082015260800190565b90815260200190565b9283526001600160a01b0391909116602083015260408201526060019056fe456e756d657261626c655365743a20696e646578206f7574206f6620626f756e64734552433732313a207472616e7366657220746f206e6f6e20455243373231526563656976657220696d706c656d656e7465724f776e61626c653a206e6577206f776e657220697320746865207a65726f20616464726573734552433732313a207472616e7366657220746f20746865207a65726f206164647265737345434453413a20696e76616c6964207369676e6174757265202773272076616c7565416464726573733a20696e73756666696369656e742062616c616e636520666f722063616c6c4552433732313a206f70657261746f7220717565727920666f72206e6f6e6578697374656e7420746f6b656e4552433732313a20617070726f76652063616c6c6572206973206e6f74206f776e6572206e6f7220617070726f76656420666f7220616c6c4552433732313a2062616c616e636520717565727920666f7220746865207a65726f20616464726573734552433732313a206f776e657220717565727920666f72206e6f6e6578697374656e7420746f6b656e496e697469616c697a61626c653a20636f6e747261637420697320616c726561647920696e697469616c697a656445434453413a20696e76616c6964207369676e6174757265202776272076616c7565456e756d657261626c654d61703a20696e646578206f7574206f6620626f756e64734552433732314275726e61626c653a2063616c6c6572206973206e6f74206f776e65722c206e6f74206275726e4552433732313a20617070726f76656420717565727920666f72206e6f6e6578697374656e7420746f6b656e4552433732313a207472616e73666572206f6620746f6b656e2074686174206973206e6f74206f776e4552433732314d657461646174613a2055524920717565727920666f72206e6f6e6578697374656e7420746f6b656e4552433732313a20617070726f76616c20746f2063757272656e74206f776e65724552433732313a207472616e736665722063616c6c6572206973206e6f74206f776e6572206e6f7220617070726f7665644552433732314275726e61626c653a2063616c6c6572206973206e6f74206f776e6572206e6f7220617070726f766564a2646970667358221220799915a666f0fc933ebb77f0f69f0e516e487c231e0fbfd20a7b1a278bf9990264736f6c63430007060033",
  "immutableReferences": {},
  "source": "// SPDX-License-Identifier: MIT\npragma solidity 0.7.6;\npragma abicoder v2;\n\nimport \"./ERC721Base.sol\";\ncontract ERC721MetaSalt is ERC721Base {\n\n    event CreateERC721MetaSalt(address owner, string name, string symbol);\n\n    function __ERC721MetaSalt_init(string memory _name, string memory _symbol, string memory baseURI, address _erc20Token, uint256 _erc20CreateRewardValue) external initializer {\n        __ERC721MetaSalt_init_unchained(_name, _symbol, baseURI, _erc20Token, _erc20CreateRewardValue);\n        emit CreateERC721MetaSalt(_msgSender(), _name, _symbol);\n    }\n\n    function __ERC721MetaSalt_init_unchained(string memory _name, string memory _symbol, string memory baseURI, address _erc20Token, uint256 _erc20CreateRewardValue) internal {\n        _setBaseURI(baseURI);\n        __ERC721Lazy_init_unchained(_erc20Token, _erc20CreateRewardValue);        \n        __Context_init_unchained();\n        __ERC165_init_unchained();\n        __Ownable_init_unchained();\n        __ERC721Burnable_init_unchained();\n        __Mint721Validator_init_unchained();        \n        __ERC721_init_unchained(_name, _symbol);\n    }\n    uint256[50] private __gap;\n}",
  "sourcePath": "/Volumes/Data/MetaSalt/smart_contracts/nft/contracts/ERC721MetaSalt.sol",
  "compiler": {
    "name": "solc",
    "version": "0.7.6+commit.7338295f.Emscripten.clang"
  },
  "schemaVersion": "3.4.5",
  "updatedAt": "2022-06-11T06:18:25.700Z",
  "networkType": "ethereum",
  "devdoc": {
    "kind": "dev",
    "methods": {
      "approve(address,uint256)": {
        "details": "See {IERC721-approve}."
      },
      "balanceOf(address)": {
        "details": "See {IERC721-balanceOf}."
      },
      "baseURI()": {
        "details": "Returns the base URI set via {_setBaseURI}. This will be automatically added as a prefix in {tokenURI} to each token's URI, or to the token ID if no specific URI is set for that token ID."
      },
      "burn(uint256)": {
        "details": "Burns `tokenId`. See {ERC721-_burn}. Requirements: - The caller must own `tokenId` or be an approved operator."
      },
      "getApproved(uint256)": {
        "details": "See {IERC721-getApproved}."
      },
      "name()": {
        "details": "See {IERC721Metadata-name}."
      },
      "owner()": {
        "details": "Returns the address of the current owner."
      },
      "ownerOf(uint256)": {
        "details": "See {IERC721-ownerOf}."
      },
      "renounceOwnership()": {
        "details": "Leaves the contract without owner. It will not be possible to call `onlyOwner` functions anymore. Can only be called by the current owner. NOTE: Renouncing ownership will leave the contract without an owner, thereby removing any functionality that is only available to the owner."
      },
      "safeTransferFrom(address,address,uint256)": {
        "details": "See {IERC721-safeTransferFrom}."
      },
      "safeTransferFrom(address,address,uint256,bytes)": {
        "details": "See {IERC721-safeTransferFrom}."
      },
      "setApprovalForAll(address,bool)": {
        "details": "See {IERC721-setApprovalForAll}."
      },
      "symbol()": {
        "details": "See {IERC721Metadata-symbol}."
      },
      "tokenByIndex(uint256)": {
        "details": "See {IERC721Enumerable-tokenByIndex}."
      },
      "tokenOfOwnerByIndex(address,uint256)": {
        "details": "See {IERC721Enumerable-tokenOfOwnerByIndex}."
      },
      "tokenURI(uint256)": {
        "details": "See {IERC721Metadata-tokenURI}."
      },
      "totalSupply()": {
        "details": "See {IERC721Enumerable-totalSupply}."
      },
      "transferFrom(address,address,uint256)": {
        "details": "See {IERC721-transferFrom}."
      },
      "transferOwnership(address)": {
        "details": "Transfers ownership of the contract to a new account (`newOwner`). Can only be called by the current owner."
      }
    },
    "version": 1
  },
  "userdoc": {
    "kind": "user",
    "methods": {},
    "version": 1
  }
}