{
  "contractName": "LibERC1155LazyMint",
  "abi": [
    {
      "inputs": [],
      "name": "ERC1155_LAZY_ASSET_CLASS",
      "outputs": [
        {
          "internalType": "bytes4",
          "name": "",
          "type": "bytes4"
        }
      ],
      "stateMutability": "view",
      "type": "function"
    },
    {
      "inputs": [],
      "name": "MINT_AND_TRANSFER_TYPEHASH",
      "outputs": [
        {
          "internalType": "bytes32",
          "name": "",
          "type": "bytes32"
        }
      ],
      "stateMutability": "view",
      "type": "function"
    }
  ],
  "bytecode": "0x60fb610025600b82828239805160001a60731461001857fe5b30600052607381538281f3fe7300000000000000000000000000000000000000003014608060405260043610603d5760003560e01c80637987105f14604257806390c20c4314605a575b600080fd5b6048607d565b60408051918252519081900360200190f35b606060a1565b604080516001600160e01b03199092168252519081900360200190f35b7f39fe0f86a2d2e0dd565ff360d4ffe2d0fbaf1482241bc61221389cd22455a66481565b7f1cdfaa400bc064c91b5cc20e571cfcc92103980be96e01fb36dda1962d8d78cb8156fea26469706673582212202e92f349af90dacfc738a7dd77a269f23c16889418175fccb801225ee523be0e64736f6c63430007060033",
  "immutableReferences": {},
  "source": "// SPDX-License-Identifier: MIT\npragma solidity >=0.6.2 <0.8.0;\n\nlibrary LibERC1155LazyMint {\n    bytes4 constant public ERC1155_LAZY_ASSET_CLASS = bytes4(keccak256(\"ERC1155_LAZY\"));\n    bytes4 constant _INTERFACE_ID_MINT_AND_TRANSFER = 0x6db15a0f;\n\n    struct Mint1155Data {\n        uint256 tokenId;\n        string tokenURI;\n        uint256 supply;\n        address creator;\n        uint256 royaltyFee;\n        bytes signature;      \n    }\n\n    bytes32 public constant MINT_AND_TRANSFER_TYPEHASH = keccak256(\"Mint1155(uint256 tokenId,uint256 supply,string tokenURI,address creator,uint256 royaltyFee)\");\n\n    function hash(Mint1155Data memory data) internal pure returns (bytes32) {        \n        return keccak256(abi.encode(\n                MINT_AND_TRANSFER_TYPEHASH,\n                data.tokenId,\n                data.supply,\n                keccak256(bytes(data.tokenURI)),\n                data.creator,\n                data.royaltyFee    \n            ));\n    }\n}\n",
  "sourcePath": "/Volumes/Data/MetaSalt/smart_contracts/nft/contracts/lib/LibERC1155LazyMint.sol",
  "compiler": {
    "name": "solc",
    "version": "0.7.6+commit.7338295f.Emscripten.clang"
  },
  "schemaVersion": "3.4.5",
  "updatedAt": "2022-06-11T03:32:51.957Z",
  "devdoc": {
    "kind": "dev",
    "methods": {},
    "version": 1
  },
  "userdoc": {
    "kind": "user",
    "methods": {},
    "version": 1
  }
}