{
  "contractName": "LibERC721LazyMint",
  "abi": [
    {
      "inputs": [],
      "name": "ERC721_LAZY_ASSET_CLASS",
      "outputs": [
        {
          "internalType": "bytes4",
          "name": "",
          "type": "bytes4"
        }
      ],
      "stateMutability": "view",
      "type": "function"
    },
    {
      "inputs": [],
      "name": "MINT_AND_TRANSFER_TYPEHASH",
      "outputs": [
        {
          "internalType": "bytes32",
          "name": "",
          "type": "bytes32"
        }
      ],
      "stateMutability": "view",
      "type": "function"
    }
  ],
  "bytecode": "0x60fb610025600b82828239805160001a60731461001857fe5b30600052607381538281f3fe7300000000000000000000000000000000000000003014608060405260043610603d5760003560e01c80637987105f14604257806394d5e89d14605a575b600080fd5b6048607d565b60408051918252519081900360200190f35b606060a1565b604080516001600160e01b03199092168252519081900360200190f35b7f64b7745b2715150d007548102f4cb13be2e2fec2b73b3b0c0ac6e2f1e8934ccb81565b7fd8f960c1450658267efb07308b4050c9e705cea25a53b560236c88cb149696be8156fea2646970667358221220957cd6af130d3a7727a9d5568ec929d080c84cea4762bbbbac181e7468956ac364736f6c63430007060033",
  "immutableReferences": {},
  "source": "// SPDX-License-Identifier: MIT\npragma solidity 0.7.6;\n\nlibrary LibERC721LazyMint {\n    bytes4 constant public ERC721_LAZY_ASSET_CLASS = bytes4(keccak256(\"ERC721_LAZY\"));\n    bytes4 constant _INTERFACE_ID_MINT_AND_TRANSFER = 0x8486f69f;\n\n    struct Mint721Data {\n        uint tokenId;\n        string tokenURI;\n        address creator;\n        uint royaltyFee;        \n        bytes signature;        \n    }\n\n    bytes32 public constant MINT_AND_TRANSFER_TYPEHASH = keccak256(\"Mint721(uint256 tokenId,string tokenURI,address creator,uint royaltyFee)\");\n\n    function hash(Mint721Data memory data) internal pure returns (bytes32) {\n        return keccak256(abi.encode(\n                MINT_AND_TRANSFER_TYPEHASH,\n                data.tokenId,\n                keccak256(bytes(data.tokenURI)),\n                data.creator,\n                data.royaltyFee                \n            ));\n    }\n\n}\n",
  "sourcePath": "/Volumes/Data/MetaSalt/smart_contracts/nft/contracts/lib/LibERC721LazyMint.sol",
  "compiler": {
    "name": "solc",
    "version": "0.7.6+commit.7338295f.Emscripten.clang"
  },
  "schemaVersion": "3.4.5",
  "updatedAt": "2022-06-11T03:32:51.958Z",
  "devdoc": {
    "kind": "dev",
    "methods": {},
    "version": 1
  },
  "userdoc": {
    "kind": "user",
    "methods": {},
    "version": 1
  }
}